{
  "_format": "hh-sol-artifact-1",
  "contractName": "TestUSDCoin",
  "sourceName": "contracts/TestUSDCoin.sol",
  "abi": [
    {
      "inputs": [],
      "stateMutability": "nonpayable",
      "type": "constructor"
    },
    {
      "anonymous": false,
      "inputs": [
        {
          "indexed": true,
          "internalType": "address",
          "name": "owner",
          "type": "address"
        },
        {
          "indexed": true,
          "internalType": "address",
          "name": "spender",
          "type": "address"
        },
        {
          "indexed": false,
          "internalType": "uint256",
          "name": "value",
          "type": "uint256"
        }
      ],
      "name": "Approval",
      "type": "event"
    },
    {
      "anonymous": false,
      "inputs": [
        {
          "indexed": true,
          "internalType": "address",
          "name": "from",
          "type": "address"
        },
        {
          "indexed": true,
          "internalType": "address",
          "name": "to",
          "type": "address"
        },
        {
          "indexed": false,
          "internalType": "uint256",
          "name": "value",
          "type": "uint256"
        }
      ],
      "name": "Transfer",
      "type": "event"
    },
    {
      "inputs": [
        {
          "internalType": "address",
          "name": "owner",
          "type": "address"
        },
        {
          "internalType": "address",
          "name": "spender",
          "type": "address"
        }
      ],
      "name": "allowance",
      "outputs": [
        {
          "internalType": "uint256",
          "name": "",
          "type": "uint256"
        }
      ],
      "stateMutability": "view",
      "type": "function"
    },
    {
      "inputs": [
        {
          "internalType": "address",
          "name": "spender",
          "type": "address"
        },
        {
          "internalType": "uint256",
          "name": "amount",
          "type": "uint256"
        }
      ],
      "name": "approve",
      "outputs": [
        {
          "internalType": "bool",
          "name": "",
          "type": "bool"
        }
      ],
      "stateMutability": "nonpayable",
      "type": "function"
    },
    {
      "inputs": [
        {
          "internalType": "address",
          "name": "account",
          "type": "address"
        }
      ],
      "name": "balanceOf",
      "outputs": [
        {
          "internalType": "uint256",
          "name": "",
          "type": "uint256"
        }
      ],
      "stateMutability": "view",
      "type": "function"
    },
    {
      "inputs": [],
      "name": "decimals",
      "outputs": [
        {
          "internalType": "uint8",
          "name": "",
          "type": "uint8"
        }
      ],
      "stateMutability": "view",
      "type": "function"
    },
    {
      "inputs": [
        {
          "internalType": "address",
          "name": "spender",
          "type": "address"
        },
        {
          "internalType": "uint256",
          "name": "subtractedValue",
          "type": "uint256"
        }
      ],
      "name": "decreaseAllowance",
      "outputs": [
        {
          "internalType": "bool",
          "name": "",
          "type": "bool"
        }
      ],
      "stateMutability": "nonpayable",
      "type": "function"
    },
    {
      "inputs": [
        {
          "internalType": "uint256",
          "name": "amount",
          "type": "uint256"
        }
      ],
      "name": "faucet",
      "outputs": [],
      "stateMutability": "nonpayable",
      "type": "function"
    },
    {
      "inputs": [
        {
          "internalType": "address",
          "name": "spender",
          "type": "address"
        },
        {
          "internalType": "uint256",
          "name": "addedValue",
          "type": "uint256"
        }
      ],
      "name": "increaseAllowance",
      "outputs": [
        {
          "internalType": "bool",
          "name": "",
          "type": "bool"
        }
      ],
      "stateMutability": "nonpayable",
      "type": "function"
    },
    {
      "inputs": [],
      "name": "name",
      "outputs": [
        {
          "internalType": "string",
          "name": "",
          "type": "string"
        }
      ],
      "stateMutability": "view",
      "type": "function"
    },
    {
      "inputs": [],
      "name": "symbol",
      "outputs": [
        {
          "internalType": "string",
          "name": "",
          "type": "string"
        }
      ],
      "stateMutability": "view",
      "type": "function"
    },
    {
      "inputs": [],
      "name": "totalSupply",
      "outputs": [
        {
          "internalType": "uint256",
          "name": "",
          "type": "uint256"
        }
      ],
      "stateMutability": "view",
      "type": "function"
    },
    {
      "inputs": [
        {
          "internalType": "address",
          "name": "recipient",
          "type": "address"
        },
        {
          "internalType": "uint256",
          "name": "amount",
          "type": "uint256"
        }
      ],
      "name": "transfer",
      "outputs": [
        {
          "internalType": "bool",
          "name": "",
          "type": "bool"
        }
      ],
      "stateMutability": "nonpayable",
      "type": "function"
    },
    {
      "inputs": [
        {
          "internalType": "address",
          "name": "sender",
          "type": "address"
        },
        {
          "internalType": "address",
          "name": "recipient",
          "type": "address"
        },
        {
          "internalType": "uint256",
          "name": "amount",
          "type": "uint256"
        }
      ],
      "name": "transferFrom",
      "outputs": [
        {
          "internalType": "bool",
          "name": "",
          "type": "bool"
        }
      ],
      "stateMutability": "nonpayable",
      "type": "function"
    }
  ],
  "bytecode": "0x608060405234801561001057600080fd5b5060408051808201825260088152672aa9a21021b7b4b760c11b6020808301918252835180850190945260048452635553444360e01b90840152815191929161005b916003916100a4565b50805161006f9060049060208401906100a4565b50506005805460ff1916601217905550610089600661008e565b610145565b6005805460ff191660ff92909216919091179055565b828054600181600116156101000203166002900490600052602060002090601f0160209004810192826100da5760008555610120565b82601f106100f357805160ff1916838001178555610120565b82800160010185558215610120579182015b82811115610120578251825591602001919060010190610105565b5061012c929150610130565b5090565b5b8082111561012c5760008155600101610131565b610b3e806101546000396000f3fe608060405234801561001057600080fd5b50600436106100b45760003560e01c80635791589711610071578063579158971461014757806370a082311461015c57806395d89b411461016f578063a457c2d714610177578063a9059cbb1461018a578063dd62ed3e1461019d576100b4565b806306fdde03146100b9578063095ea7b3146100d757806318160ddd146100f757806323b872dd1461010c578063313ce5671461011f5780633950935114610134575b600080fd5b6100c16101b0565b6040516100ce919061099d565b60405180910390f35b6100ea6100e5366004610951565b610246565b6040516100ce9190610992565b6100ff610263565b6040516100ce91906109f0565b6100ea61011a366004610916565b610269565b6101276102f0565b6040516100ce91906109f9565b6100ea610142366004610951565b6102f9565b61015a61015536600461097a565b610347565b005b6100ff61016a3660046108ca565b610354565b6100c1610373565b6100ea610185366004610951565b6103d4565b6100ea610198366004610951565b61043c565b6100ff6101ab3660046108e4565b610450565b60038054604080516020601f600260001961010060018816150201909516949094049384018190048102820181019092528281526060939092909183018282801561023c5780601f106102115761010080835404028352916020019161023c565b820191906000526020600020905b81548152906001019060200180831161021f57829003601f168201915b5050505050905090565b600061025a61025361047b565b848461047f565b50600192915050565b60025490565b600061027684848461056b565b6102e68461028261047b565b6102e185604051806060016040528060288152602001610a73602891396001600160a01b038a166000908152600160205260408120906102c061047b565b6001600160a01b0316815260208101919091526040016000205491906106c6565b61047f565b5060019392505050565b60055460ff1690565b600061025a61030661047b565b846102e1856001600061031761047b565b6001600160a01b03908116825260208083019390935260409182016000908120918c16815292529020549061075d565b61035133826107be565b50565b6001600160a01b0381166000908152602081905260409020545b919050565b60048054604080516020601f600260001961010060018816150201909516949094049384018190048102820181019092528281526060939092909183018282801561023c5780601f106102115761010080835404028352916020019161023c565b600061025a6103e161047b565b846102e185604051806060016040528060258152602001610ae4602591396001600061040b61047b565b6001600160a01b03908116825260208083019390935260409182016000908120918d168152925290205491906106c6565b600061025a61044961047b565b848461056b565b6001600160a01b03918216600090815260016020908152604080832093909416825291909152205490565b3390565b6001600160a01b0383166104c45760405162461bcd60e51b8152600401808060200182810382526024815260200180610ac06024913960400191505060405180910390fd5b6001600160a01b0382166105095760405162461bcd60e51b8152600401808060200182810382526022815260200180610a2b6022913960400191505060405180910390fd5b6001600160a01b03808416600081815260016020908152604080832094871680845294825291829020859055815185815291517f8c5be1e5ebec7d5bd14f71427d1e84f3dd0314c0f7b2291e5b200ac8c7c3b9259281900390910190a3505050565b6001600160a01b0383166105b05760405162461bcd60e51b8152600401808060200182810382526025815260200180610a9b6025913960400191505060405180910390fd5b6001600160a01b0382166105f55760405162461bcd60e51b8152600401808060200182810382526023815260200180610a086023913960400191505060405180910390fd5b6106008383836108ae565b61063d81604051806060016040528060268152602001610a4d602691396001600160a01b03861660009081526020819052604090205491906106c6565b6001600160a01b03808516600090815260208190526040808220939093559084168152205461066c908261075d565b6001600160a01b038084166000818152602081815260409182902094909455805185815290519193928716927fddf252ad1be2c89b69c2b068fc378daa952ba7f163c4a11628f55a4df523b3ef92918290030190a3505050565b600081848411156107555760405162461bcd60e51b81526004018080602001828103825283818151815260200191508051906020019080838360005b8381101561071a578181015183820152602001610702565b50505050905090810190601f1680156107475780820380516001836020036101000a031916815260200191505b509250505060405180910390fd5b505050900390565b6000828201838110156107b7576040805162461bcd60e51b815260206004820152601b60248201527f536166654d6174683a206164646974696f6e206f766572666c6f770000000000604482015290519081900360640190fd5b9392505050565b6001600160a01b038216610819576040805162461bcd60e51b815260206004820152601f60248201527f45524332303a206d696e7420746f20746865207a65726f206164647265737300604482015290519081900360640190fd5b610825600083836108ae565b600254610832908261075d565b6002556001600160a01b038216600090815260208190526040902054610858908261075d565b6001600160a01b0383166000818152602081815260408083209490945583518581529351929391927fddf252ad1be2c89b69c2b068fc378daa952ba7f163c4a11628f55a4df523b3ef9281900390910190a35050565b505050565b80356001600160a01b038116811461036e57600080fd5b6000602082840312156108db578081fd5b6107b7826108b3565b600080604083850312156108f6578081fd5b6108ff836108b3565b915061090d602084016108b3565b90509250929050565b60008060006060848603121561092a578081fd5b610933846108b3565b9250610941602085016108b3565b9150604084013590509250925092565b60008060408385031215610963578182fd5b61096c836108b3565b946020939093013593505050565b60006020828403121561098b578081fd5b5035919050565b901515815260200190565b6000602080835283518082850152825b818110156109c9578581018301518582016040015282016109ad565b818111156109da5783604083870101525b50601f01601f1916929092016040019392505050565b90815260200190565b60ff9190911681526020019056fe45524332303a207472616e7366657220746f20746865207a65726f206164647265737345524332303a20617070726f766520746f20746865207a65726f206164647265737345524332303a207472616e7366657220616d6f756e7420657863656564732062616c616e636545524332303a207472616e7366657220616d6f756e74206578636565647320616c6c6f77616e636545524332303a207472616e736665722066726f6d20746865207a65726f206164647265737345524332303a20617070726f76652066726f6d20746865207a65726f206164647265737345524332303a2064656372656173656420616c6c6f77616e63652062656c6f77207a65726fa264697066735822122019515d6797a9295f043cad274b7772f301ea411699eff6d22d5f4a426d1d521e64736f6c63430007060033",
  "linkReferences": {},
  "deployedLinkReferences": {}
}