{
  "_format": "hh-sol-artifact-1",
  "contractName": "SMFundFactory",
  "sourceName": "contracts/SMFundFactory.sol",
  "abi": [
    {
      "inputs": [
        {
          "internalType": "contract ERC20",
          "name": "_usdToken",
          "type": "address"
        }
      ],
      "stateMutability": "nonpayable",
      "type": "constructor"
    },
    {
      "anonymous": false,
      "inputs": [
        {
          "indexed": true,
          "internalType": "address",
          "name": "fund",
          "type": "address"
        }
      ],
      "name": "FundCreated",
      "type": "event"
    },
    {
      "anonymous": false,
      "inputs": [
        {
          "indexed": true,
          "internalType": "address",
          "name": "previousOwner",
          "type": "address"
        },
        {
          "indexed": true,
          "internalType": "address",
          "name": "newOwner",
          "type": "address"
        }
      ],
      "name": "OwnershipTransferred",
      "type": "event"
    },
    {
      "inputs": [],
      "name": "allFunds",
      "outputs": [
        {
          "internalType": "contract SMFund[]",
          "name": "",
          "type": "address[]"
        }
      ],
      "stateMutability": "view",
      "type": "function"
    },
    {
      "inputs": [
        {
          "internalType": "uint256",
          "name": "",
          "type": "uint256"
        }
      ],
      "name": "funds",
      "outputs": [
        {
          "internalType": "contract SMFund",
          "name": "",
          "type": "address"
        }
      ],
      "stateMutability": "view",
      "type": "function"
    },
    {
      "inputs": [],
      "name": "fundsLength",
      "outputs": [
        {
          "internalType": "uint256",
          "name": "",
          "type": "uint256"
        }
      ],
      "stateMutability": "view",
      "type": "function"
    },
    {
      "inputs": [
        {
          "internalType": "address",
          "name": "manager",
          "type": "address"
        },
        {
          "internalType": "address",
          "name": "feeWallet",
          "type": "address"
        },
        {
          "internalType": "address",
          "name": "aumUpdater",
          "type": "address"
        },
        {
          "internalType": "uint256",
          "name": "timelock",
          "type": "uint256"
        },
        {
          "internalType": "uint256",
          "name": "managementFee",
          "type": "uint256"
        },
        {
          "internalType": "uint256",
          "name": "performanceFee",
          "type": "uint256"
        },
        {
          "internalType": "bool",
          "name": "investmentsEnabled",
          "type": "bool"
        },
        {
          "internalType": "bool",
          "name": "signedAum",
          "type": "bool"
        },
        {
          "internalType": "string",
          "name": "name",
          "type": "string"
        },
        {
          "internalType": "string",
          "name": "symbol",
          "type": "string"
        }
      ],
      "name": "newFund",
      "outputs": [],
      "stateMutability": "nonpayable",
      "type": "function"
    },
    {
      "inputs": [],
      "name": "owner",
      "outputs": [
        {
          "internalType": "address",
          "name": "",
          "type": "address"
        }
      ],
      "stateMutability": "view",
      "type": "function"
    },
    {
      "inputs": [],
      "name": "renounceOwnership",
      "outputs": [],
      "stateMutability": "nonpayable",
      "type": "function"
    },
    {
      "inputs": [
        {
          "internalType": "address",
          "name": "newOwner",
          "type": "address"
        }
      ],
      "name": "transferOwnership",
      "outputs": [],
      "stateMutability": "nonpayable",
      "type": "function"
    },
    {
      "inputs": [],
      "name": "usdToken",
      "outputs": [
        {
          "internalType": "contract ERC20",
          "name": "",
          "type": "address"
        }
      ],
      "stateMutability": "view",
      "type": "function"
    }
  ],
  "bytecode": "0x60a060405234801561001057600080fd5b506040516148d83803806148d88339818101604052602081101561003357600080fd5b5051600061003f61009e565b600080546001600160a01b0319166001600160a01b0383169081178255604051929350917f8be0079c531659141344cd1fd0a4f28419497f9722a3daafe3b4186f6b6457e0908290a35060601b6001600160601b0319166080526100a2565b3390565b60805160601c6148196100bf600039806106bd52506148196000f3fe608060405234801561001057600080fd5b50600436106100885760003560e01c80638da5cb5b1161005b5780638da5cb5b146101f3578063d254baa6146101fb578063f2fde38b14610253578063f897a22b1461027957610088565b80630905c5a01461008d5780634ca7d290146100a7578063715018a6146101b25780637b8e8895146101ba575b600080fd5b610095610281565b60408051918252519081900360200190f35b6101b060048036036101408110156100be57600080fd5b6001600160a01b038235811692602081013582169260408201359092169160608201359160808101359160a08201359160c081013515159160e082013515159190810190610120810161010082013564010000000081111561011f57600080fd5b82018360208201111561013157600080fd5b8035906020019184600183028401116401000000008311171561015357600080fd5b91939092909160208101903564010000000081111561017157600080fd5b82018360208201111561018357600080fd5b803590602001918460018302840111640100000000831117156101a557600080fd5b509092509050610287565b005b6101b0610461565b6101d7600480360360208110156101d057600080fd5b5035610515565b604080516001600160a01b039092168252519081900360200190f35b6101d761053f565b61020361054e565b60408051602080825283518183015283519192839290830191858101910280838360005b8381101561023f578181015183820152602001610227565b505050509050019250505060405180910390f35b6101b06004803603602081101561026957600080fd5b50356001600160a01b03166105b0565b6101d76106bb565b60015490565b8a6001600160a01b03168c6001600160a01b031614156102ee576040805162461bcd60e51b815260206004820152601d60248201527f4d616e6167657220616e64206665652063616e27742062652073616d65000000604482015290519081900360640190fd5b60008c8c8c8c8c8c8c8c8c8c8c8c604051610308906106e3565b808d6001600160a01b031681526020018c6001600160a01b031681526020018b6001600160a01b031681526020018a81526020018981526020018881526020018715158152602001861515815260200180602001806020018381038352878782818152602001925080828437600083820152601f01601f191690910184810383528581526020019050858580828437600081840152601f19601f8201169050808301925050509e505050505050505050505050505050604051809103906000f0801580156103da573d6000803e3d6000fd5b5060018054808201825560009182527fb10e2d527612073b26eecdfd717e6a320cf44b4afac2b0732d9fcbe2b7fa0cf60180546001600160a01b0319166001600160a01b038416908117909155604051929350917fbeacbaab8887097be64d667b2a06e62db7e00cc1429a8ebe02535e97a6cc8fcd9190a250505050505050505050505050565b6104696106df565b6000546001600160a01b039081169116146104cb576040805162461bcd60e51b815260206004820181905260248201527f4f776e61626c653a2063616c6c6572206973206e6f7420746865206f776e6572604482015290519081900360640190fd5b600080546040516001600160a01b03909116907f8be0079c531659141344cd1fd0a4f28419497f9722a3daafe3b4186f6b6457e0908390a3600080546001600160a01b0319169055565b6001818154811061052557600080fd5b6000918252602090912001546001600160a01b0316905081565b6000546001600160a01b031690565b606060018054806020026020016040519081016040528092919081815260200182805480156105a657602002820191906000526020600020905b81546001600160a01b03168152600190910190602001808311610588575b5050505050905090565b6105b86106df565b6000546001600160a01b0390811691161461061a576040805162461bcd60e51b815260206004820181905260248201527f4f776e61626c653a2063616c6c6572206973206e6f7420746865206f776e6572604482015290519081900360640190fd5b6001600160a01b0381166106605760405162461bcd60e51b8152600401808060200182810382526026815260200180620047be6026913960400191505060405180910390fd5b600080546040516001600160a01b03808516939216917f8be0079c531659141344cd1fd0a4f28419497f9722a3daafe3b4186f6b6457e091a3600080546001600160a01b0319166001600160a01b0392909216919091179055565b7f000000000000000000000000000000000000000000000000000000000000000081565b3390565b6140cc80620006f28339019056fe6101806040523480156200001257600080fd5b50604051620040cc380380620040cc83398181016040526101408110156200003957600080fd5b815160208301516040808501516060860151608087015160a088015160c089015160e08a01516101008b0180519751999b989a969995989497939692959194919392820192846401000000008211156200009257600080fd5b908301906020820185811115620000a857600080fd5b8251640100000000811182820188101715620000c357600080fd5b82525081516020918201929091019080838360005b83811015620000f2578181015183820152602001620000d8565b50505050905090810190601f168015620001205780820380516001836020036101000a031916815260200191505b50604052602001805160405193929190846401000000008211156200014457600080fd5b9083019060208201858111156200015a57600080fd5b82516401000000008111828201881017156200017557600080fd5b82525081516020918201929091019080838360005b83811015620001a45781810151838201526020016200018a565b50505050905090810190601f168015620001d25780820380516001836020036101000a031916815260200191505b50604052505082518391508290620001f2906003906020850190620003ad565b50805162000208906004906020840190620003ad565b50506005805460ff19166012179055506200022262000393565b600560016101000a8154816001600160a01b0302191690836001600160a01b0316021790555062000340600560019054906101000a90046001600160a01b03166001600160a01b031663f897a22b6040518163ffffffff1660e01b815260040160206040518083038186803b1580156200029b57600080fd5b505afa158015620002b0573d6000803e3d6000fd5b505050506040513d6020811015620002c757600080fd5b50516040805163313ce56760e01b815290516001600160a01b039092169163313ce56791600480820192602092909190829003018186803b1580156200030c57600080fd5b505afa15801562000321573d6000803e3d6000fd5b505050506040513d60208110156200033857600080fd5b505162000397565b50506001600160601b0319606098891b811660805296881b871660a0529490961b90941660c05260e091909152610100526101209190915290151560f890811b61014052901515901b6101605262000459565b3390565b6005805460ff191660ff92909216919091179055565b828054600181600116156101000203166002900490600052602060002090601f016020900481019282620003e5576000855562000430565b82601f106200040057805160ff191683800117855562000430565b8280016001018555821562000430579182015b828111156200043057825182559160200191906001019062000413565b506200043e92915062000442565b5090565b5b808211156200043e576000815560010162000443565b60805160601c60a05160601c60c05160601c60e05161010051610120516101405160f81c6101605160f81c613b9d6200052f60003980610b725280612b89525080610c7e52806110585280611367528061142552806118ec5250806116f45280612e0552508061181a5280612d89525080610ea65280611b415280611e5e52806122c8525080610a5e52806115b152806117f65250806123175280612eeb525080610f9452806110c55280611959528061202052806121fd528061233b52806128e95280612bb15280612eca5250613b9d6000f3fe608060405234801561001057600080fd5b50600436106101fb5760003560e01c806379aba36d1161011a578063a9059cbb116100ad578063d33219b41161007c578063d33219b414610799578063dd62ed3e146107a1578063f25f4b56146107cf578063f3aaaad7146107d7578063fd345c8a14610845576101fb565b8063a9059cbb14610683578063a9476fa2146106af578063b214827b14610723578063c45a015514610791576101fb565b80639b19251a116100e95780639b19251a14610621578063a457c2d714610647578063a689105114610673578063a6f7f5d61461067b576101fb565b806379aba36d1461056e5780638655bb4314610597578063877887821461061157806395d89b4114610619576101fb565b8063330d83fa116101925780634c35833d116101615780634c35833d146104ca5780636629e659146104d257806370a082311461054057806377bd510514610566576101fb565b8063330d83fa146103fd5780633950935114610405578063431b324414610431578063481c6a75146104a6576101fb565b806318160ddd116101ce57806318160ddd146102df57806323b872dd146102e757806324d5419e1461031d578063313ce567146103df576101fb565b806306fdde0314610200578063095ea7b31461027d5780630ab51bac146102bd578063158ef93e146102d7575b600080fd5b6102086108af565b6040805160208082528351818301528351919283929083019185019080838360005b8381101561024257818101518382015260200161022a565b50505050905090810190601f16801561026f5780820380516001836020036101000a031916815260200191505b509250505060405180910390f35b6102a96004803603604081101561029357600080fd5b506001600160a01b038135169060200135610945565b604080519115158252519081900360200190f35b6102c5610963565b60408051918252519081900360200190f35b6102a9610969565b6102c5610979565b6102a9600480360360608110156102fd57600080fd5b506001600160a01b0381358116916020810135909116906040013561097f565b6103dd6004803603608081101561033357600080fd5b8135916001600160a01b036020820135169160408201359190810190608081016060820135600160201b81111561036957600080fd5b82018360208201111561037b57600080fd5b803590602001918460018302840111600160201b8311171561039c57600080fd5b91908080601f016020809104026020016040519081016040528093929190818152602001838380828437600092019190915250929550610a07945050505050565b005b6103e7610b67565b6040805160ff9092168252519081900360200190f35b6102a9610b70565b6102a96004803603604081101561041b57600080fd5b506001600160a01b038135169060200135610b94565b6103dd6004803603606081101561044757600080fd5b81359190810190604081016020820135600160201b81111561046857600080fd5b82018360208201111561047a57600080fd5b803590602001918460208302840111600160201b8311171561049b57600080fd5b919350915035610be2565b6104ae610f92565b604080516001600160a01b039092168252519081900360200190f35b6102c5610fb6565b6103dd600480360360408110156104e857600080fd5b810190602081018135600160201b81111561050257600080fd5b82018360208201111561051457600080fd5b803590602001918460208302840111600160201b8311171561053557600080fd5b919350915035610fbc565b6102c56004803603602081101561055657600080fd5b50356001600160a01b031661134a565b6102a9611365565b6103dd6004803603606081101561058457600080fd5b5080359060208101359060400135611389565b6103dd600480360360608110156105ad57600080fd5b813591602081013591810190606081016040820135600160201b8111156105d357600080fd5b8201836020820111156105e557600080fd5b803590602001918460018302840111600160201b8311171561060657600080fd5b50909250905061155f565b6102c56116f2565b610208611716565b6102a96004803603602081101561063757600080fd5b50356001600160a01b0316611777565b6102a96004803603604081101561065d57600080fd5b506001600160a01b03813516906020013561178c565b6104ae6117f4565b6102c5611818565b6102a96004803603604081101561069957600080fd5b506001600160a01b03813516906020013561183c565b6103dd600480360360608110156106c557600080fd5b810190602081018135600160201b8111156106df57600080fd5b8201836020820111156106f157600080fd5b803590602001918460208302840111600160201b8311171561071257600080fd5b919350915080359060200135611850565b6103dd6004803603602081101561073957600080fd5b810190602081018135600160201b81111561075357600080fd5b82018360208201111561076557600080fd5b803590602001918460208302840111600160201b8311171561078657600080fd5b5090925090506121fb565b6104ae6122b2565b6102c56122c6565b6102c5600480360360408110156107b757600080fd5b506001600160a01b03813581169160200135166122ea565b6104ae612315565b6103dd600480360360208110156107ed57600080fd5b810190602081018135600160201b81111561080757600080fd5b82018360208201111561081957600080fd5b803590602001918460208302840111600160201b8311171561083a57600080fd5b509092509050612339565b6108626004803603602081101561085b57600080fd5b5035612471565b604080516001600160a01b0390991689526020890197909752878701959095526060870193909352608086019190915260a085015260c0840152151560e083015251908190036101000190f35b60038054604080516020601f600260001961010060018816150201909516949094049384018190048102820181019092528281526060939092909183018282801561093b5780601f106109105761010080835404028352916020019161093b565b820191906000526020600020905b81548152906001019060200180831161091e57829003601f168201915b5050505050905090565b60006109596109526124d4565b84846124d8565b5060015b92915050565b60065481565b600554600160a81b900460ff1681565b60025490565b600061098c8484846125c4565b6109fc846109986124d4565b6109f785604051806060016040528060288152602001613a67602891396001600160a01b038a166000908152600160205260408120906109d66124d4565b6001600160a01b03168152602081019190915260400160002054919061271f565b6124d8565b5060015b9392505050565b600554600160a81b900460ff1615610a5c576040805162461bcd60e51b8152602060048201526013602482015272105b1c9958591e481a5b9a5d1a585b1a5e9959606a1b604482015290519081900360640190fd5b7f00000000000000000000000000000000000000000000000000000000000000006001600160a01b0316610a8e6124d4565b6001600160a01b031614610adb576040805162461bcd60e51b815260206004820152600f60248201526e2737ba1020aaa6903ab83230ba32b960891b604482015290519081900360640190fd5b8180421115610b21576040805162461bcd60e51b815260206004820152600d60248201526c5061737420646561646c696e6560981b604482015290519081900360640190fd5b60008511610b2e57600080fd5b610b37846127b6565b610b4384866001612802565b610b4d8383612b87565b50506005805460ff60a81b1916600160a81b179055505050565b60055460ff1690565b7f000000000000000000000000000000000000000000000000000000000000000081565b6000610959610ba16124d4565b846109f78560016000610bb26124d4565b6001600160a01b03908116825260208083019390935260409182016000908120918c168152925290205490612cf9565b600554600160a81b900460ff16610c32576040805162461bcd60e51b815260206004820152600f60248201526e139bdd081a5b9a5d1a585b1a5e9959608a1b604482015290519081900360640190fd5b610c3a610979565b610c7c576040805162461bcd60e51b815260206004820152600e60248201526d119d5b99081a5cc818db1bdcd95960921b604482015290519081900360640190fd5b7f0000000000000000000000000000000000000000000000000000000000000000610ce9576040805162461bcd60e51b8152602060048201526018602482015277125b9d995cdd1b595b9d1cc8185c9948191a5cd8589b195960421b604482015290519081900360640190fd5b60076000610cf56124d4565b6001600160a01b0316815260208101919091526040016000205460ff161515600114610d5a576040805162461bcd60e51b815260206004820152600f60248201526e139bdd081dda1a5d195b1a5cdd1959608a1b604482015290519081900360640190fd5b8080421115610da0576040805162461bcd60e51b815260206004820152600d60248201526c5061737420646561646c696e6560981b604482015290519081900360640190fd5b6000610daa6124d4565b905060005b84811015610f145760006008878784818110610dc757fe5b9050602002013581548110610dd857fe5b6000918252602090912060089091020180549091506001600160a01b03848116911614610e4c576040805162461bcd60e51b815260206004820152601760248201527f4e6f742073656e646572277320696e766573746d656e74000000000000000000604482015290519081900360640190fd5b600781015460ff1615610e99576040805162461bcd60e51b815260206004820152601060248201526f105b1c9958591e481c995919595b595960821b604482015290519081900360640190fd5b60058101544290610eca907f0000000000000000000000000000000000000000000000000000000000000000612cf9565b1115610f0b576040805162461bcd60e51b815260206004820152600b60248201526a151a5b59481b1bd8dad95960aa1b604482015290519081900360640190fd5b50600101610daf565b50806001600160a01b03167fcfb9208347ccc39aaddc9759318936d34c26c238e90370ec8122a7eb251013b187878760405180848152602001806020018281038252848482818152602001925060200280828437600083820152604051601f909101601f1916909201829003965090945050505050a2505050505050565b7f000000000000000000000000000000000000000000000000000000000000000081565b60095481565b600554600160a81b900460ff1661100c576040805162461bcd60e51b815260206004820152600f60248201526e139bdd081a5b9a5d1a585b1a5e9959608a1b604482015290519081900360640190fd5b611014610979565b611056576040805162461bcd60e51b815260206004820152600e60248201526d119d5b99081a5cc818db1bdcd95960921b604482015290519081900360640190fd5b7f00000000000000000000000000000000000000000000000000000000000000006110c3576040805162461bcd60e51b8152602060048201526018602482015277125b9d995cdd1b595b9d1cc8185c9948191a5cd8589b195960421b604482015290519081900360640190fd5b7f00000000000000000000000000000000000000000000000000000000000000006001600160a01b03166110f56124d4565b6001600160a01b03161461113e576040805162461bcd60e51b815260206004820152600b60248201526a2737ba1036b0b730b3b2b960a91b604482015290519081900360640190fd5b8080421115611184576040805162461bcd60e51b815260206004820152600d60248201526c5061737420646561646c696e6560981b604482015290519081900360640190fd5b60008060005b8581101561129c57600060088888848181106111a257fe5b90506020020135815481106111b357fe5b60009182526020909120600890910201600781015490915060ff1615611213576040805162461bcd60e51b815260206004820152601060248201526f105b1c9958591e481c995919595b595960821b604482015290519081900360640190fd5b60068101544290611227906224ea00612cf9565b11156112645760405162461bcd60e51b81526004018080602001828103825260288152602001806138f96028913960400191505060405180910390fd5b60008061127083612d53565b909250905061127f8683612cf9565b955061128b8582612cf9565b9450506001909201915061118a9050565b507fe10232cb082ad9d2567dc8f6dcfdd590b915dc2c23630cebc1c8bf93dae190f18282888860405180858152602001848152602001806020018281038252848482818152602001925060200280828437600083820152604051601f909101601f191690920182900397509095505050505050a1600080516020613af983398151915260065461132a610979565b6040805192835260208301919091528051918290030190a1505050505050565b6001600160a01b031660009081526020819052604090205490565b7f000000000000000000000000000000000000000000000000000000000000000081565b600554600160a81b900460ff166113d9576040805162461bcd60e51b815260206004820152600f60248201526e139bdd081a5b9a5d1a585b1a5e9959608a1b604482015290519081900360640190fd5b6113e1610979565b611423576040805162461bcd60e51b815260206004820152600e60248201526d119d5b99081a5cc818db1bdcd95960921b604482015290519081900360640190fd5b7f0000000000000000000000000000000000000000000000000000000000000000611490576040805162461bcd60e51b8152602060048201526018602482015277125b9d995cdd1b595b9d1cc8185c9948191a5cd8589b195960421b604482015290519081900360640190fd5b6007600061149c6124d4565b6001600160a01b0316815260208101919091526040016000205460ff161515600114611501576040805162461bcd60e51b815260206004820152600f60248201526e139bdd081dda1a5d195b1a5cdd1959608a1b604482015290519081900360640190fd5b8080421115611547576040805162461bcd60e51b815260206004820152600d60248201526c5061737420646561646c696e6560981b604482015290519081900360640190fd5b6115596115526124d4565b8585612802565b50505050565b600554600160a81b900460ff166115af576040805162461bcd60e51b815260206004820152600f60248201526e139bdd081a5b9a5d1a585b1a5e9959608a1b604482015290519081900360640190fd5b7f00000000000000000000000000000000000000000000000000000000000000006001600160a01b03166115e16124d4565b6001600160a01b03161461162e576040805162461bcd60e51b815260206004820152600f60248201526e2737ba1020aaa6903ab83230ba32b960891b604482015290519081900360640190fd5b8280421115611674576040805162461bcd60e51b815260206004820152600d60248201526c5061737420646561646c696e6560981b604482015290519081900360640190fd5b846006819055506116bb8484848080601f016020809104026020016040519081016040528093929190818152602001838380828437600092019190915250612b8792505050565b600080516020613af9833981519152856116d3610979565b6040805192835260208301919091528051918290030190a15050505050565b7f000000000000000000000000000000000000000000000000000000000000000081565b60048054604080516020601f600260001961010060018816150201909516949094049384018190048102820181019092528281526060939092909183018282801561093b5780601f106109105761010080835404028352916020019161093b565b60076020526000908152604090205460ff1681565b60006109596117996124d4565b846109f785604051806060016040528060258152602001613b4360259139600160006117c36124d4565b6001600160a01b03908116825260208083019390935260409182016000908120918d1681529252902054919061271f565b7f000000000000000000000000000000000000000000000000000000000000000081565b7f000000000000000000000000000000000000000000000000000000000000000081565b60006109596118496124d4565b84846125c4565b600554600160a81b900460ff166118a0576040805162461bcd60e51b815260206004820152600f60248201526e139bdd081a5b9a5d1a585b1a5e9959608a1b604482015290519081900360640190fd5b6118a8610979565b6118ea576040805162461bcd60e51b815260206004820152600e60248201526d119d5b99081a5cc818db1bdcd95960921b604482015290519081900360640190fd5b7f0000000000000000000000000000000000000000000000000000000000000000611957576040805162461bcd60e51b8152602060048201526018602482015277125b9d995cdd1b595b9d1cc8185c9948191a5cd8589b195960421b604482015290519081900360640190fd5b7f00000000000000000000000000000000000000000000000000000000000000006001600160a01b03166119896124d4565b6001600160a01b0316146119d2576040805162461bcd60e51b815260206004820152600b60248201526a2737ba1036b0b730b3b2b960a91b604482015290519081900360640190fd5b8080421115611a18576040805162461bcd60e51b815260206004820152600d60248201526c5061737420646561646c696e6560981b604482015290519081900360640190fd5b611a496040518060400160405280600d81526020016c30b1ba34bb329031b7bab73a1d60991b815250600954612f6e565b6009546001148015611a5b5750600184145b15611d3457826006541015611ab2576040805162461bcd60e51b815260206004820152601860248201527713195cdcc81d1a185b881b5a5b881d5cd908185b5bdd5b9d60421b604482015290519081900360640190fd5b6000600886866000818110611ac357fe5b9050602002013581548110611ad457fe5b60009182526020909120600890910201600781015490915060ff1615611b34576040805162461bcd60e51b815260206004820152601060248201526f105b1c9958591e481c995919595b595960821b604482015290519081900360640190fd5b60058101544290611b65907f0000000000000000000000000000000000000000000000000000000000000000612cf9565b1115611ba6576040805162461bcd60e51b815260206004820152600b60248201526a151a5b59481b1bd8dad95960aa1b604482015290519081900360640190fd5b600080611bb283612d53565b60078501805460ff191660011790556009805460001901905584546004860154929450909250611bed916001600160a01b039091169061301c565b6000600654905060006006819055507fe10232cb082ad9d2567dc8f6dcfdd590b915dc2c23630cebc1c8bf93dae190f183838b8b60405180858152602001848152602001806020018281038252848482818152602001925060200280828437600083820152604051601f909101601f191690920182900397509095505050505050a18354600485015460408051828152602080820186905260609282018381529282018d90526001600160a01b03909416937fd4fe30e0dfe75bc29d5bfbc1f4a10133848ddb5322b8117cca9103e23440e5e6939286928f928f929060808301908590850280828437600083820152604051601f909101601f191690920182900397509095505050505050a2600080516020613af9833981519152600654611d13610979565b6040805192835260208301919091528051918290030190a1505050506121f4565b6000600886866000818110611d4557fe5b9050602002013581548110611d5657fe5b600091825260208220600890910201546001600160a01b03169150808080805b89811015611fad578a8a82818110611d8a57fe5b9050602002013560001415611dd05760405162461bcd60e51b815260040180806020018281038252602e815260200180613966602e913960400191505060405180910390fd5b600060088c8c84818110611de057fe5b9050602002013581548110611df157fe5b60009182526020909120600890910201600781015490915060ff1615611e51576040805162461bcd60e51b815260206004820152601060248201526f105b1c9958591e481c995919595b595960821b604482015290519081900360640190fd5b60058101544290611e82907f0000000000000000000000000000000000000000000000000000000000000000612cf9565b1115611ec3576040805162461bcd60e51b815260206004820152600b60248201526a151a5b59481b1bd8dad95960aa1b604482015290519081900360640190fd5b80546001600160a01b03888116911614611f1c576040805162461bcd60e51b81526020600482015260156024820152742737ba10333937b69037b7329034b73b32b9ba37b960591b604482015290519081900360640190fd5b600080611f2883612d53565b9092509050611f378683612cf9565b9550611f438582612cf9565b60078401805460ff19166001179055600980546000190190556004840154909550611f6e9088612cf9565b9650611f9c88611f96611f7f610979565b6006546004880154611f9091613118565b90613171565b90612cf9565b97505060019092019150611d769050565b5087841015611ffe576040805162461bcd60e51b815260206004820152601860248201527713195cdcc81d1a185b881b5a5b881d5cd908185b5bdd5b9d60421b604482015290519081900360640190fd5b612008858461301c565b60065461201590856131b3565b6006819055506120cc7f00000000000000000000000000000000000000000000000000000000000000008686600560019054906101000a90046001600160a01b03166001600160a01b031663f897a22b6040518163ffffffff1660e01b815260040160206040518083038186803b15801561208f57600080fd5b505afa1580156120a3573d6000803e3d6000fd5b505050506040513d60208110156120b957600080fd5b50516001600160a01b03169291906131f5565b7fe10232cb082ad9d2567dc8f6dcfdd590b915dc2c23630cebc1c8bf93dae190f182828c8c60405180858152602001848152602001806020018281038252848482818152602001925060200280828437600083820152604051601f909101601f191690920182900397509095505050505050a1846001600160a01b03167fd4fe30e0dfe75bc29d5bfbc1f4a10133848ddb5322b8117cca9103e23440e5e684868d8d60405180858152602001848152602001806020018281038252848482818152602001925060200280828437600083820152604051601f909101601f191690920182900397509095505050505050a2600080516020613af98339815191526006546121d6610979565b6040805192835260208301919091528051918290030190a150505050505b5050505050565b7f00000000000000000000000000000000000000000000000000000000000000006001600160a01b031661222d6124d4565b6001600160a01b031614612276576040805162461bcd60e51b815260206004820152600b60248201526a2737ba1036b0b730b3b2b960a91b604482015290519081900360640190fd5b60005b818110156122ad576122a583838381811061229057fe5b905060200201356001600160a01b03166127b6565b600101612279565b505050565b60055461010090046001600160a01b031681565b7f000000000000000000000000000000000000000000000000000000000000000081565b6001600160a01b03918216600090815260016020908152604080832093909416825291909152205490565b7f000000000000000000000000000000000000000000000000000000000000000081565b7f00000000000000000000000000000000000000000000000000000000000000006001600160a01b031661236b6124d4565b6001600160a01b0316146123b4576040805162461bcd60e51b815260206004820152600b60248201526a2737ba1036b0b730b3b2b960a91b604482015290519081900360640190fd5b60005b818110156122ad576000600760008585858181106123d157fe5b905060200201356001600160a01b03166001600160a01b03166001600160a01b0316815260200190815260200160002060006101000a81548160ff02191690831515021790555082828281811061242457fe5b905060200201356001600160a01b03166001600160a01b03167fffa4e6181777692565cf28528fc88fd1516ea86b56da075235fa575af6a4b85560405160405180910390a26001016123b7565b6008818154811061248157600080fd5b6000918252602090912060089091020180546001820154600283015460038401546004850154600586015460068701546007909701546001600160a01b0390961697509395929491939092909160ff1688565b3390565b6001600160a01b03831661251d5760405162461bcd60e51b8152600401808060200182810382526024815260200180613ad56024913960400191505060405180910390fd5b6001600160a01b0382166125625760405162461bcd60e51b81526004018080602001828103825260228152602001806139946022913960400191505060405180910390fd5b6001600160a01b03808416600081815260016020908152604080832094871680845294825291829020859055815185815291517f8c5be1e5ebec7d5bd14f71427d1e84f3dd0314c0f7b2291e5b200ac8c7c3b9259281900390910190a3505050565b6001600160a01b0383166126095760405162461bcd60e51b8152600401808060200182810382526025815260200180613ab06025913960400191505060405180910390fd5b6001600160a01b03821661264e5760405162461bcd60e51b81526004018080602001828103825260238152602001806139216023913960400191505060405180910390fd5b61265983838361324f565b612696816040518060600160405280602681526020016139b6602691396001600160a01b038616600090815260208190526040902054919061271f565b6001600160a01b0380851660009081526020819052604080822093909355908416815220546126c59082612cf9565b6001600160a01b038084166000818152602081815260409182902094909455805185815290519193928716927fddf252ad1be2c89b69c2b068fc378daa952ba7f163c4a11628f55a4df523b3ef92918290030190a3505050565b600081848411156127ae5760405162461bcd60e51b81526004018080602001828103825283818151815260200191508051906020019080838360005b8381101561277357818101518382015260200161275b565b50505050905090810190601f1680156127a05780820380516001836020036101000a031916815260200191505b509250505060405180910390fd5b505050900390565b6001600160a01b038116600081815260076020526040808220805460ff19166001179055517faab7954e9d246b167ef88aeddad35209ca2489d95a8aeb59e288d9b19fae5a549190a250565b6000821180156128125750600081115b612851576040805162461bcd60e51b815260206004820152600b60248201526a0416d6f756e7420697320360ac1b604482015290519081900360640190fd5b60085460008161286d57612866846064613118565b9050612888565b612885600654611f9061287e610979565b8790613118565b90505b828110156128dd576040805162461bcd60e51b815260206004820152601960248201527f4c657373207468616e206d696e2066756e6420616d6f756e7400000000000000604482015290519081900360640190fd5b811561295757612957857f000000000000000000000000000000000000000000000000000000000000000086600560019054906101000a90046001600160a01b03166001600160a01b031663f897a22b6040518163ffffffff1660e01b815260040160206040518083038186803b15801561208f57600080fd5b6006546129649085612cf9565b60065561297185826132ba565b60408051610100810182526001600160a01b038781168083526020808401898152600085870181815260608088018a8152608089018b81524260a08b0190815260c08b0186815260e08c018781526008805460018082018355998290529d517ff3f7a9fe364faab93b216da50a3214154f22a0a2b415b23a84c8169e8b636ee39e9091029d8e0180546001600160a01b03191691909d1617909b5596517ff3f7a9fe364faab93b216da50a3214154f22a0a2b415b23a84c8169e8b636ee48c015593517ff3f7a9fe364faab93b216da50a3214154f22a0a2b415b23a84c8169e8b636ee58b015590517ff3f7a9fe364faab93b216da50a3214154f22a0a2b415b23a84c8169e8b636ee68a0155517ff3f7a9fe364faab93b216da50a3214154f22a0a2b415b23a84c8169e8b636ee789015590517ff3f7a9fe364faab93b216da50a3214154f22a0a2b415b23a84c8169e8b636ee888015591517ff3f7a9fe364faab93b216da50a3214154f22a0a2b415b23a84c8169e8b636ee987015593517ff3f7a9fe364faab93b216da50a3214154f22a0a2b415b23a84c8169e8b636eea909501805460ff19169515159590951790945560098054909301909255835188815291820185905281840186905292517f9bce88ff835d9d8831ccf5c7e04a2533f68510314393b3a54f990dea62e7134e929181900390910190a2600080516020613af98339815191526006546116d3610979565b7f000000000000000000000000000000000000000000000000000000000000000015612cf55760007f00000000000000000000000000000000000000000000000000000000000000006006548460405160200180846001600160a01b0316815260200183815260200182815260200193505050506040516020818303038152906040528051906020012090506000612c2883612c22846133aa565b906133fb565b9050600560019054906101000a90046001600160a01b03166001600160a01b0316638da5cb5b6040518163ffffffff1660e01b815260040160206040518083038186803b158015612c7857600080fd5b505afa158015612c8c573d6000803e3d6000fd5b505050506040513d6020811015612ca257600080fd5b50516001600160a01b03828116911614611559576040805162461bcd60e51b815260206004820152600f60248201526e0a6d2cedccae440dad2e6dac2e8c6d608b1b604482015290519081900360640190fd5b5050565b600082820183811015610a00576040805162461bcd60e51b815260206004820152601b60248201527f536166654d6174683a206164646974696f6e206f766572666c6f770000000000604482015290519081900360640190fd5b6000806000612d6f8460050154426131b390919063ffffffff16565b90506000612dbd644979cb9e00611f908760010154612db77f00000000000000000000000000000000000000000000000000000000000000008761311890919063ffffffff16565b90613118565b90506000612dc9610979565b90506000612dea82611f90896003015460065461311890919063ffffffff16565b905060008760010154821115612e3e57612e3b612710611f907f0000000000000000000000000000000000000000000000000000000000000000612db78c60010154876131b390919063ffffffff16565b90505b6000612e4a8583612cf9565b90506000808a60020154831115612f595760028b0154612e6b9084906131b3565b600654909250612e7f90611f908885613118565b60028c0184905560048c0154909150612e9890826131b3565b60048c01558a54612eb2906001600160a01b03168261301c565b600654612ebf90836131b3565b600681905550612f597f00000000000000000000000000000000000000000000000000000000000000007f000000000000000000000000000000000000000000000000000000000000000084600560019054906101000a90046001600160a01b03166001600160a01b031663f897a22b6040518163ffffffff1660e01b815260040160206040518083038186803b15801561208f57600080fd5b4260068c015598509650505050505050915091565b612cf582826040516024018080602001838152602001828103825284818151815260200191508051906020019080838360005b83811015612fb9578181015183820152602001612fa1565b50505050905090810190601f168015612fe65780820380516001836020036101000a031916815260200191505b5060408051601f198184030181529190526020810180516001600160e01b03166309710a9d60e41b17905293506135e292505050565b6001600160a01b0382166130615760405162461bcd60e51b8152600401808060200182810382526021815260200180613a8f6021913960400191505060405180910390fd5b61306d8260008361324f565b6130aa81604051806060016040528060228152602001613944602291396001600160a01b038516600090815260208190526040902054919061271f565b6001600160a01b0383166000908152602081905260409020556002546130d090826131b3565b6002556040805182815290516000916001600160a01b038516917fddf252ad1be2c89b69c2b068fc378daa952ba7f163c4a11628f55a4df523b3ef9181900360200190a35050565b6000826131275750600061095d565b8282028284828161313457fe5b0414610a005760405162461bcd60e51b8152600401808060200182810382526021815260200180613a466021913960400191505060405180910390fd5b6000610a0083836040518060400160405280601a81526020017f536166654d6174683a206469766973696f6e206279207a65726f000000000000815250613603565b6000610a0083836040518060400160405280601e81526020017f536166654d6174683a207375627472616374696f6e206f766572666c6f77000081525061271f565b604080516001600160a01b0380861660248301528416604482015260648082018490528251808303909101815260849091019091526020810180516001600160e01b03166323b872dd60e01b179052611559908590613668565b61325a8383836122ad565b6001600160a01b038316158061327757506001600160a01b038216155b6122ad576040805162461bcd60e51b815260206004820152600f60248201526e21b0b73737ba103a3930b739b332b960891b604482015290519081900360640190fd5b6001600160a01b038216613315576040805162461bcd60e51b815260206004820152601f60248201527f45524332303a206d696e7420746f20746865207a65726f206164647265737300604482015290519081900360640190fd5b6133216000838361324f565b60025461332e9082612cf9565b6002556001600160a01b0382166000908152602081905260409020546133549082612cf9565b6001600160a01b0383166000818152602081815260408083209490945583518581529351929391927fddf252ad1be2c89b69c2b068fc378daa952ba7f163c4a11628f55a4df523b3ef9281900390910190a35050565b604080517f19457468657265756d205369676e6564204d6573736167653a0a333200000000602080830191909152603c8083019490945282518083039094018452605c909101909152815191012090565b60008151604114613453576040805162461bcd60e51b815260206004820152601f60248201527f45434453413a20696e76616c6964207369676e6174757265206c656e67746800604482015290519081900360640190fd5b60208201516040830151606084015160001a7f7fffffffffffffffffffffffffffffff5d576e7357a4501ddfe92f46681b20a08211156134c45760405162461bcd60e51b81526004018080602001828103825260228152602001806139dc6022913960400191505060405180910390fd5b8060ff16601b14806134d957508060ff16601c145b6135145760405162461bcd60e51b8152600401808060200182810382526022815260200180613a246022913960400191505060405180910390fd5b600060018783868660405160008152602001604052604051808581526020018460ff1681526020018381526020018281526020019450505050506020604051602081039080840390855afa158015613570573d6000803e3d6000fd5b5050604051601f1901519150506001600160a01b0381166135d8576040805162461bcd60e51b815260206004820152601860248201527f45434453413a20696e76616c6964207369676e61747572650000000000000000604482015290519081900360640190fd5b9695505050505050565b80516a636f6e736f6c652e6c6f67602083016000808483855afa5050505050565b600081836136525760405162461bcd60e51b815260206004820181815283516024840152835190928392604490910191908501908083836000831561277357818101518382015260200161275b565b50600083858161365e57fe5b0495945050505050565b60606136bd826040518060400160405280602081526020017f5361666545524332303a206c6f772d6c6576656c2063616c6c206661696c6564815250856001600160a01b03166137199092919063ffffffff16565b8051909150156122ad578080602001905160208110156136dc57600080fd5b50516122ad5760405162461bcd60e51b815260040180806020018281038252602a815260200180613b19602a913960400191505060405180910390fd5b60606137288484600085613730565b949350505050565b6060824710156137715760405162461bcd60e51b81526004018080602001828103825260268152602001806139fe6026913960400191505060405180910390fd5b61377a8561388c565b6137cb576040805162461bcd60e51b815260206004820152601d60248201527f416464726573733a2063616c6c20746f206e6f6e2d636f6e7472616374000000604482015290519081900360640190fd5b60006060866001600160a01b031685876040518082805190602001908083835b6020831061380a5780518252601f1990920191602091820191016137eb565b6001836020036101000a03801982511681845116808217855250505050505090500191505060006040518083038185875af1925050503d806000811461386c576040519150601f19603f3d011682016040523d82523d6000602084013e613871565b606091505b5091509150613881828286613892565b979650505050505050565b3b151590565b606083156138a1575081610a00565b8251156138b15782518084602001fd5b60405162461bcd60e51b815260206004820181815284516024840152845185939192839260440191908501908083836000831561277357818101518382015260200161275b56fe466565206c61737420636f6c6c6563746564206c657373207468616e2061206d6f6e74682061676f45524332303a207472616e7366657220746f20746865207a65726f206164647265737345524332303a206275726e20616d6f756e7420657863656564732062616c616e6365496e697469616c20696e766573746d656e74206d7573742062652072656465656d65642073657061726174656c7945524332303a20617070726f766520746f20746865207a65726f206164647265737345524332303a207472616e7366657220616d6f756e7420657863656564732062616c616e636545434453413a20696e76616c6964207369676e6174757265202773272076616c7565416464726573733a20696e73756666696369656e742062616c616e636520666f722063616c6c45434453413a20696e76616c6964207369676e6174757265202776272076616c7565536166654d6174683a206d756c7469706c69636174696f6e206f766572666c6f7745524332303a207472616e7366657220616d6f756e74206578636565647320616c6c6f77616e636545524332303a206275726e2066726f6d20746865207a65726f206164647265737345524332303a207472616e736665722066726f6d20746865207a65726f206164647265737345524332303a20617070726f76652066726f6d20746865207a65726f20616464726573731e1223c1f6274c6d64fdb08c485e192bd2896c9abf70e840e199ac1f54d6d1d55361666545524332303a204552433230206f7065726174696f6e20646964206e6f74207375636365656445524332303a2064656372656173656420616c6c6f77616e63652062656c6f77207a65726fa26469706673582212205264bf51d3ae7d09b558caffdd6ed44d6fa57dc6685a8a338d4978e6a00a72f164736f6c634300070500334f776e61626c653a206e6577206f776e657220697320746865207a65726f2061646472657373a2646970667358221220596938bff6e9e803f2962da5d460ec235608ea4f2a14796900bf596338ea38b264736f6c63430007050033",
  "linkReferences": {},
  "deployedLinkReferences": {}
}