{
  "_format": "hh-sol-artifact-1",
  "contractName": "SMFundFactory",
  "sourceName": "contracts/SMFundFactory.sol",
  "abi": [
    {
      "inputs": [
        {
          "internalType": "contract ERC20",
          "name": "_usdToken",
          "type": "address"
        }
      ],
      "stateMutability": "nonpayable",
      "type": "constructor"
    },
    {
      "anonymous": false,
      "inputs": [
        {
          "indexed": true,
          "internalType": "address",
          "name": "fund",
          "type": "address"
        }
      ],
      "name": "FundCreated",
      "type": "event"
    },
    {
      "anonymous": false,
      "inputs": [
        {
          "indexed": true,
          "internalType": "address",
          "name": "previousOwner",
          "type": "address"
        },
        {
          "indexed": true,
          "internalType": "address",
          "name": "newOwner",
          "type": "address"
        }
      ],
      "name": "OwnershipTransferred",
      "type": "event"
    },
    {
      "inputs": [],
      "name": "allFunds",
      "outputs": [
        {
          "internalType": "contract SMFund[]",
          "name": "",
          "type": "address[]"
        }
      ],
      "stateMutability": "view",
      "type": "function"
    },
    {
      "inputs": [
        {
          "internalType": "uint256",
          "name": "",
          "type": "uint256"
        }
      ],
      "name": "funds",
      "outputs": [
        {
          "internalType": "contract SMFund",
          "name": "",
          "type": "address"
        }
      ],
      "stateMutability": "view",
      "type": "function"
    },
    {
      "inputs": [],
      "name": "fundsLength",
      "outputs": [
        {
          "internalType": "uint256",
          "name": "",
          "type": "uint256"
        }
      ],
      "stateMutability": "view",
      "type": "function"
    },
    {
      "inputs": [
        {
          "internalType": "address",
          "name": "",
          "type": "address"
        }
      ],
      "name": "managersToFunds",
      "outputs": [
        {
          "internalType": "address",
          "name": "",
          "type": "address"
        }
      ],
      "stateMutability": "view",
      "type": "function"
    },
    {
      "inputs": [
        {
          "internalType": "address",
          "name": "manager",
          "type": "address"
        },
        {
          "internalType": "address",
          "name": "aumUpdater",
          "type": "address"
        },
        {
          "internalType": "bool",
          "name": "signedAum",
          "type": "bool"
        },
        {
          "internalType": "string",
          "name": "name",
          "type": "string"
        },
        {
          "internalType": "string",
          "name": "symbol",
          "type": "string"
        },
        {
          "internalType": "string",
          "name": "logoUrl",
          "type": "string"
        }
      ],
      "name": "newFund",
      "outputs": [],
      "stateMutability": "nonpayable",
      "type": "function"
    },
    {
      "inputs": [],
      "name": "owner",
      "outputs": [
        {
          "internalType": "address",
          "name": "",
          "type": "address"
        }
      ],
      "stateMutability": "view",
      "type": "function"
    },
    {
      "inputs": [],
      "name": "renounceOwnership",
      "outputs": [],
      "stateMutability": "nonpayable",
      "type": "function"
    },
    {
      "inputs": [
        {
          "internalType": "address",
          "name": "newOwner",
          "type": "address"
        }
      ],
      "name": "transferOwnership",
      "outputs": [],
      "stateMutability": "nonpayable",
      "type": "function"
    },
    {
      "inputs": [],
      "name": "usdToken",
      "outputs": [
        {
          "internalType": "contract ERC20",
          "name": "",
          "type": "address"
        }
      ],
      "stateMutability": "view",
      "type": "function"
    }
  ],
  "bytecode": "0x60a060405234801561001057600080fd5b506040516148df3803806148df83398101604081905261002f9161009c565b6000610039610098565b600080546001600160a01b0319166001600160a01b0383169081178255604051929350917f8be0079c531659141344cd1fd0a4f28419497f9722a3daafe3b4186f6b6457e0908290a35060601b6001600160601b0319166080526100ca565b3390565b6000602082840312156100ad578081fd5b81516001600160a01b03811681146100c3578182fd5b9392505050565b60805160601c6147f86100e76000398061051d52506147f86000f3fe60806040523480156200001157600080fd5b5060043610620000a05760003560e01c80637b8e8895116200006f5780637b8e889514620001105780638da5cb5b1462000127578063d254baa61462000131578063f2fde38b146200014a578063f897a22b146200016157620000a0565b80630905c5a014620000a55780634e06589514620000c7578063715018a614620000ed57806371ce4ef514620000f9575b600080fd5b620000af6200016b565b604051620000be91906200080b565b60405180910390f35b620000de620000d8366004620005b8565b62000171565b604051620000be9190620006fe565b620000f76200018c565b005b620000f76200010a366004620005dc565b62000243565b620000de62000121366004620006bb565b6200036e565b620000de62000399565b6200013b620003a8565b604051620000be919062000785565b620000f76200015b366004620005b8565b6200040c565b620000de6200051b565b60015490565b6002602052600090815260409020546001600160a01b031681565b620001966200053f565b6000546001600160a01b03908116911614620001f9576040805162461bcd60e51b815260206004820181905260248201527f4f776e61626c653a2063616c6c6572206973206e6f7420746865206f776e6572604482015290519081900360640190fd5b600080546040516001600160a01b03909116907f8be0079c531659141344cd1fd0a4f28419497f9722a3daafe3b4186f6b6457e0908390a3600080546001600160a01b0319169055565b6001600160a01b038981166000908152600260205260409020541615620002875760405162461bcd60e51b81526004016200027e90620007d4565b60405180910390fd5b6000898989898989898989604051620002a09062000543565b620002b49998979695949392919062000712565b604051809103906000f080158015620002d1573d6000803e3d6000fd5b50600180548082019091557fb10e2d527612073b26eecdfd717e6a320cf44b4afac2b0732d9fcbe2b7fa0cf60180546001600160a01b038084166001600160a01b031992831681179093558d1660009081526002602052604080822080549093168417909255905192935090917fbeacbaab8887097be64d667b2a06e62db7e00cc1429a8ebe02535e97a6cc8fcd9190a250505050505050505050565b600181815481106200037f57600080fd5b6000918252602090912001546001600160a01b0316905081565b6000546001600160a01b031690565b606060018054806020026020016040519081016040528092919081815260200182805480156200040257602002820191906000526020600020905b81546001600160a01b03168152600190910190602001808311620003e3575b5050505050905090565b620004166200053f565b6000546001600160a01b0390811691161462000479576040805162461bcd60e51b815260206004820181905260248201527f4f776e61626c653a2063616c6c6572206973206e6f7420746865206f776e6572604482015290519081900360640190fd5b6001600160a01b038116620004c05760405162461bcd60e51b81526004018080602001828103825260268152602001806200479d6026913960400191505060405180910390fd5b600080546040516001600160a01b03808516939216917f8be0079c531659141344cd1fd0a4f28419497f9722a3daafe3b4186f6b6457e091a3600080546001600160a01b0319166001600160a01b0392909216919091179055565b7f000000000000000000000000000000000000000000000000000000000000000081565b3390565b613f88806200081583390190565b80356001600160a01b03811681146200056957600080fd5b919050565b60008083601f84011262000580578182fd5b50813567ffffffffffffffff81111562000598578182fd5b602083019150836020828501011115620005b157600080fd5b9250929050565b600060208284031215620005ca578081fd5b620005d58262000551565b9392505050565b600080600080600080600080600060c08a8c031215620005fa578485fd5b620006058a62000551565b98506200061560208b0162000551565b975060408a013580151581146200062a578586fd5b965060608a013567ffffffffffffffff8082111562000647578687fd5b620006558d838e016200056e565b909850965060808c01359150808211156200066e578586fd5b6200067c8d838e016200056e565b909650945060a08c013591508082111562000695578384fd5b50620006a48c828d016200056e565b915080935050809150509295985092959850929598565b600060208284031215620006cd578081fd5b5035919050565b60008284528282602086013780602084860101526020601f19601f85011685010190509392505050565b6001600160a01b0391909116815260200190565b6001600160a01b038a8116825289166020820152871515604082015260c06060820181905260009062000749908301888a620006d4565b82810360808401526200075e818789620006d4565b905082810360a084015262000775818587620006d4565b9c9b505050505050505050505050565b6020808252825182820181905260009190848201906040850190845b81811015620007c85783516001600160a01b031683529284019291840191600101620007a1565b50909695505050505050565b6020808252601f908201527f4d616e6167657220616c7265616479207573656420666f7220612066756e6400604082015260600190565b9081526020019056fe60e06040523480156200001157600080fd5b5060405162003f8838038062003f88833981016040819052620000349162000351565b8251839083906200004d9060039060208501906200020a565b508051620000639060049060208401906200020a565b50506005805460ff19166012179055506200007d620001f0565b600560016101000a8154816001600160a01b0302191690836001600160a01b03160217905550620001ab600560019054906101000a90046001600160a01b03166001600160a01b031663f897a22b6040518163ffffffff1660e01b815260040160206040518083038186803b158015620000f657600080fd5b505afa1580156200010b573d6000803e3d6000fd5b505050506040513d601f19601f8201168201806040525081019062000131919062000421565b6001600160a01b031663313ce5676040518163ffffffff1660e01b815260040160206040518083038186803b1580156200016a57600080fd5b505afa1580156200017f573d6000803e3d6000fd5b505050506040513d601f19601f82011682018060405250810190620001a5919062000447565b620001f4565b6001600160601b0319606087811b821660805286901b1660a05283151560f81b60c0528051620001e390600a9060208401906200020a565b5050505050505062000483565b3390565b6005805460ff191660ff92909216919091179055565b828054600181600116156101000203166002900490600052602060002090601f0160209004810192826200024257600085556200028d565b82601f106200025d57805160ff19168380011785556200028d565b828001600101855582156200028d579182015b828111156200028d57825182559160200191906001019062000270565b506200029b9291506200029f565b5090565b5b808211156200029b5760008155600101620002a0565b600082601f830112620002c7578081fd5b81516001600160401b0380821115620002dc57fe5b6040516020601f8401601f1916820181018381118382101715620002fc57fe5b604052838252858401810187101562000313578485fd5b8492505b8383101562000336578583018101518284018201529182019162000317565b838311156200034757848185840101525b5095945050505050565b60008060008060008060c087890312156200036a578182fd5b865162000377816200046a565b60208801519096506200038a816200046a565b60408801519095508015158114620003a0578283fd5b60608801519094506001600160401b0380821115620003bd578384fd5b620003cb8a838b01620002b6565b94506080890151915080821115620003e1578384fd5b620003ef8a838b01620002b6565b935060a089015191508082111562000405578283fd5b506200041489828a01620002b6565b9150509295509295509295565b60006020828403121562000433578081fd5b815162000440816200046a565b9392505050565b60006020828403121562000459578081fd5b815160ff8116811462000440578182fd5b6001600160a01b03811681146200048057600080fd5b50565b60805160601c60a05160601c60c05160f81c613a93620004f5600039806105b052806121265250806108805280610e2952806111e252508061082e52806109cd5280610bac5280610f24528061128d52806116f352806118695280611e8b528061214e52806123a75250613a936000f3fe608060405234801561001057600080fd5b50600436106102065760003560e01c806379aba36d1161011a578063a6891051116100ad578063c45a01551161007c578063c45a0155146103f2578063d33219b4146103fa578063dd62ed3e14610402578063f3aaaad714610415578063fd345c8a1461042857610206565b8063a6891051146103bc578063a6f7f5d6146103c4578063a9059cbb146103cc578063a9476fa2146103df57610206565b806395d89b41116100e957806395d89b4114610378578063993d77af146103805780639b19251a14610388578063a457c2d7146103a957610206565b806379aba36d146103375780638655bb431461034a578063877887821461035d57806388c249201461036557610206565b8063395093511161019d5780635a1bd61c1161016c5780635a1bd61c146102e35780636629e659146102f657806370a082311461030957806372ad692e1461031c57806377bd51051461032f57610206565b8063395093511461029e578063431b3244146102b1578063481c6a75146102c65780634c35833d146102db57610206565b806318160ddd116101d957806318160ddd1461026657806323b872dd1461026e578063313ce56714610281578063330d83fa1461029657610206565b806306fdde031461020b578063095ea7b3146102295780630ab51bac14610249578063158ef93e1461025e575b600080fd5b61021361044f565b60405161022091906133d6565b60405180910390f35b61023c610237366004612f5f565b6104e5565b6040516102209190613381565b610251610503565b604051610220919061376c565b61023c610509565b610251610517565b61023c61027c366004612f1f565b61051d565b6102896105a5565b60405161022091906137dc565b61023c6105ae565b61023c6102ac366004612f5f565b6105d2565b6102c46102bf36600461310a565b610620565b005b6102ce61082c565b6040516102209190613309565b610251610850565b6102c46102f13660046131cb565b610856565b6102c4610304366004613033565b61095e565b610251610317366004612eaf565b610b8b565b6102c461032a3660046130e4565b610baa565b61023c610d07565b6102c46103453660046131a0565b610d10565b6102c461035836600461315b565b610e00565b610251610f1c565b6102c4610373366004612fca565b610f22565b610213610fdb565b61021361103c565b61039b610396366004612eaf565b6110ca565b60405161022092919061338c565b61023c6103b7366004612f5f565b611178565b6102ce6111e0565b610251611204565b61023c6103da366004612f5f565b61120a565b6102c46103ed36600461307d565b61121e565b6102ce611822565b610251611836565b610251610410366004612ee7565b61183c565b6102c4610423366004612f8a565b611867565b61043b6104363660046130cc565b611985565b60405161022098979695949392919061333e565b60038054604080516020601f60026000196101006001881615020190951694909404938401819004810282018101909252828152606093909290918301828280156104db5780601f106104b0576101008083540402835291602001916104db565b820191906000526020600020905b8154815290600101906020018083116104be57829003601f168201915b5050505050905090565b60006104f96104f26119e8565b84846119ec565b5060015b92915050565b600b5481565b600954610100900460ff1681565b60025490565b600061052a848484611ad8565b61059a846105366119e8565b6105958560405180606001604052806028815260200161395d602891396001600160a01b038a166000908152600160205260408120906105746119e8565b6001600160a01b031681526020810191909152604001600020549190611c33565b6119ec565b5060015b9392505050565b60055460ff1690565b7f000000000000000000000000000000000000000000000000000000000000000081565b60006104f96105df6119e8565b8461059585600160006105f06119e8565b6001600160a01b03908116825260208083019390935260409182016000908120918c168152925290205490611cca565b600954610100900460ff166106505760405162461bcd60e51b8152600401610647906135d2565b60405180910390fd5b610658610517565b6106745760405162461bcd60e51b8152600401610647906134f6565b60095460ff166106965760405162461bcd60e51b815260040161064790613624565b600c60006106a26119e8565b6001600160a01b0316815260208101919091526040016000205460ff1615156001146106e05760405162461bcd60e51b8152600401610647906135fb565b80804211156107015760405162461bcd60e51b815260040161064790613745565b600061070b6119e8565b905060005b848110156107de576000600d87878481811061072857fe5b905060200201358154811061073957fe5b6000918252602090912060089091020180549091506001600160a01b038481169116146107785760405162461bcd60e51b8152600401610647906136b7565b600781015460ff161561079d5760405162461bcd60e51b8152600401610647906136ee565b426107b76006548360050154611cca90919063ffffffff16565b11156107d55760405162461bcd60e51b8152600401610647906135ad565b50600101610710565b50806001600160a01b03167fcfb9208347ccc39aaddc9759318936d34c26c238e90370ec8122a7eb251013b187878760405161081c93929190613775565b60405180910390a2505050505050565b7f000000000000000000000000000000000000000000000000000000000000000081565b600e5481565b600954610100900460ff161561087e5760405162461bcd60e51b815260040161064790613718565b7f00000000000000000000000000000000000000000000000000000000000000006001600160a01b03166108b06119e8565b6001600160a01b0316146108d65760405162461bcd60e51b8152600401610647906134cd565b81804211156108f75760405162461bcd60e51b815260040161064790613745565b6000871161090457600080fd5b60068b905560078a905560088990556009805460ff191689151517905561092c868686611d24565b61093886886001611dfc565b6109428383612124565b50506009805461ff001916610100179055505050505050505050565b600954610100900460ff166109855760405162461bcd60e51b8152600401610647906135d2565b61098d610517565b6109a95760405162461bcd60e51b8152600401610647906134f6565b60095460ff166109cb5760405162461bcd60e51b815260040161064790613624565b7f00000000000000000000000000000000000000000000000000000000000000006001600160a01b03166109fd6119e8565b6001600160a01b031614610a235760405162461bcd60e51b81526004016106479061345a565b8080421115610a445760405162461bcd60e51b815260040161064790613745565b60008060005b85811015610b15576000600d888884818110610a6257fe5b9050602002013581548110610a7357fe5b60009182526020909120600890910201600781015490915060ff1615610aab5760405162461bcd60e51b8152600401610647906136ee565b60068101544290610abf9062278d00611cca565b1115610add5760405162461bcd60e51b8152600401610647906133e9565b600080610ae98361226c565b9092509050610af88683611cca565b9550610b048582611cca565b94505060019092019150610a4a9050565b507fe10232cb082ad9d2567dc8f6dcfdd590b915dc2c23630cebc1c8bf93dae190f182828888604051610b4b94939291906137a6565b60405180910390a16000805160206139ef833981519152600b54610b6d610517565b604051610b7b929190613798565b60405180910390a1505050505050565b6001600160a01b0381166000908152602081905260409020545b919050565b7f00000000000000000000000000000000000000000000000000000000000000006001600160a01b0316610bdc6119e8565b6001600160a01b031614610c025760405162461bcd60e51b81526004016106479061345a565b8080421115610c235760405162461bcd60e51b815260040161064790613745565b610cc0308486600560019054906101000a90046001600160a01b03166001600160a01b031663f897a22b6040518163ffffffff1660e01b815260040160206040518083038186803b158015610c7757600080fd5b505afa158015610c8b573d6000803e3d6000fd5b505050506040513d601f19601f82011682018060405250810190610caf9190612ecb565b6001600160a01b031692919061242b565b826001600160a01b03167fc0819c13be868895eb93e40eaceb96de976442fa1d404e5c55f14bb65a8c489a85604051610cf9919061376c565b60405180910390a250505050565b60095460ff1681565b600954610100900460ff16610d375760405162461bcd60e51b8152600401610647906135d2565b610d3f610517565b610d5b5760405162461bcd60e51b8152600401610647906134f6565b60095460ff16610d7d5760405162461bcd60e51b815260040161064790613624565b600c6000610d896119e8565b6001600160a01b0316815260208101919091526040016000205460ff161515600114610dc75760405162461bcd60e51b8152600401610647906135fb565b8080421115610de85760405162461bcd60e51b815260040161064790613745565b610dfa610df36119e8565b8585611dfc565b50505050565b600954610100900460ff16610e275760405162461bcd60e51b8152600401610647906135d2565b7f00000000000000000000000000000000000000000000000000000000000000006001600160a01b0316610e596119e8565b6001600160a01b031614610e7f5760405162461bcd60e51b8152600401610647906134cd565b8280421115610ea05760405162461bcd60e51b815260040161064790613745565b84600b81905550610ee78484848080601f01602080910402602001604051908101604052809392919081815260200183838082843760009201919091525061212492505050565b6000805160206139ef83398151915285610eff610517565b604051610f0d929190613798565b60405180910390a15050505050565b60085481565b7f00000000000000000000000000000000000000000000000000000000000000006001600160a01b0316610f546119e8565b6001600160a01b031614610f7a5760405162461bcd60e51b81526004016106479061345a565b60005b83811015610fd457610fcc858583818110610f9457fe5b9050602002016020810190610fa99190612eaf565b848484818110610fb557fe5b9050602002810190610fc791906137ea565b611d24565b600101610f7d565b5050505050565b60048054604080516020601f60026000196101006001881615020190951694909404938401819004810282018101909252828152606093909290918301828280156104db5780601f106104b0576101008083540402835291602001916104db565b600a805460408051602060026001851615610100026000190190941693909304601f810184900484028201840190925281815292918301828280156110c25780601f10611097576101008083540402835291602001916110c2565b820191906000526020600020905b8154815290600101906020018083116110a557829003601f168201915b505050505081565b600c602090815260009182526040918290208054600180830180548651600261010094831615949094026000190190911692909204601f810186900486028301860190965285825260ff90921694929390929083018282801561116e5780601f106111435761010080835404028352916020019161116e565b820191906000526020600020905b81548152906001019060200180831161115157829003601f168201915b5050505050905082565b60006104f96111856119e8565b8461059585604051806060016040528060258152602001613a3960259139600160006111af6119e8565b6001600160a01b03908116825260208083019390935260409182016000908120918d16815292529020549190611c33565b7f000000000000000000000000000000000000000000000000000000000000000081565b60075481565b60006104f96112176119e8565b8484611ad8565b600954610100900460ff166112455760405162461bcd60e51b8152600401610647906135d2565b61124d610517565b6112695760405162461bcd60e51b8152600401610647906134f6565b60095460ff1661128b5760405162461bcd60e51b815260040161064790613624565b7f00000000000000000000000000000000000000000000000000000000000000006001600160a01b03166112bd6119e8565b6001600160a01b0316146112e35760405162461bcd60e51b81526004016106479061345a565b80804211156113045760405162461bcd60e51b815260040161064790613745565b600e5460011480156113165750600184145b156114e55782600b54101561133d5760405162461bcd60e51b81526004016106479061365b565b6000600d8686600081811061134e57fe5b905060200201358154811061135f57fe5b60009182526020909120600890910201600781015490915060ff16156113975760405162461bcd60e51b8152600401610647906136ee565b426113b16006548360050154611cca90919063ffffffff16565b11156113cf5760405162461bcd60e51b8152600401610647906135ad565b6000806113db8361226c565b60078501805460ff19166001179055600e805460001901905584546004860154929450909250611416916001600160a01b0390911690612485565b600b805460009091556040517fe10232cb082ad9d2567dc8f6dcfdd590b915dc2c23630cebc1c8bf93dae190f19061145590859085908d908d906137a6565b60405180910390a1835460048501546040516001600160a01b03909216917fd4fe30e0dfe75bc29d5bfbc1f4a10133848ddb5322b8117cca9103e23440e5e6916114a49185908e908e906137a6565b60405180910390a26000805160206139ef833981519152600b546114c6610517565b6040516114d4929190613798565b60405180910390a150505050610fd4565b6000600d868660008181106114f657fe5b905060200201358154811061150757fe5b600091825260208220600890910201546001600160a01b03169150808080805b898110156116b0578a8a8281811061153b57fe5b90506020020135600014156115625760405162461bcd60e51b81526004016106479061347f565b6000600d8c8c8481811061157257fe5b905060200201358154811061158357fe5b60009182526020909120600890910201600781015490915060ff16156115bb5760405162461bcd60e51b8152600401610647906136ee565b426115d56006548360050154611cca90919063ffffffff16565b11156115f35760405162461bcd60e51b8152600401610647906135ad565b80546001600160a01b0388811691161461161f5760405162461bcd60e51b81526004016106479061351e565b60008061162b8361226c565b909250905061163a8683611cca565b95506116468582611cca565b60078401805460ff19166001179055600e805460001901905560048401549095506116719088611cca565b965061169f88611699611682610517565b600b54600488015461169391612581565b906125da565b90611cca565b975050600190920191506115279050565b50878410156116d15760405162461bcd60e51b81526004016106479061365b565b6116db8584612485565b600b546116e8908561261c565b600b819055506117627f00000000000000000000000000000000000000000000000000000000000000008686600560019054906101000a90046001600160a01b03166001600160a01b031663f897a22b6040518163ffffffff1660e01b815260040160206040518083038186803b158015610c7757600080fd5b7fe10232cb082ad9d2567dc8f6dcfdd590b915dc2c23630cebc1c8bf93dae190f182828c8c60405161179794939291906137a6565b60405180910390a1846001600160a01b03167fd4fe30e0dfe75bc29d5bfbc1f4a10133848ddb5322b8117cca9103e23440e5e684868d8d6040516117de94939291906137a6565b60405180910390a26000805160206139ef833981519152600b54611800610517565b60405161180e929190613798565b60405180910390a150505050505050505050565b60055461010090046001600160a01b031681565b60065481565b6001600160a01b03918216600090815260016020908152604080832093909416825291909152205490565b7f00000000000000000000000000000000000000000000000000000000000000006001600160a01b03166118996119e8565b6001600160a01b0316146118bf5760405162461bcd60e51b81526004016106479061345a565b60005b8181101561198057600c60008484848181106118da57fe5b90506020020160208101906118ef9190612eaf565b6001600160a01b0316815260208101919091526040016000908120805460ff19168155906119206001830182612cbe565b505082828281811061192e57fe5b90506020020160208101906119439190612eaf565b6001600160a01b03167fffa4e6181777692565cf28528fc88fd1516ea86b56da075235fa575af6a4b85560405160405180910390a26001016118c2565b505050565b600d818154811061199557600080fd5b6000918252602090912060089091020180546001820154600283015460038401546004850154600586015460068701546007909701546001600160a01b0390961697509395929491939092909160ff1688565b3390565b6001600160a01b038316611a315760405162461bcd60e51b81526004018080602001828103825260248152602001806139cb6024913960400191505060405180910390fd5b6001600160a01b038216611a765760405162461bcd60e51b815260040180806020018281038252602281526020018061388a6022913960400191505060405180910390fd5b6001600160a01b03808416600081815260016020908152604080832094871680845294825291829020859055815185815291517f8c5be1e5ebec7d5bd14f71427d1e84f3dd0314c0f7b2291e5b200ac8c7c3b9259281900390910190a3505050565b6001600160a01b038316611b1d5760405162461bcd60e51b81526004018080602001828103825260258152602001806139a66025913960400191505060405180910390fd5b6001600160a01b038216611b625760405162461bcd60e51b81526004018080602001828103825260238152602001806138456023913960400191505060405180910390fd5b611b6d83838361265e565b611baa816040518060600160405280602681526020016138ac602691396001600160a01b0386166000908152602081905260409020549190611c33565b6001600160a01b038085166000908152602081905260408082209390935590841681522054611bd99082611cca565b6001600160a01b038084166000818152602081815260409182902094909455805185815290519193928716927fddf252ad1be2c89b69c2b068fc378daa952ba7f163c4a11628f55a4df523b3ef92918290030190a3505050565b60008184841115611cc25760405162461bcd60e51b81526004018080602001828103825283818151815260200191508051906020019080838360005b83811015611c87578181015183820152602001611c6f565b50505050905090810190601f168015611cb45780820380516001836020036101000a031916815260200191505b509250505060405180910390fd5b505050900390565b60008282018381101561059e576040805162461bcd60e51b815260206004820152601b60248201527f536166654d6174683a206164646974696f6e206f766572666c6f770000000000604482015290519081900360640190fd5b604051806040016040528060011515815260200183838080601f01602080910402602001604051908101604052809392919081815260200183838082843760009201829052509390945250506001600160a01b0386168152600c602090815260409091208351815460ff1916901515178155838201518051919350611db0926001850192910190612d05565b50905050826001600160a01b03167f3feccebfacde99065c8796a177e49cc8db48e50a6034f441dd9650d7e5b17fa88383604051611def9291906133a7565b60405180910390a2505050565b600082118015611e0c5750600081115b611e285760405162461bcd60e51b815260040161064790613692565b600d54600081611e4457611e3d846064612581565b9050611e5f565b611e5c600b54611693611e55610517565b8790612581565b90505b82811015611e7f5760405162461bcd60e51b815260040161064790613576565b8115611ef957611ef9857f000000000000000000000000000000000000000000000000000000000000000086600560019054906101000a90046001600160a01b03166001600160a01b031663f897a22b6040518163ffffffff1660e01b815260040160206040518083038186803b158015610c7757600080fd5b600b54611f069085611cca565b600b55611f1385826126a2565b60408051610100810182526001600160a01b0387811680835260208301888152600084860181815260608601888152608087018981524260a0890190815260c0890185815260e08a01868152600d805460018082018355919098529a517fd7b6990105719101dabeb77144f2a3385c8033acd3af97e9423a695e81ad1eb5600890980297880180546001600160a01b03191691909b161790995595517fd7b6990105719101dabeb77144f2a3385c8033acd3af97e9423a695e81ad1eb686015592517fd7b6990105719101dabeb77144f2a3385c8033acd3af97e9423a695e81ad1eb785015590517fd7b6990105719101dabeb77144f2a3385c8033acd3af97e9423a695e81ad1eb8840155517fd7b6990105719101dabeb77144f2a3385c8033acd3af97e9423a695e81ad1eb9830155517fd7b6990105719101dabeb77144f2a3385c8033acd3af97e9423a695e81ad1eba82015590517fd7b6990105719101dabeb77144f2a3385c8033acd3af97e9423a695e81ad1ebb82015591517fd7b6990105719101dabeb77144f2a3385c8033acd3af97e9423a695e81ad1ebc909201805460ff191692151592909217909155600e805490920190915590517f9bce88ff835d9d8831ccf5c7e04a2533f68510314393b3a54f990dea62e7134e90612102908790859087906137c6565b60405180910390a26000805160206139ef833981519152600b54610eff610517565b7f0000000000000000000000000000000000000000000000000000000000000000156122685760007f0000000000000000000000000000000000000000000000000000000000000000600b54846040516020016121839392919061331d565b60405160208183030381529060405280519060200120905060006121b0836121aa84612792565b906127e3565b9050600560019054906101000a90046001600160a01b03166001600160a01b0316638da5cb5b6040518163ffffffff1660e01b815260040160206040518083038186803b15801561220057600080fd5b505afa158015612214573d6000803e3d6000fd5b505050506040513d601f19601f820116820180604052508101906122389190612ecb565b6001600160a01b0316816001600160a01b031614610dfa5760405162461bcd60e51b815260040161064790613431565b5050565b600080600061228884600501544261261c90919063ffffffff16565b905060006122b8644979cb9e0061169387600101546122b26007548761258190919063ffffffff16565b90612581565b905060006122c4610517565b905060006122e5826116938960030154600b5461258190919063ffffffff16565b90506000876001015482111561231b576123186127106116936008546122b28c600101548761261c90919063ffffffff16565b90505b60006123278583611cca565b90506000808a600201548311156124165760028b015461234890849061261c565b600b5490925061235c906116938885612581565b60028c0184905560048c0154909150612375908261261c565b60048c01558a5461238f906001600160a01b031682612485565b600b5461239c908361261c565b600b819055506124167f00000000000000000000000000000000000000000000000000000000000000003084600560019054906101000a90046001600160a01b03166001600160a01b031663f897a22b6040518163ffffffff1660e01b815260040160206040518083038186803b158015610c7757600080fd5b4260068c015598509650505050505050915091565b604080516001600160a01b0380861660248301528416604482015260648082018490528251808303909101815260849091019091526020810180516001600160e01b03166323b872dd60e01b179052610dfa9085906129ca565b6001600160a01b0382166124ca5760405162461bcd60e51b81526004018080602001828103825260218152602001806139856021913960400191505060405180910390fd5b6124d68260008361265e565b61251381604051806060016040528060228152602001613868602291396001600160a01b0385166000908152602081905260409020549190611c33565b6001600160a01b038316600090815260208190526040902055600254612539908261261c565b6002556040805182815290516000916001600160a01b038516917fddf252ad1be2c89b69c2b068fc378daa952ba7f163c4a11628f55a4df523b3ef9181900360200190a35050565b600082612590575060006104fd565b8282028284828161259d57fe5b041461059e5760405162461bcd60e51b815260040180806020018281038252602181526020018061393c6021913960400191505060405180910390fd5b600061059e83836040518060400160405280601a81526020017f536166654d6174683a206469766973696f6e206279207a65726f000000000000815250612a7b565b600061059e83836040518060400160405280601e81526020017f536166654d6174683a207375627472616374696f6e206f766572666c6f770000815250611c33565b612669838383611980565b6001600160a01b038316158061268657506001600160a01b038216155b6119805760405162461bcd60e51b81526004016106479061354d565b6001600160a01b0382166126fd576040805162461bcd60e51b815260206004820152601f60248201527f45524332303a206d696e7420746f20746865207a65726f206164647265737300604482015290519081900360640190fd5b6127096000838361265e565b6002546127169082611cca565b6002556001600160a01b03821660009081526020819052604090205461273c9082611cca565b6001600160a01b0383166000818152602081815260408083209490945583518581529351929391927fddf252ad1be2c89b69c2b068fc378daa952ba7f163c4a11628f55a4df523b3ef9281900390910190a35050565b604080517f19457468657265756d205369676e6564204d6573736167653a0a333200000000602080830191909152603c8083019490945282518083039094018452605c909101909152815191012090565b6000815160411461283b576040805162461bcd60e51b815260206004820152601f60248201527f45434453413a20696e76616c6964207369676e6174757265206c656e67746800604482015290519081900360640190fd5b60208201516040830151606084015160001a7f7fffffffffffffffffffffffffffffff5d576e7357a4501ddfe92f46681b20a08211156128ac5760405162461bcd60e51b81526004018080602001828103825260228152602001806138d26022913960400191505060405180910390fd5b8060ff16601b14806128c157508060ff16601c145b6128fc5760405162461bcd60e51b815260040180806020018281038252602281526020018061391a6022913960400191505060405180910390fd5b600060018783868660405160008152602001604052604051808581526020018460ff1681526020018381526020018281526020019450505050506020604051602081039080840390855afa158015612958573d6000803e3d6000fd5b5050604051601f1901519150506001600160a01b0381166129c0576040805162461bcd60e51b815260206004820152601860248201527f45434453413a20696e76616c6964207369676e61747572650000000000000000604482015290519081900360640190fd5b9695505050505050565b6000612a1f826040518060400160405280602081526020017f5361666545524332303a206c6f772d6c6576656c2063616c6c206661696c6564815250856001600160a01b0316612ae09092919063ffffffff16565b80519091501561198057808060200190516020811015612a3e57600080fd5b50516119805760405162461bcd60e51b815260040180806020018281038252602a815260200180613a0f602a913960400191505060405180910390fd5b60008183612aca5760405162461bcd60e51b8152602060048201818152835160248401528351909283926044909101919085019080838360008315611c87578181015183820152602001611c6f565b506000838581612ad657fe5b0495945050505050565b6060612aef8484600085612af7565b949350505050565b606082471015612b385760405162461bcd60e51b81526004018080602001828103825260268152602001806138f46026913960400191505060405180910390fd5b612b4185612c52565b612b92576040805162461bcd60e51b815260206004820152601d60248201527f416464726573733a2063616c6c20746f206e6f6e2d636f6e7472616374000000604482015290519081900360640190fd5b600080866001600160a01b031685876040518082805190602001908083835b60208310612bd05780518252601f199092019160209182019101612bb1565b6001836020036101000a03801982511681845116808217855250505050505090500191505060006040518083038185875af1925050503d8060008114612c32576040519150601f19603f3d011682016040523d82523d6000602084013e612c37565b606091505b5091509150612c47828286612c58565b979650505050505050565b3b151590565b60608315612c6757508161059e565b825115612c775782518084602001fd5b60405162461bcd60e51b8152602060048201818152845160248401528451859391928392604401919085019080838360008315611c87578181015183820152602001611c6f565b50805460018160011615610100020316600290046000825580601f10612ce45750612d02565b601f016020900490600052602060002090810190612d029190612d91565b50565b828054600181600116156101000203166002900490600052602060002090601f016020900481019282612d3b5760008555612d81565b82601f10612d5457805160ff1916838001178555612d81565b82800160010185558215612d81579182015b82811115612d81578251825591602001919060010190612d66565b50612d8d929150612d91565b5090565b5b80821115612d8d5760008155600101612d92565b8035610ba58161382f565b60008083601f840112612dc2578081fd5b50813567ffffffffffffffff811115612dd9578182fd5b6020830191508360208083028501011115612df357600080fd5b9250929050565b60008083601f840112612e0b578182fd5b50813567ffffffffffffffff811115612e22578182fd5b602083019150836020828501011115612df357600080fd5b600082601f830112612e4a578081fd5b813567ffffffffffffffff80821115612e5f57fe5b604051601f8301601f191681016020018281118282101715612e7d57fe5b604052828152848301602001861015612e94578384fd5b82602086016020830137918201602001929092529392505050565b600060208284031215612ec0578081fd5b813561059e8161382f565b600060208284031215612edc578081fd5b815161059e8161382f565b60008060408385031215612ef9578081fd5b8235612f048161382f565b91506020830135612f148161382f565b809150509250929050565b600080600060608486031215612f33578081fd5b8335612f3e8161382f565b92506020840135612f4e8161382f565b929592945050506040919091013590565b60008060408385031215612f71578182fd5b8235612f7c8161382f565b946020939093013593505050565b60008060208385031215612f9c578182fd5b823567ffffffffffffffff811115612fb2578283fd5b612fbe85828601612db1565b90969095509350505050565b60008060008060408587031215612fdf578081fd5b843567ffffffffffffffff80821115612ff6578283fd5b61300288838901612db1565b9096509450602087013591508082111561301a578283fd5b5061302787828801612db1565b95989497509550505050565b600080600060408486031215613047578283fd5b833567ffffffffffffffff81111561305d578384fd5b61306986828701612db1565b909790965060209590950135949350505050565b60008060008060608587031215613092578384fd5b843567ffffffffffffffff8111156130a8578485fd5b6130b487828801612db1565b90989097506020870135966040013595509350505050565b6000602082840312156130dd578081fd5b5035919050565b6000806000606084860312156130f8578081fd5b833592506020840135612f4e8161382f565b6000806000806060858703121561311f578182fd5b84359350602085013567ffffffffffffffff81111561313c578283fd5b61314887828801612db1565b9598909750949560400135949350505050565b60008060008060608587031215613170578182fd5b8435935060208501359250604085013567ffffffffffffffff811115613194578283fd5b61302787828801612dfa565b6000806000606084860312156131b4578081fd5b505081359360208301359350604090920135919050565b6000806000806000806000806000806101208b8d0312156131ea578788fd5b8a35995060208b0135985060408b0135975060608b0135801515811461320e578687fd5b965060808b0135955061322360a08c01612da6565b945060c08b013567ffffffffffffffff8082111561323f578586fd5b61324b8e838f01612dfa565b909650945060e08d013593506101008d013591508082111561326b578283fd5b506132788d828e01612e3a565b9150509295989b9194979a5092959850565b81835260006001600160fb1b038311156132a2578081fd5b6020830280836020870137939093016020019283525090919050565b60008151808452815b818110156132e3576020818501810151868301820152016132c7565b818111156132f45782602083870101525b50601f01601f19169290920160200192915050565b6001600160a01b0391909116815260200190565b6001600160a01b039390931683526020830191909152604082015260600190565b6001600160a01b03989098168852602088019690965260408701949094526060860192909252608085015260a084015260c0830152151560e08201526101000190565b901515815260200190565b6000831515825260406020830152612aef60408301846132be565b60006020825282602083015282846040840137818301604090810191909152601f909201601f19160101919050565b60006020825261059e60208301846132be565b60208082526028908201527f466565206c61737420636f6c6c6563746564206c657373207468616e2061206d6040820152676f6e74682061676f60c01b606082015260800190565b6020808252600f908201526e0a6d2cedccae440dad2e6dac2e8c6d608b1b604082015260600190565b6020808252600b908201526a2737ba1036b0b730b3b2b960a91b604082015260600190565b6020808252602e908201527f496e697469616c20696e766573746d656e74206d75737420626520726564656560408201526d6d65642073657061726174656c7960901b606082015260800190565b6020808252600f908201526e2737ba1020aaa6903ab83230ba32b960891b604082015260600190565b6020808252600e908201526d119d5b99081a5cc818db1bdcd95960921b604082015260600190565b6020808252601590820152742737ba10333937b69037b7329034b73b32b9ba37b960591b604082015260600190565b6020808252600f908201526e21b0b73737ba103a3930b739b332b960891b604082015260600190565b60208082526019908201527f4c657373207468616e206d696e2066756e6420616d6f756e7400000000000000604082015260600190565b6020808252600b908201526a151a5b59481b1bd8dad95960aa1b604082015260600190565b6020808252600f908201526e139bdd081a5b9a5d1a585b1a5e9959608a1b604082015260600190565b6020808252600f908201526e139bdd081dda1a5d195b1a5cdd1959608a1b604082015260600190565b60208082526018908201527f496e766573746d656e7473206172652064697361626c65640000000000000000604082015260600190565b60208082526018908201527f4c657373207468616e206d696e2075736420616d6f756e740000000000000000604082015260600190565b6020808252600b908201526a0416d6f756e7420697320360ac1b604082015260600190565b60208082526017908201527f4e6f742073656e646572277320696e766573746d656e74000000000000000000604082015260600190565b60208082526010908201526f105b1c9958591e481c995919595b595960821b604082015260600190565b602080825260139082015272105b1c9958591e481a5b9a5d1a585b1a5e9959606a1b604082015260600190565b6020808252600d908201526c5061737420646561646c696e6560981b604082015260600190565b90815260200190565b60008482526040602083015261378f60408301848661328a565b95945050505050565b918252602082015260400190565b6000858252846020830152606060408301526129c060608301848661328a565b9283526020830191909152604082015260600190565b60ff91909116815260200190565b6000808335601e19843603018112613800578283fd5b83018035915067ffffffffffffffff82111561381a578283fd5b602001915036819003821315612df357600080fd5b6001600160a01b0381168114612d0257600080fdfe45524332303a207472616e7366657220746f20746865207a65726f206164647265737345524332303a206275726e20616d6f756e7420657863656564732062616c616e636545524332303a20617070726f766520746f20746865207a65726f206164647265737345524332303a207472616e7366657220616d6f756e7420657863656564732062616c616e636545434453413a20696e76616c6964207369676e6174757265202773272076616c7565416464726573733a20696e73756666696369656e742062616c616e636520666f722063616c6c45434453413a20696e76616c6964207369676e6174757265202776272076616c7565536166654d6174683a206d756c7469706c69636174696f6e206f766572666c6f7745524332303a207472616e7366657220616d6f756e74206578636565647320616c6c6f77616e636545524332303a206275726e2066726f6d20746865207a65726f206164647265737345524332303a207472616e736665722066726f6d20746865207a65726f206164647265737345524332303a20617070726f76652066726f6d20746865207a65726f20616464726573731e1223c1f6274c6d64fdb08c485e192bd2896c9abf70e840e199ac1f54d6d1d55361666545524332303a204552433230206f7065726174696f6e20646964206e6f74207375636365656445524332303a2064656372656173656420616c6c6f77616e63652062656c6f77207a65726fa2646970667358221220c953e312c15d4e2e81ea51875f9397c916fa29a8bc78449372bea3403208b30264736f6c634300070600334f776e61626c653a206e6577206f776e657220697320746865207a65726f2061646472657373a264697066735822122083a2aa887d16c14697241aacdd4b68bed4e87bf242b9b3f04b14133840f8160564736f6c63430007060033",
  "linkReferences": {},
  "deployedLinkReferences": {}
}