{
  "_format": "hh-sol-artifact-1",
  "contractName": "SMFundFactory",
  "sourceName": "contracts/SMFundFactory.sol",
  "abi": [
    {
      "inputs": [
        {
          "internalType": "contract ERC20",
          "name": "_usdToken",
          "type": "address"
        }
      ],
      "stateMutability": "nonpayable",
      "type": "constructor"
    },
    {
      "anonymous": false,
      "inputs": [
        {
          "indexed": true,
          "internalType": "address",
          "name": "fund",
          "type": "address"
        }
      ],
      "name": "FundCreated",
      "type": "event"
    },
    {
      "anonymous": false,
      "inputs": [
        {
          "indexed": true,
          "internalType": "address",
          "name": "previousOwner",
          "type": "address"
        },
        {
          "indexed": true,
          "internalType": "address",
          "name": "newOwner",
          "type": "address"
        }
      ],
      "name": "OwnershipTransferred",
      "type": "event"
    },
    {
      "inputs": [],
      "name": "allFunds",
      "outputs": [
        {
          "internalType": "contract SMFund[]",
          "name": "",
          "type": "address[]"
        }
      ],
      "stateMutability": "view",
      "type": "function"
    },
    {
      "inputs": [
        {
          "internalType": "uint256",
          "name": "",
          "type": "uint256"
        }
      ],
      "name": "funds",
      "outputs": [
        {
          "internalType": "contract SMFund",
          "name": "",
          "type": "address"
        }
      ],
      "stateMutability": "view",
      "type": "function"
    },
    {
      "inputs": [],
      "name": "fundsLength",
      "outputs": [
        {
          "internalType": "uint256",
          "name": "",
          "type": "uint256"
        }
      ],
      "stateMutability": "view",
      "type": "function"
    },
    {
      "inputs": [
        {
          "internalType": "address",
          "name": "",
          "type": "address"
        }
      ],
      "name": "managersToFunds",
      "outputs": [
        {
          "internalType": "address",
          "name": "",
          "type": "address"
        }
      ],
      "stateMutability": "view",
      "type": "function"
    },
    {
      "inputs": [
        {
          "internalType": "address",
          "name": "manager",
          "type": "address"
        },
        {
          "internalType": "address",
          "name": "aumUpdater",
          "type": "address"
        },
        {
          "internalType": "bool",
          "name": "signedAum",
          "type": "bool"
        },
        {
          "internalType": "string",
          "name": "name",
          "type": "string"
        },
        {
          "internalType": "string",
          "name": "symbol",
          "type": "string"
        },
        {
          "internalType": "string",
          "name": "logoUrl",
          "type": "string"
        }
      ],
      "name": "newFund",
      "outputs": [],
      "stateMutability": "nonpayable",
      "type": "function"
    },
    {
      "inputs": [],
      "name": "owner",
      "outputs": [
        {
          "internalType": "address",
          "name": "",
          "type": "address"
        }
      ],
      "stateMutability": "view",
      "type": "function"
    },
    {
      "inputs": [],
      "name": "renounceOwnership",
      "outputs": [],
      "stateMutability": "nonpayable",
      "type": "function"
    },
    {
      "inputs": [
        {
          "internalType": "address",
          "name": "newOwner",
          "type": "address"
        }
      ],
      "name": "transferOwnership",
      "outputs": [],
      "stateMutability": "nonpayable",
      "type": "function"
    },
    {
      "inputs": [],
      "name": "usdToken",
      "outputs": [
        {
          "internalType": "contract ERC20",
          "name": "",
          "type": "address"
        }
      ],
      "stateMutability": "view",
      "type": "function"
    }
  ],
  "bytecode": "0x60a060405234801561001057600080fd5b50604051614a64380380614a6483398101604081905261002f9161009c565b6000610039610098565b600080546001600160a01b0319166001600160a01b0383169081178255604051929350917f8be0079c531659141344cd1fd0a4f28419497f9722a3daafe3b4186f6b6457e0908290a35060601b6001600160601b0319166080526100ca565b3390565b6000602082840312156100ad578081fd5b81516001600160a01b03811681146100c3578182fd5b9392505050565b60805160601c61497d6100e76000398061051d525061497d6000f3fe60806040523480156200001157600080fd5b5060043610620000a05760003560e01c80637b8e8895116200006f5780637b8e889514620001105780638da5cb5b1462000127578063d254baa61462000131578063f2fde38b146200014a578063f897a22b146200016157620000a0565b80630905c5a014620000a55780634e06589514620000c7578063715018a614620000ed57806371ce4ef514620000f9575b600080fd5b620000af6200016b565b604051620000be91906200080b565b60405180910390f35b620000de620000d8366004620005b8565b62000171565b604051620000be9190620006fe565b620000f76200018c565b005b620000f76200010a366004620005dc565b62000243565b620000de62000121366004620006bb565b6200036e565b620000de62000399565b6200013b620003a8565b604051620000be919062000785565b620000f76200015b366004620005b8565b6200040c565b620000de6200051b565b60015490565b6002602052600090815260409020546001600160a01b031681565b620001966200053f565b6000546001600160a01b03908116911614620001f9576040805162461bcd60e51b815260206004820181905260248201527f4f776e61626c653a2063616c6c6572206973206e6f7420746865206f776e6572604482015290519081900360640190fd5b600080546040516001600160a01b03909116907f8be0079c531659141344cd1fd0a4f28419497f9722a3daafe3b4186f6b6457e0908390a3600080546001600160a01b0319169055565b6001600160a01b038981166000908152600260205260409020541615620002875760405162461bcd60e51b81526004016200027e90620007d4565b60405180910390fd5b6000898989898989898989604051620002a09062000543565b620002b49998979695949392919062000712565b604051809103906000f080158015620002d1573d6000803e3d6000fd5b50600180548082019091557fb10e2d527612073b26eecdfd717e6a320cf44b4afac2b0732d9fcbe2b7fa0cf60180546001600160a01b038084166001600160a01b031992831681179093558d1660009081526002602052604080822080549093168417909255905192935090917fbeacbaab8887097be64d667b2a06e62db7e00cc1429a8ebe02535e97a6cc8fcd9190a250505050505050505050565b600181815481106200037f57600080fd5b6000918252602090912001546001600160a01b0316905081565b6000546001600160a01b031690565b606060018054806020026020016040519081016040528092919081815260200182805480156200040257602002820191906000526020600020905b81546001600160a01b03168152600190910190602001808311620003e3575b5050505050905090565b620004166200053f565b6000546001600160a01b0390811691161462000479576040805162461bcd60e51b815260206004820181905260248201527f4f776e61626c653a2063616c6c6572206973206e6f7420746865206f776e6572604482015290519081900360640190fd5b6001600160a01b038116620004c05760405162461bcd60e51b8152600401808060200182810382526026815260200180620049226026913960400191505060405180910390fd5b600080546040516001600160a01b03808516939216917f8be0079c531659141344cd1fd0a4f28419497f9722a3daafe3b4186f6b6457e091a3600080546001600160a01b0319166001600160a01b0392909216919091179055565b7f000000000000000000000000000000000000000000000000000000000000000081565b3390565b61410d806200081583390190565b80356001600160a01b03811681146200056957600080fd5b919050565b60008083601f84011262000580578182fd5b50813567ffffffffffffffff81111562000598578182fd5b602083019150836020828501011115620005b157600080fd5b9250929050565b600060208284031215620005ca578081fd5b620005d58262000551565b9392505050565b600080600080600080600080600060c08a8c031215620005fa578485fd5b620006058a62000551565b98506200061560208b0162000551565b975060408a013580151581146200062a578586fd5b965060608a013567ffffffffffffffff8082111562000647578687fd5b620006558d838e016200056e565b909850965060808c01359150808211156200066e578586fd5b6200067c8d838e016200056e565b909650945060a08c013591508082111562000695578384fd5b50620006a48c828d016200056e565b915080935050809150509295985092959850929598565b600060208284031215620006cd578081fd5b5035919050565b60008284528282602086013780602084860101526020601f19601f85011685010190509392505050565b6001600160a01b0391909116815260200190565b6001600160a01b038a8116825289166020820152871515604082015260c06060820181905260009062000749908301888a620006d4565b82810360808401526200075e818789620006d4565b905082810360a084015262000775818587620006d4565b9c9b505050505050505050505050565b6020808252825182820181905260009190848201906040850190845b81811015620007c85783516001600160a01b031683529284019291840191600101620007a1565b50909695505050505050565b6020808252601f908201527f4d616e6167657220616c7265616479207573656420666f7220612066756e6400604082015260600190565b9081526020019056fe60e06040523480156200001157600080fd5b506040516200410d3803806200410d833981016040819052620000349162000351565b8251839083906200004d9060039060208501906200020a565b508051620000639060049060208401906200020a565b50506005805460ff19166012179055506200007d620001f0565b600560016101000a8154816001600160a01b0302191690836001600160a01b03160217905550620001ab600560019054906101000a90046001600160a01b03166001600160a01b031663f897a22b6040518163ffffffff1660e01b815260040160206040518083038186803b158015620000f657600080fd5b505afa1580156200010b573d6000803e3d6000fd5b505050506040513d601f19601f8201168201806040525081019062000131919062000421565b6001600160a01b031663313ce5676040518163ffffffff1660e01b815260040160206040518083038186803b1580156200016a57600080fd5b505afa1580156200017f573d6000803e3d6000fd5b505050506040513d601f19601f82011682018060405250810190620001a5919062000447565b620001f4565b6001600160601b0319606087811b821660805286901b1660a05283151560f81b60c0528051620001e390600a9060208401906200020a565b5050505050505062000483565b3390565b6005805460ff191660ff92909216919091179055565b828054600181600116156101000203166002900490600052602060002090601f0160209004810192826200024257600085556200028d565b82601f106200025d57805160ff19168380011785556200028d565b828001600101855582156200028d579182015b828111156200028d57825182559160200191906001019062000270565b506200029b9291506200029f565b5090565b5b808211156200029b5760008155600101620002a0565b600082601f830112620002c7578081fd5b81516001600160401b0380821115620002dc57fe5b6040516020601f8401601f1916820181018381118382101715620002fc57fe5b604052838252858401810187101562000313578485fd5b8492505b8383101562000336578583018101518284018201529182019162000317565b838311156200034757848185840101525b5095945050505050565b60008060008060008060c087890312156200036a578182fd5b865162000377816200046a565b60208801519096506200038a816200046a565b60408801519095508015158114620003a0578283fd5b60608801519094506001600160401b0380821115620003bd578384fd5b620003cb8a838b01620002b6565b94506080890151915080821115620003e1578384fd5b620003ef8a838b01620002b6565b935060a089015191508082111562000405578283fd5b506200041489828a01620002b6565b9150509295509295509295565b60006020828403121562000433578081fd5b815162000440816200046a565b9392505050565b60006020828403121562000459578081fd5b815160ff8116811462000440578182fd5b6001600160a01b03811681146200048057600080fd5b50565b60805160601c60a05160601c60c05160f81c613c0e620004ff600039806105cf5280611f8252508061089f528061102a52806113e352508061084d52806109ec5280610c405280610dad5280611125528061148e528061168c5280611cb95280611faa528061226f52806122e352806126115250613c0e6000f3fe608060405234801561001057600080fd5b50600436106102115760003560e01c806377bd510511610125578063a6891051116100ad578063c45a01551161007c578063c45a015514610410578063d33219b414610418578063dd62ed3e14610420578063f3aaaad714610433578063fd345c8a1461044657610211565b8063a6891051146103da578063a6f7f5d6146103e2578063a9059cbb146103ea578063a9476fa2146103fd57610211565b806388c24920116100f457806388c249201461038357806395d89b4114610396578063993d77af1461039e5780639b19251a146103a6578063a457c2d7146103c757610211565b806377bd51051461034d57806379aba36d146103555780638655bb4314610368578063877887821461037b57610211565b806339509351116101a85780635a1bd61c116101775780635a1bd61c146102ee578063609a4970146103015780636629e6591461031457806370a082311461032757806372ad692e1461033a57610211565b806339509351146102a9578063431b3244146102bc578063481c6a75146102d15780634c35833d146102e657610211565b806318160ddd116101e457806318160ddd1461027157806323b872dd14610279578063313ce5671461028c578063330d83fa146102a157610211565b806306fdde0314610216578063095ea7b3146102345780630ab51bac14610254578063158ef93e14610269575b600080fd5b61021e61046e565b60405161022b91906134ec565b60405180910390f35b6102476102423660046130a0565b610504565b60405161022b9190613497565b61025c610522565b60405161022b91906138c5565b610247610528565b61025c610536565b610247610287366004613060565b61053c565b6102946105c4565b60405161022b9190613957565b6102476105cd565b6102476102b73660046130a0565b6105f1565b6102cf6102ca36600461324b565b61063f565b005b6102d961084b565b60405161022b9190613416565b61025c61086f565b6102cf6102fc36600461330c565b610875565b6102cf61030f36600461320d565b61097d565b6102cf610322366004613174565b610bd1565b61025c610335366004612ff0565b610d8c565b6102cf610348366004613225565b610dab565b610247610f08565b6102cf6103633660046132e1565b610f11565b6102cf61037636600461329c565b611001565b61025c61111d565b6102cf61039136600461310b565b611123565b61021e6111dc565b61021e61123d565b6103b96103b4366004612ff0565b6112cb565b60405161022b9291906134a2565b6102476103d53660046130a0565b611379565b6102d96113e1565b61025c611405565b6102476103f83660046130a0565b61140b565b6102cf61040b3660046131be565b61141f565b6102d9611645565b61025c611659565b61025c61042e366004613028565b61165f565b6102cf6104413660046130cb565b61168a565b61045961045436600461320d565b6117a8565b60405161022b9998979695949392919061344b565b60038054604080516020601f60026000196101006001881615020190951694909404938401819004810282018101909252828152606093909290918301828280156104fa5780601f106104cf576101008083540402835291602001916104fa565b820191906000526020600020905b8154815290600101906020018083116104dd57829003601f168201915b5050505050905090565b6000610518610511611810565b8484611814565b5060015b92915050565b600b5481565b600954610100900460ff1681565b60025490565b6000610549848484611900565b6105b984610555611810565b6105b485604051806060016040528060288152602001613ad8602891396001600160a01b038a16600090815260016020526040812090610593611810565b6001600160a01b031681526020810191909152604001600020549190611a5b565b611814565b5060015b9392505050565b60055460ff1690565b7f000000000000000000000000000000000000000000000000000000000000000081565b60006105186105fe611810565b846105b4856001600061060f611810565b6001600160a01b03908116825260208083019390935260409182016000908120918c168152925290205490611af2565b600954610100900460ff1661066f5760405162461bcd60e51b8152600401610666906136e8565b60405180910390fd5b610677610536565b6106935760405162461bcd60e51b81526004016106669061360c565b60095460ff166106b55760405162461bcd60e51b81526004016106669061377d565b600c60006106c1611810565b6001600160a01b0316815260208101919091526040016000205460ff1615156001146106ff5760405162461bcd60e51b815260040161066690613711565b80804211156107205760405162461bcd60e51b81526004016106669061389e565b600061072a611810565b905060005b848110156107fd576000600d87878481811061074757fe5b905060200201358154811061075857fe5b6000918252602090912060099091020180549091506001600160a01b038481169116146107975760405162461bcd60e51b815260040161066690613810565b600881015460ff16156107bc5760405162461bcd60e51b815260040161066690613847565b426107d66006548360060154611af290919063ffffffff16565b11156107f45760405162461bcd60e51b8152600401610666906136c3565b5060010161072f565b50806001600160a01b03167fcfb9208347ccc39aaddc9759318936d34c26c238e90370ec8122a7eb251013b187878760405161083b939291906138ce565b60405180910390a2505050505050565b7f000000000000000000000000000000000000000000000000000000000000000081565b600e5481565b600954610100900460ff161561089d5760405162461bcd60e51b815260040161066690613871565b7f00000000000000000000000000000000000000000000000000000000000000006001600160a01b03166108cf611810565b6001600160a01b0316146108f55760405162461bcd60e51b8152600401610666906135e3565b81804211156109165760405162461bcd60e51b81526004016106669061389e565b6000871161092357600080fd5b60068b905560078a905560088990556009805460ff191689151517905561094b868686611b4c565b61095786886001611c24565b6109618383611f80565b50506009805461ff001916610100179055505050505050505050565b600954610100900460ff166109a45760405162461bcd60e51b8152600401610666906136e8565b6109ac610536565b6109c85760405162461bcd60e51b81526004016106669061360c565b60095460ff166109ea5760405162461bcd60e51b81526004016106669061377d565b7f00000000000000000000000000000000000000000000000000000000000000006001600160a01b0316610a1c611810565b6001600160a01b031614610a425760405162461bcd60e51b815260040161066690613570565b8080421115610a635760405162461bcd60e51b81526004016106669061389e565b600e54600114610a855760405162461bcd60e51b81526004016106669061373a565b6000600d600081548110610a9557fe5b60009182526020909120600990910201600881015490915060ff1615610acd5760405162461bcd60e51b815260040161066690613847565b42610ae76006548360060154611af290919063ffffffff16565b1115610b055760405162461bcd60e51b8152600401610666906136c3565b610b0f60006120c8565b60088101805460ff19166001179055600e805460001901905580546005820154610b42916001600160a01b03169061239c565b600b80546000918290558254600584015460405192936001600160a01b03909216927f484c40561359f3e3b8be9101897f8680aa82fbe1df9fd9038e0dbc628403264692610b93929186919061391e565b60405180910390a2600080516020613b6a833981519152600b54610bb5610536565b604051610bc3929190613910565b60405180910390a150505050565b600954610100900460ff16610bf85760405162461bcd60e51b8152600401610666906136e8565b610c00610536565b610c1c5760405162461bcd60e51b81526004016106669061360c565b60095460ff16610c3e5760405162461bcd60e51b81526004016106669061377d565b7f00000000000000000000000000000000000000000000000000000000000000006001600160a01b0316610c70611810565b6001600160a01b031614610c965760405162461bcd60e51b815260040161066690613570565b8080421115610cb75760405162461bcd60e51b81526004016106669061389e565b60005b83811015610d71576000600d868684818110610cd257fe5b9050602002013581548110610ce357fe5b60009182526020909120600990910201600881015490915060ff1615610d1b5760405162461bcd60e51b815260040161066690613847565b60078101544290610d2f9062278d00611af2565b1115610d4d5760405162461bcd60e51b8152600401610666906134ff565b610d68868684818110610d5c57fe5b905060200201356120c8565b50600101610cba565b50600080516020613b6a833981519152600b54610bb5610536565b6001600160a01b0381166000908152602081905260409020545b919050565b7f00000000000000000000000000000000000000000000000000000000000000006001600160a01b0316610ddd611810565b6001600160a01b031614610e035760405162461bcd60e51b815260040161066690613570565b8080421115610e245760405162461bcd60e51b81526004016106669061389e565b610ec1308486600560019054906101000a90046001600160a01b03166001600160a01b031663f897a22b6040518163ffffffff1660e01b815260040160206040518083038186803b158015610e7857600080fd5b505afa158015610e8c573d6000803e3d6000fd5b505050506040513d601f19601f82011682018060405250810190610eb0919061300c565b6001600160a01b0316929190612498565b826001600160a01b03167fc0819c13be868895eb93e40eaceb96de976442fa1d404e5c55f14bb65a8c489a85604051610efa91906138c5565b60405180910390a250505050565b60095460ff1681565b600954610100900460ff16610f385760405162461bcd60e51b8152600401610666906136e8565b610f40610536565b610f5c5760405162461bcd60e51b81526004016106669061360c565b60095460ff16610f7e5760405162461bcd60e51b81526004016106669061377d565b600c6000610f8a611810565b6001600160a01b0316815260208101919091526040016000205460ff161515600114610fc85760405162461bcd60e51b815260040161066690613711565b8080421115610fe95760405162461bcd60e51b81526004016106669061389e565b610ffb610ff4611810565b8585611c24565b50505050565b600954610100900460ff166110285760405162461bcd60e51b8152600401610666906136e8565b7f00000000000000000000000000000000000000000000000000000000000000006001600160a01b031661105a611810565b6001600160a01b0316146110805760405162461bcd60e51b8152600401610666906135e3565b82804211156110a15760405162461bcd60e51b81526004016106669061389e565b84600b819055506110e88484848080601f016020809104026020016040519081016040528093929190818152602001838380828437600092019190915250611f8092505050565b600080516020613b6a83398151915285611100610536565b60405161110e929190613910565b60405180910390a15050505050565b60085481565b7f00000000000000000000000000000000000000000000000000000000000000006001600160a01b0316611155611810565b6001600160a01b03161461117b5760405162461bcd60e51b815260040161066690613570565b60005b838110156111d5576111cd85858381811061119557fe5b90506020020160208101906111aa9190612ff0565b8484848181106111b657fe5b90506020028101906111c89190613965565b611b4c565b60010161117e565b5050505050565b60048054604080516020601f60026000196101006001881615020190951694909404938401819004810282018101909252828152606093909290918301828280156104fa5780601f106104cf576101008083540402835291602001916104fa565b600a805460408051602060026001851615610100026000190190941693909304601f810184900484028201840190925281815292918301828280156112c35780601f10611298576101008083540402835291602001916112c3565b820191906000526020600020905b8154815290600101906020018083116112a657829003601f168201915b505050505081565b600c602090815260009182526040918290208054600180830180548651600261010094831615949094026000190190911692909204601f810186900486028301860190965285825260ff90921694929390929083018282801561136f5780601f106113445761010080835404028352916020019161136f565b820191906000526020600020905b81548152906001019060200180831161135257829003601f168201915b5050505050905082565b6000610518611386611810565b846105b485604051806060016040528060258152602001613bb460259139600160006113b0611810565b6001600160a01b03908116825260208083019390935260409182016000908120918d16815292529020549190611a5b565b7f000000000000000000000000000000000000000000000000000000000000000081565b60075481565b6000610518611418611810565b8484611900565b600954610100900460ff166114465760405162461bcd60e51b8152600401610666906136e8565b61144e610536565b61146a5760405162461bcd60e51b81526004016106669061360c565b60095460ff1661148c5760405162461bcd60e51b81526004016106669061377d565b7f00000000000000000000000000000000000000000000000000000000000000006001600160a01b03166114be611810565b6001600160a01b0316146114e45760405162461bcd60e51b815260040161066690613570565b80804211156115055760405162461bcd60e51b81526004016106669061389e565b6000600d8686600081811061151657fe5b905060200201358154811061152757fe5b600091825260208220600990910201546001600160a01b03169150805b868110156115eb576000600d89898481811061155c57fe5b905060200201358154811061156d57fe5b6000918252602090912060099091020180549091506001600160a01b038581169116146115ac5760405162461bcd60e51b815260040161066690613634565b6115bb898984818110610d5c57fe5b6115e0836115da8b8b868181106115ce57fe5b905060200201356124f2565b90611af2565b925050600101611544565b508481101561160c5760405162461bcd60e51b8152600401610666906137b4565b600080516020613b6a833981519152600b54611626610536565b604051611634929190613910565b60405180910390a150505050505050565b60055461010090046001600160a01b031681565b60065481565b6001600160a01b03918216600090815260016020908152604080832093909416825291909152205490565b7f00000000000000000000000000000000000000000000000000000000000000006001600160a01b03166116bc611810565b6001600160a01b0316146116e25760405162461bcd60e51b815260040161066690613570565b60005b818110156117a357600c60008484848181106116fd57fe5b90506020020160208101906117129190612ff0565b6001600160a01b0316815260208101919091526040016000908120805460ff19168155906117436001830182612dff565b505082828281811061175157fe5b90506020020160208101906117669190612ff0565b6001600160a01b03167fffa4e6181777692565cf28528fc88fd1516ea86b56da075235fa575af6a4b85560405160405180910390a26001016116e5565b505050565b600d81815481106117b857600080fd5b60009182526020909120600990910201805460018201546002830154600384015460048501546005860154600687015460078801546008909801546001600160a01b0390971698509496939592949193909260ff1689565b3390565b6001600160a01b0383166118595760405162461bcd60e51b8152600401808060200182810382526024815260200180613b466024913960400191505060405180910390fd5b6001600160a01b03821661189e5760405162461bcd60e51b8152600401808060200182810382526022815260200180613a056022913960400191505060405180910390fd5b6001600160a01b03808416600081815260016020908152604080832094871680845294825291829020859055815185815291517f8c5be1e5ebec7d5bd14f71427d1e84f3dd0314c0f7b2291e5b200ac8c7c3b9259281900390910190a3505050565b6001600160a01b0383166119455760405162461bcd60e51b8152600401808060200182810382526025815260200180613b216025913960400191505060405180910390fd5b6001600160a01b03821661198a5760405162461bcd60e51b81526004018080602001828103825260238152602001806139c06023913960400191505060405180910390fd5b6119958383836126c2565b6119d281604051806060016040528060268152602001613a27602691396001600160a01b0386166000908152602081905260409020549190611a5b565b6001600160a01b038085166000908152602081905260408082209390935590841681522054611a019082611af2565b6001600160a01b038084166000818152602081815260409182902094909455805185815290519193928716927fddf252ad1be2c89b69c2b068fc378daa952ba7f163c4a11628f55a4df523b3ef92918290030190a3505050565b60008184841115611aea5760405162461bcd60e51b81526004018080602001828103825283818151815260200191508051906020019080838360005b83811015611aaf578181015183820152602001611a97565b50505050905090810190601f168015611adc5780820380516001836020036101000a031916815260200191505b509250505060405180910390fd5b505050900390565b6000828201838110156105bd576040805162461bcd60e51b815260206004820152601b60248201527f536166654d6174683a206164646974696f6e206f766572666c6f770000000000604482015290519081900360640190fd5b604051806040016040528060011515815260200183838080601f01602080910402602001604051908101604052809392919081815260200183838082843760009201829052509390945250506001600160a01b0386168152600c602090815260409091208351815460ff1916901515178155838201518051919350611bd8926001850192910190612e46565b50905050826001600160a01b03167f3feccebfacde99065c8796a177e49cc8db48e50a6034f441dd9650d7e5b17fa88383604051611c179291906134bd565b60405180910390a2505050565b600082118015611c345750600081115b611c505760405162461bcd60e51b8152600401610666906137eb565b600d54600081611c6c57611c65846064612706565b9050611c8d565b611c8a600b54611c84611c7d610536565b8790612706565b9061275f565b90505b82811015611cad5760405162461bcd60e51b81526004016106669061368c565b8115611d2757611d27857f000000000000000000000000000000000000000000000000000000000000000086600560019054906101000a90046001600160a01b03166001600160a01b031663f897a22b6040518163ffffffff1660e01b815260040160206040518083038186803b158015610e7857600080fd5b600b54611d349085611af2565b600b55611d4185826127a1565b60408051610120810182526001600160a01b03878116808352602083018881526000848601818152606086018281526080870189815260a088018a81524260c08a0181815260e08b019182526101008b01878152600d805460018082018355919099529b517fd7b6990105719101dabeb77144f2a3385c8033acd3af97e9423a695e81ad1eb5600990990298890180546001600160a01b03191691909c1617909a5596517fd7b6990105719101dabeb77144f2a3385c8033acd3af97e9423a695e81ad1eb687015593517fd7b6990105719101dabeb77144f2a3385c8033acd3af97e9423a695e81ad1eb786015591517fd7b6990105719101dabeb77144f2a3385c8033acd3af97e9423a695e81ad1eb8850155517fd7b6990105719101dabeb77144f2a3385c8033acd3af97e9423a695e81ad1eb9840155517fd7b6990105719101dabeb77144f2a3385c8033acd3af97e9423a695e81ad1eba83015591517fd7b6990105719101dabeb77144f2a3385c8033acd3af97e9423a695e81ad1ebb82015590517fd7b6990105719101dabeb77144f2a3385c8033acd3af97e9423a695e81ad1ebc82015591517fd7b6990105719101dabeb77144f2a3385c8033acd3af97e9423a695e81ad1ebd909201805460ff191692151592909217909155600e805490920190915590517f9bce88ff835d9d8831ccf5c7e04a2533f68510314393b3a54f990dea62e7134e90611f5e9087908590879061391e565b60405180910390a2600080516020613b6a833981519152600b54611100610536565b7f0000000000000000000000000000000000000000000000000000000000000000156120c45760007f0000000000000000000000000000000000000000000000000000000000000000600b5484604051602001611fdf9392919061342a565b604051602081830303815290604052805190602001209050600061200c8361200684612891565b906128e2565b9050600560019054906101000a90046001600160a01b03166001600160a01b0316638da5cb5b6040518163ffffffff1660e01b815260040160206040518083038186803b15801561205c57600080fd5b505afa158015612070573d6000803e3d6000fd5b505050506040513d601f19601f82011682018060405250810190612094919061300c565b6001600160a01b0316816001600160a01b031614610ffb5760405162461bcd60e51b815260040161066690613547565b5050565b6000600d82815481106120d757fe5b90600052602060002090600902019050600061211d644979cb9e00611c848460050154612117600754612117886006015442612ac990919063ffffffff16565b90612706565b90506000612129610536565b9050600061214682611c84600b548661270690919063ffffffff16565b9050600061216783611c848760050154600b5461270690919063ffffffff16565b90506000856001015482111561219d5761219a612710611c846008546121178a6001015487612ac990919063ffffffff16565b90505b60008087600301548311156121d35760038801546121bc908490612ac9565b600b549092506121d090611c848885612706565b90505b60028801546121e29086611af2565b600289015560038801546121f69083611af2565b60038901556005880154612216908290612210908a612ac9565b90612ac9565b60058901554260078901558754612236906001600160a01b03168861239c565b875461224b906001600160a01b03168261239c565b6122648261221087600b54612ac990919063ffffffff16565b600b819055506122de7f00000000000000000000000000000000000000000000000000000000000000003087600560019054906101000a90046001600160a01b03166001600160a01b031663f897a22b6040518163ffffffff1660e01b815260040160206040518083038186803b158015610e7857600080fd5b6123527f00000000000000000000000000000000000000000000000000000000000000003084600560019054906101000a90046001600160a01b03166001600160a01b031663f897a22b6040518163ffffffff1660e01b815260040160206040518083038186803b158015610e7857600080fd5b7f60335fc6da5dde7dc66197a635e02eb0dafc452a299f77200b64358c94cdb616878287858d604051612389959493929190613934565b60405180910390a1505050505050505050565b6001600160a01b0382166123e15760405162461bcd60e51b8152600401808060200182810382526021815260200180613b006021913960400191505060405180910390fd5b6123ed826000836126c2565b61242a816040518060600160405280602281526020016139e3602291396001600160a01b0385166000908152602081905260409020549190611a5b565b6001600160a01b0383166000908152602081905260409020556002546124509082612ac9565b6002556040805182815290516000916001600160a01b038516917fddf252ad1be2c89b69c2b068fc378daa952ba7f163c4a11628f55a4df523b3ef9181900360200190a35050565b604080516001600160a01b0380861660248301528416604482015260648082018490528251808303909101815260849091019091526020810180516001600160e01b03166323b872dd60e01b179052610ffb908590612b0b565b600080600d838154811061250257fe5b9060005260206000209060090201905082600014156125335760405162461bcd60e51b815260040161066690613595565b600881015460ff16156125585760405162461bcd60e51b815260040161066690613847565b426125726006548360060154611af290919063ffffffff16565b11156125905760405162461bcd60e51b8152600401610666906136c3565b60088101805460ff19166001179055600e805460001901905560006125c76125b6610536565b600b546005850154611c8491612706565b825460058401549192506125e6916001600160a01b039091169061239c565b600b546125f39082612ac9565b600b5581546005546040805163f897a22b60e01b8152905161266e937f0000000000000000000000000000000000000000000000000000000000000000936001600160a01b039182169387936101009092049092169163f897a22b916004808301926020929190829003018186803b158015610e7857600080fd5b815460058301546040516001600160a01b03909216917f484c40561359f3e3b8be9101897f8680aa82fbe1df9fd9038e0dbc6284032646916126b3918590899061391e565b60405180910390a29392505050565b6126cd8383836117a3565b6001600160a01b03831615806126ea57506001600160a01b038216155b6117a35760405162461bcd60e51b815260040161066690613663565b6000826127155750600061051c565b8282028284828161272257fe5b04146105bd5760405162461bcd60e51b8152600401808060200182810382526021815260200180613ab76021913960400191505060405180910390fd5b60006105bd83836040518060400160405280601a81526020017f536166654d6174683a206469766973696f6e206279207a65726f000000000000815250612bbc565b6001600160a01b0382166127fc576040805162461bcd60e51b815260206004820152601f60248201527f45524332303a206d696e7420746f20746865207a65726f206164647265737300604482015290519081900360640190fd5b612808600083836126c2565b6002546128159082611af2565b6002556001600160a01b03821660009081526020819052604090205461283b9082611af2565b6001600160a01b0383166000818152602081815260408083209490945583518581529351929391927fddf252ad1be2c89b69c2b068fc378daa952ba7f163c4a11628f55a4df523b3ef9281900390910190a35050565b604080517f19457468657265756d205369676e6564204d6573736167653a0a333200000000602080830191909152603c8083019490945282518083039094018452605c909101909152815191012090565b6000815160411461293a576040805162461bcd60e51b815260206004820152601f60248201527f45434453413a20696e76616c6964207369676e6174757265206c656e67746800604482015290519081900360640190fd5b60208201516040830151606084015160001a7f7fffffffffffffffffffffffffffffff5d576e7357a4501ddfe92f46681b20a08211156129ab5760405162461bcd60e51b8152600401808060200182810382526022815260200180613a4d6022913960400191505060405180910390fd5b8060ff16601b14806129c057508060ff16601c145b6129fb5760405162461bcd60e51b8152600401808060200182810382526022815260200180613a956022913960400191505060405180910390fd5b600060018783868660405160008152602001604052604051808581526020018460ff1681526020018381526020018281526020019450505050506020604051602081039080840390855afa158015612a57573d6000803e3d6000fd5b5050604051601f1901519150506001600160a01b038116612abf576040805162461bcd60e51b815260206004820152601860248201527f45434453413a20696e76616c6964207369676e61747572650000000000000000604482015290519081900360640190fd5b9695505050505050565b60006105bd83836040518060400160405280601e81526020017f536166654d6174683a207375627472616374696f6e206f766572666c6f770000815250611a5b565b6000612b60826040518060400160405280602081526020017f5361666545524332303a206c6f772d6c6576656c2063616c6c206661696c6564815250856001600160a01b0316612c219092919063ffffffff16565b8051909150156117a357808060200190516020811015612b7f57600080fd5b50516117a35760405162461bcd60e51b815260040180806020018281038252602a815260200180613b8a602a913960400191505060405180910390fd5b60008183612c0b5760405162461bcd60e51b8152602060048201818152835160248401528351909283926044909101919085019080838360008315611aaf578181015183820152602001611a97565b506000838581612c1757fe5b0495945050505050565b6060612c308484600085612c38565b949350505050565b606082471015612c795760405162461bcd60e51b8152600401808060200182810382526026815260200180613a6f6026913960400191505060405180910390fd5b612c8285612d93565b612cd3576040805162461bcd60e51b815260206004820152601d60248201527f416464726573733a2063616c6c20746f206e6f6e2d636f6e7472616374000000604482015290519081900360640190fd5b600080866001600160a01b031685876040518082805190602001908083835b60208310612d115780518252601f199092019160209182019101612cf2565b6001836020036101000a03801982511681845116808217855250505050505090500191505060006040518083038185875af1925050503d8060008114612d73576040519150601f19603f3d011682016040523d82523d6000602084013e612d78565b606091505b5091509150612d88828286612d99565b979650505050505050565b3b151590565b60608315612da85750816105bd565b825115612db85782518084602001fd5b60405162461bcd60e51b8152602060048201818152845160248401528451859391928392604401919085019080838360008315611aaf578181015183820152602001611a97565b50805460018160011615610100020316600290046000825580601f10612e255750612e43565b601f016020900490600052602060002090810190612e439190612ed2565b50565b828054600181600116156101000203166002900490600052602060002090601f016020900481019282612e7c5760008555612ec2565b82601f10612e9557805160ff1916838001178555612ec2565b82800160010185558215612ec2579182015b82811115612ec2578251825591602001919060010190612ea7565b50612ece929150612ed2565b5090565b5b80821115612ece5760008155600101612ed3565b8035610da6816139aa565b60008083601f840112612f03578081fd5b50813567ffffffffffffffff811115612f1a578182fd5b6020830191508360208083028501011115612f3457600080fd5b9250929050565b60008083601f840112612f4c578182fd5b50813567ffffffffffffffff811115612f63578182fd5b602083019150836020828501011115612f3457600080fd5b600082601f830112612f8b578081fd5b813567ffffffffffffffff80821115612fa057fe5b604051601f8301601f191681016020018281118282101715612fbe57fe5b604052828152848301602001861015612fd5578384fd5b82602086016020830137918201602001929092529392505050565b600060208284031215613001578081fd5b81356105bd816139aa565b60006020828403121561301d578081fd5b81516105bd816139aa565b6000806040838503121561303a578081fd5b8235613045816139aa565b91506020830135613055816139aa565b809150509250929050565b600080600060608486031215613074578081fd5b833561307f816139aa565b9250602084013561308f816139aa565b929592945050506040919091013590565b600080604083850312156130b2578182fd5b82356130bd816139aa565b946020939093013593505050565b600080602083850312156130dd578182fd5b823567ffffffffffffffff8111156130f3578283fd5b6130ff85828601612ef2565b90969095509350505050565b60008060008060408587031215613120578081fd5b843567ffffffffffffffff80821115613137578283fd5b61314388838901612ef2565b9096509450602087013591508082111561315b578283fd5b5061316887828801612ef2565b95989497509550505050565b600080600060408486031215613188578283fd5b833567ffffffffffffffff81111561319e578384fd5b6131aa86828701612ef2565b909790965060209590950135949350505050565b600080600080606085870312156131d3578384fd5b843567ffffffffffffffff8111156131e9578485fd5b6131f587828801612ef2565b90989097506020870135966040013595509350505050565b60006020828403121561321e578081fd5b5035919050565b600080600060608486031215613239578081fd5b83359250602084013561308f816139aa565b60008060008060608587031215613260578182fd5b84359350602085013567ffffffffffffffff81111561327d578283fd5b61328987828801612ef2565b9598909750949560400135949350505050565b600080600080606085870312156132b1578182fd5b8435935060208501359250604085013567ffffffffffffffff8111156132d5578283fd5b61316887828801612f3b565b6000806000606084860312156132f5578081fd5b505081359360208301359350604090920135919050565b6000806000806000806000806000806101208b8d03121561332b578788fd5b8a35995060208b0135985060408b0135975060608b0135801515811461334f578687fd5b965060808b0135955061336460a08c01612ee7565b945060c08b013567ffffffffffffffff80821115613380578586fd5b61338c8e838f01612f3b565b909650945060e08d013593506101008d01359150808211156133ac578283fd5b506133b98d828e01612f7b565b9150509295989b9194979a5092959850565b60008151808452815b818110156133f0576020818501810151868301820152016133d4565b818111156134015782602083870101525b50601f01601f19169290920160200192915050565b6001600160a01b0391909116815260200190565b6001600160a01b039390931683526020830191909152604082015260600190565b6001600160a01b03999099168952602089019790975260408801959095526060870193909352608086019190915260a085015260c084015260e083015215156101008201526101200190565b901515815260200190565b6000831515825260406020830152612c3060408301846133cb565b60006020825282602083015282846040840137818301604090810191909152601f909201601f19160101919050565b6000602082526105bd60208301846133cb565b60208082526028908201527f466565206c61737420636f6c6c6563746564206c657373207468616e2061206d6040820152676f6e74682061676f60c01b606082015260800190565b6020808252600f908201526e0a6d2cedccae440dad2e6dac2e8c6d608b1b604082015260600190565b6020808252600b908201526a2737ba1036b0b730b3b2b960a91b604082015260600190565b6020808252602e908201527f496e697469616c20696e766573746d656e74206d75737420626520726564656560408201526d6d65642073657061726174656c7960901b606082015260800190565b6020808252600f908201526e2737ba1020aaa6903ab83230ba32b960891b604082015260600190565b6020808252600e908201526d119d5b99081a5cc818db1bdcd95960921b604082015260600190565b6020808252601590820152742737ba10333937b69037b7329034b73b32b9ba37b960591b604082015260600190565b6020808252600f908201526e21b0b73737ba103a3930b739b332b960891b604082015260600190565b60208082526019908201527f4c657373207468616e206d696e2066756e6420616d6f756e7400000000000000604082015260600190565b6020808252600b908201526a151a5b59481b1bd8dad95960aa1b604082015260600190565b6020808252600f908201526e139bdd081a5b9a5d1a585b1a5e9959608a1b604082015260600190565b6020808252600f908201526e139bdd081dda1a5d195b1a5cdd1959608a1b604082015260600190565b60208082526023908201527f4d7573742072656465656d206f7468657220696e766573746d656e74732066696040820152621c9cdd60ea1b606082015260800190565b60208082526018908201527f496e766573746d656e7473206172652064697361626c65640000000000000000604082015260600190565b60208082526018908201527f4c657373207468616e206d696e2075736420616d6f756e740000000000000000604082015260600190565b6020808252600b908201526a0416d6f756e7420697320360ac1b604082015260600190565b60208082526017908201527f4e6f742073656e646572277320696e766573746d656e74000000000000000000604082015260600190565b60208082526010908201526f105b1c9958591e481c995919595b595960821b604082015260600190565b602080825260139082015272105b1c9958591e481a5b9a5d1a585b1a5e9959606a1b604082015260600190565b6020808252600d908201526c5061737420646561646c696e6560981b604082015260600190565b90815260200190565b838152604060208201819052810182905260006001600160fb1b038311156138f4578081fd5b6020830280856060850137919091016060019081529392505050565b918252602082015260400190565b9283526020830191909152604082015260600190565b948552602085019390935260408401919091526060830152608082015260a00190565b60ff91909116815260200190565b6000808335601e1984360301811261397b578283fd5b83018035915067ffffffffffffffff821115613995578283fd5b602001915036819003821315612f3457600080fd5b6001600160a01b0381168114612e4357600080fdfe45524332303a207472616e7366657220746f20746865207a65726f206164647265737345524332303a206275726e20616d6f756e7420657863656564732062616c616e636545524332303a20617070726f766520746f20746865207a65726f206164647265737345524332303a207472616e7366657220616d6f756e7420657863656564732062616c616e636545434453413a20696e76616c6964207369676e6174757265202773272076616c7565416464726573733a20696e73756666696369656e742062616c616e636520666f722063616c6c45434453413a20696e76616c6964207369676e6174757265202776272076616c7565536166654d6174683a206d756c7469706c69636174696f6e206f766572666c6f7745524332303a207472616e7366657220616d6f756e74206578636565647320616c6c6f77616e636545524332303a206275726e2066726f6d20746865207a65726f206164647265737345524332303a207472616e736665722066726f6d20746865207a65726f206164647265737345524332303a20617070726f76652066726f6d20746865207a65726f20616464726573731e1223c1f6274c6d64fdb08c485e192bd2896c9abf70e840e199ac1f54d6d1d55361666545524332303a204552433230206f7065726174696f6e20646964206e6f74207375636365656445524332303a2064656372656173656420616c6c6f77616e63652062656c6f77207a65726fa26469706673582212202a0a82cc1021dadaae8555f1bd6961c37350e7858d84212f712f8952f3fa89b564736f6c634300070600334f776e61626c653a206e6577206f776e657220697320746865207a65726f2061646472657373a26469706673582212202a00ecb6416a55ae444c827f258f0f1903d60f633de0a5f2cc59b6b48c95994064736f6c63430007060033",
  "linkReferences": {},
  "deployedLinkReferences": {}
}