{
  "_format": "hh-sol-artifact-1",
  "contractName": "SMFund",
  "sourceName": "contracts/SMFund.sol",
  "abi": [
    {
      "inputs": [
        {
          "internalType": "address",
          "name": "_manager",
          "type": "address"
        },
        {
          "internalType": "address",
          "name": "_aumUpdater",
          "type": "address"
        },
        {
          "internalType": "bool",
          "name": "_signedAum",
          "type": "bool"
        },
        {
          "internalType": "string",
          "name": "name",
          "type": "string"
        },
        {
          "internalType": "string",
          "name": "symbol",
          "type": "string"
        },
        {
          "internalType": "string",
          "name": "_logoUrl",
          "type": "string"
        }
      ],
      "stateMutability": "nonpayable",
      "type": "constructor"
    },
    {
      "anonymous": false,
      "inputs": [
        {
          "indexed": true,
          "internalType": "address",
          "name": "owner",
          "type": "address"
        },
        {
          "indexed": true,
          "internalType": "address",
          "name": "spender",
          "type": "address"
        },
        {
          "indexed": false,
          "internalType": "uint256",
          "name": "value",
          "type": "uint256"
        }
      ],
      "name": "Approval",
      "type": "event"
    },
    {
      "anonymous": false,
      "inputs": [
        {
          "indexed": true,
          "internalType": "address",
          "name": "investor",
          "type": "address"
        }
      ],
      "name": "Blacklisted",
      "type": "event"
    },
    {
      "anonymous": false,
      "inputs": [
        {
          "indexed": false,
          "internalType": "uint256",
          "name": "fundAmountManagement",
          "type": "uint256"
        },
        {
          "indexed": false,
          "internalType": "uint256",
          "name": "fundAmountPerformance",
          "type": "uint256"
        },
        {
          "indexed": false,
          "internalType": "uint256",
          "name": "usdAmountManagement",
          "type": "uint256"
        },
        {
          "indexed": false,
          "internalType": "uint256",
          "name": "usdAmountPerformance",
          "type": "uint256"
        },
        {
          "indexed": false,
          "internalType": "uint256",
          "name": "investmentId",
          "type": "uint256"
        }
      ],
      "name": "FeesCollected",
      "type": "event"
    },
    {
      "anonymous": false,
      "inputs": [
        {
          "indexed": true,
          "internalType": "address",
          "name": "to",
          "type": "address"
        },
        {
          "indexed": false,
          "internalType": "uint256",
          "name": "usdAmount",
          "type": "uint256"
        }
      ],
      "name": "FeesWithdrawn",
      "type": "event"
    },
    {
      "anonymous": false,
      "inputs": [
        {
          "indexed": true,
          "internalType": "address",
          "name": "investor",
          "type": "address"
        },
        {
          "indexed": false,
          "internalType": "uint256",
          "name": "usdAmount",
          "type": "uint256"
        },
        {
          "indexed": false,
          "internalType": "uint256",
          "name": "fundAmount",
          "type": "uint256"
        },
        {
          "indexed": false,
          "internalType": "uint256",
          "name": "investmentId",
          "type": "uint256"
        }
      ],
      "name": "Invested",
      "type": "event"
    },
    {
      "anonymous": false,
      "inputs": [
        {
          "indexed": false,
          "internalType": "uint256",
          "name": "aum",
          "type": "uint256"
        },
        {
          "indexed": false,
          "internalType": "uint256",
          "name": "totalSupply",
          "type": "uint256"
        }
      ],
      "name": "NavUpdated",
      "type": "event"
    },
    {
      "anonymous": false,
      "inputs": [
        {
          "indexed": true,
          "internalType": "address",
          "name": "investor",
          "type": "address"
        },
        {
          "indexed": false,
          "internalType": "uint256",
          "name": "fundAmount",
          "type": "uint256"
        },
        {
          "indexed": false,
          "internalType": "uint256",
          "name": "usdAmount",
          "type": "uint256"
        },
        {
          "indexed": false,
          "internalType": "uint256",
          "name": "investmentId",
          "type": "uint256"
        }
      ],
      "name": "Redeemed",
      "type": "event"
    },
    {
      "anonymous": false,
      "inputs": [
        {
          "indexed": true,
          "internalType": "address",
          "name": "investor",
          "type": "address"
        },
        {
          "indexed": false,
          "internalType": "uint256",
          "name": "minUsdAmount",
          "type": "uint256"
        },
        {
          "indexed": false,
          "internalType": "uint256[]",
          "name": "investmentIds",
          "type": "uint256[]"
        }
      ],
      "name": "RedemptionRequested",
      "type": "event"
    },
    {
      "anonymous": false,
      "inputs": [
        {
          "indexed": true,
          "internalType": "address",
          "name": "from",
          "type": "address"
        },
        {
          "indexed": true,
          "internalType": "address",
          "name": "to",
          "type": "address"
        },
        {
          "indexed": false,
          "internalType": "uint256",
          "name": "value",
          "type": "uint256"
        }
      ],
      "name": "Transfer",
      "type": "event"
    },
    {
      "anonymous": false,
      "inputs": [
        {
          "indexed": true,
          "internalType": "address",
          "name": "investor",
          "type": "address"
        },
        {
          "indexed": false,
          "internalType": "string",
          "name": "name",
          "type": "string"
        }
      ],
      "name": "Whitelisted",
      "type": "event"
    },
    {
      "inputs": [],
      "name": "activeInvestmentCount",
      "outputs": [
        {
          "internalType": "uint256",
          "name": "",
          "type": "uint256"
        }
      ],
      "stateMutability": "view",
      "type": "function"
    },
    {
      "inputs": [
        {
          "internalType": "address",
          "name": "owner",
          "type": "address"
        },
        {
          "internalType": "address",
          "name": "spender",
          "type": "address"
        }
      ],
      "name": "allowance",
      "outputs": [
        {
          "internalType": "uint256",
          "name": "",
          "type": "uint256"
        }
      ],
      "stateMutability": "view",
      "type": "function"
    },
    {
      "inputs": [
        {
          "internalType": "address",
          "name": "spender",
          "type": "address"
        },
        {
          "internalType": "uint256",
          "name": "amount",
          "type": "uint256"
        }
      ],
      "name": "approve",
      "outputs": [
        {
          "internalType": "bool",
          "name": "",
          "type": "bool"
        }
      ],
      "stateMutability": "nonpayable",
      "type": "function"
    },
    {
      "inputs": [],
      "name": "aum",
      "outputs": [
        {
          "internalType": "uint256",
          "name": "",
          "type": "uint256"
        }
      ],
      "stateMutability": "view",
      "type": "function"
    },
    {
      "inputs": [],
      "name": "aumUpdater",
      "outputs": [
        {
          "internalType": "address",
          "name": "",
          "type": "address"
        }
      ],
      "stateMutability": "view",
      "type": "function"
    },
    {
      "inputs": [
        {
          "internalType": "address",
          "name": "account",
          "type": "address"
        }
      ],
      "name": "balanceOf",
      "outputs": [
        {
          "internalType": "uint256",
          "name": "",
          "type": "uint256"
        }
      ],
      "stateMutability": "view",
      "type": "function"
    },
    {
      "inputs": [
        {
          "internalType": "address[]",
          "name": "investors",
          "type": "address[]"
        }
      ],
      "name": "blacklistMulti",
      "outputs": [],
      "stateMutability": "nonpayable",
      "type": "function"
    },
    {
      "inputs": [
        {
          "internalType": "uint256",
          "name": "deadline",
          "type": "uint256"
        }
      ],
      "name": "closeFund",
      "outputs": [],
      "stateMutability": "nonpayable",
      "type": "function"
    },
    {
      "inputs": [],
      "name": "decimals",
      "outputs": [
        {
          "internalType": "uint8",
          "name": "",
          "type": "uint8"
        }
      ],
      "stateMutability": "view",
      "type": "function"
    },
    {
      "inputs": [
        {
          "internalType": "address",
          "name": "spender",
          "type": "address"
        },
        {
          "internalType": "uint256",
          "name": "subtractedValue",
          "type": "uint256"
        }
      ],
      "name": "decreaseAllowance",
      "outputs": [
        {
          "internalType": "bool",
          "name": "",
          "type": "bool"
        }
      ],
      "stateMutability": "nonpayable",
      "type": "function"
    },
    {
      "inputs": [],
      "name": "factory",
      "outputs": [
        {
          "internalType": "contract SMFundFactory",
          "name": "",
          "type": "address"
        }
      ],
      "stateMutability": "view",
      "type": "function"
    },
    {
      "inputs": [
        {
          "internalType": "address",
          "name": "spender",
          "type": "address"
        },
        {
          "internalType": "uint256",
          "name": "addedValue",
          "type": "uint256"
        }
      ],
      "name": "increaseAllowance",
      "outputs": [
        {
          "internalType": "bool",
          "name": "",
          "type": "bool"
        }
      ],
      "stateMutability": "nonpayable",
      "type": "function"
    },
    {
      "inputs": [
        {
          "internalType": "uint256",
          "name": "_timelock",
          "type": "uint256"
        },
        {
          "internalType": "uint256",
          "name": "_managementFee",
          "type": "uint256"
        },
        {
          "internalType": "uint256",
          "name": "_performanceFee",
          "type": "uint256"
        },
        {
          "internalType": "bool",
          "name": "_investmentsEnabled",
          "type": "bool"
        },
        {
          "internalType": "uint256",
          "name": "initialAum",
          "type": "uint256"
        },
        {
          "internalType": "address",
          "name": "initialInvestor",
          "type": "address"
        },
        {
          "internalType": "string",
          "name": "initialInvestorName",
          "type": "string"
        },
        {
          "internalType": "uint256",
          "name": "deadline",
          "type": "uint256"
        },
        {
          "internalType": "bytes",
          "name": "signature",
          "type": "bytes"
        }
      ],
      "name": "initialize",
      "outputs": [],
      "stateMutability": "nonpayable",
      "type": "function"
    },
    {
      "inputs": [],
      "name": "initialized",
      "outputs": [
        {
          "internalType": "bool",
          "name": "",
          "type": "bool"
        }
      ],
      "stateMutability": "view",
      "type": "function"
    },
    {
      "inputs": [
        {
          "internalType": "uint256",
          "name": "usdAmount",
          "type": "uint256"
        },
        {
          "internalType": "uint256",
          "name": "minFundAmount",
          "type": "uint256"
        },
        {
          "internalType": "uint256",
          "name": "deadline",
          "type": "uint256"
        }
      ],
      "name": "invest",
      "outputs": [],
      "stateMutability": "nonpayable",
      "type": "function"
    },
    {
      "inputs": [
        {
          "internalType": "uint256",
          "name": "",
          "type": "uint256"
        }
      ],
      "name": "investments",
      "outputs": [
        {
          "internalType": "address",
          "name": "investor",
          "type": "address"
        },
        {
          "internalType": "uint256",
          "name": "initialUsdAmount",
          "type": "uint256"
        },
        {
          "internalType": "uint256",
          "name": "usdManagementFeesCollected",
          "type": "uint256"
        },
        {
          "internalType": "uint256",
          "name": "usdPerformanceFeesCollected",
          "type": "uint256"
        },
        {
          "internalType": "uint256",
          "name": "initialFundAmount",
          "type": "uint256"
        },
        {
          "internalType": "uint256",
          "name": "fundAmount",
          "type": "uint256"
        },
        {
          "internalType": "uint256",
          "name": "timestamp",
          "type": "uint256"
        },
        {
          "internalType": "uint256",
          "name": "lastFeeTimestamp",
          "type": "uint256"
        },
        {
          "internalType": "bool",
          "name": "redeemed",
          "type": "bool"
        }
      ],
      "stateMutability": "view",
      "type": "function"
    },
    {
      "inputs": [],
      "name": "investmentsEnabled",
      "outputs": [
        {
          "internalType": "bool",
          "name": "",
          "type": "bool"
        }
      ],
      "stateMutability": "view",
      "type": "function"
    },
    {
      "inputs": [],
      "name": "logoUrl",
      "outputs": [
        {
          "internalType": "string",
          "name": "",
          "type": "string"
        }
      ],
      "stateMutability": "view",
      "type": "function"
    },
    {
      "inputs": [],
      "name": "managementFee",
      "outputs": [
        {
          "internalType": "uint256",
          "name": "",
          "type": "uint256"
        }
      ],
      "stateMutability": "view",
      "type": "function"
    },
    {
      "inputs": [],
      "name": "manager",
      "outputs": [
        {
          "internalType": "address",
          "name": "",
          "type": "address"
        }
      ],
      "stateMutability": "view",
      "type": "function"
    },
    {
      "inputs": [],
      "name": "name",
      "outputs": [
        {
          "internalType": "string",
          "name": "",
          "type": "string"
        }
      ],
      "stateMutability": "view",
      "type": "function"
    },
    {
      "inputs": [],
      "name": "performanceFee",
      "outputs": [
        {
          "internalType": "uint256",
          "name": "",
          "type": "uint256"
        }
      ],
      "stateMutability": "view",
      "type": "function"
    },
    {
      "inputs": [
        {
          "internalType": "uint256[]",
          "name": "investmentIds",
          "type": "uint256[]"
        },
        {
          "internalType": "uint256",
          "name": "deadline",
          "type": "uint256"
        }
      ],
      "name": "processFees",
      "outputs": [],
      "stateMutability": "nonpayable",
      "type": "function"
    },
    {
      "inputs": [
        {
          "internalType": "uint256[]",
          "name": "investmentIds",
          "type": "uint256[]"
        },
        {
          "internalType": "uint256",
          "name": "minUsdAmount",
          "type": "uint256"
        },
        {
          "internalType": "uint256",
          "name": "deadline",
          "type": "uint256"
        }
      ],
      "name": "processRedemptions",
      "outputs": [],
      "stateMutability": "nonpayable",
      "type": "function"
    },
    {
      "inputs": [
        {
          "internalType": "uint256",
          "name": "minUsdAmount",
          "type": "uint256"
        },
        {
          "internalType": "uint256[]",
          "name": "investmentIds",
          "type": "uint256[]"
        },
        {
          "internalType": "uint256",
          "name": "deadline",
          "type": "uint256"
        }
      ],
      "name": "requestRedemption",
      "outputs": [],
      "stateMutability": "nonpayable",
      "type": "function"
    },
    {
      "inputs": [],
      "name": "signedAum",
      "outputs": [
        {
          "internalType": "bool",
          "name": "",
          "type": "bool"
        }
      ],
      "stateMutability": "view",
      "type": "function"
    },
    {
      "inputs": [],
      "name": "symbol",
      "outputs": [
        {
          "internalType": "string",
          "name": "",
          "type": "string"
        }
      ],
      "stateMutability": "view",
      "type": "function"
    },
    {
      "inputs": [],
      "name": "timelock",
      "outputs": [
        {
          "internalType": "uint256",
          "name": "",
          "type": "uint256"
        }
      ],
      "stateMutability": "view",
      "type": "function"
    },
    {
      "inputs": [],
      "name": "totalSupply",
      "outputs": [
        {
          "internalType": "uint256",
          "name": "",
          "type": "uint256"
        }
      ],
      "stateMutability": "view",
      "type": "function"
    },
    {
      "inputs": [
        {
          "internalType": "address",
          "name": "recipient",
          "type": "address"
        },
        {
          "internalType": "uint256",
          "name": "amount",
          "type": "uint256"
        }
      ],
      "name": "transfer",
      "outputs": [
        {
          "internalType": "bool",
          "name": "",
          "type": "bool"
        }
      ],
      "stateMutability": "nonpayable",
      "type": "function"
    },
    {
      "inputs": [
        {
          "internalType": "address",
          "name": "sender",
          "type": "address"
        },
        {
          "internalType": "address",
          "name": "recipient",
          "type": "address"
        },
        {
          "internalType": "uint256",
          "name": "amount",
          "type": "uint256"
        }
      ],
      "name": "transferFrom",
      "outputs": [
        {
          "internalType": "bool",
          "name": "",
          "type": "bool"
        }
      ],
      "stateMutability": "nonpayable",
      "type": "function"
    },
    {
      "inputs": [
        {
          "internalType": "uint256",
          "name": "_aum",
          "type": "uint256"
        },
        {
          "internalType": "uint256",
          "name": "deadline",
          "type": "uint256"
        },
        {
          "internalType": "bytes",
          "name": "signature",
          "type": "bytes"
        }
      ],
      "name": "updateAum",
      "outputs": [],
      "stateMutability": "nonpayable",
      "type": "function"
    },
    {
      "inputs": [
        {
          "internalType": "address",
          "name": "",
          "type": "address"
        }
      ],
      "name": "whitelist",
      "outputs": [
        {
          "internalType": "bool",
          "name": "whitelisted",
          "type": "bool"
        },
        {
          "internalType": "string",
          "name": "name",
          "type": "string"
        }
      ],
      "stateMutability": "view",
      "type": "function"
    },
    {
      "inputs": [
        {
          "internalType": "address[]",
          "name": "investors",
          "type": "address[]"
        },
        {
          "internalType": "string[]",
          "name": "names",
          "type": "string[]"
        }
      ],
      "name": "whitelistMulti",
      "outputs": [],
      "stateMutability": "nonpayable",
      "type": "function"
    },
    {
      "inputs": [
        {
          "internalType": "uint256",
          "name": "usdAmount",
          "type": "uint256"
        },
        {
          "internalType": "address",
          "name": "to",
          "type": "address"
        },
        {
          "internalType": "uint256",
          "name": "deadline",
          "type": "uint256"
        }
      ],
      "name": "withdrawFees",
      "outputs": [],
      "stateMutability": "nonpayable",
      "type": "function"
    }
  ],
  "bytecode": "0x60e06040523480156200001157600080fd5b506040516200410c3803806200410c833981016040819052620000349162000351565b8251839083906200004d9060039060208501906200020a565b508051620000639060049060208401906200020a565b50506005805460ff19166012179055506200007d620001f0565b600560016101000a8154816001600160a01b0302191690836001600160a01b03160217905550620001ab600560019054906101000a90046001600160a01b03166001600160a01b031663f897a22b6040518163ffffffff1660e01b815260040160206040518083038186803b158015620000f657600080fd5b505afa1580156200010b573d6000803e3d6000fd5b505050506040513d601f19601f8201168201806040525081019062000131919062000421565b6001600160a01b031663313ce5676040518163ffffffff1660e01b815260040160206040518083038186803b1580156200016a57600080fd5b505afa1580156200017f573d6000803e3d6000fd5b505050506040513d601f19601f82011682018060405250810190620001a5919062000447565b620001f4565b6001600160601b0319606087811b821660805286901b1660a05283151560f81b60c0528051620001e390600a9060208401906200020a565b5050505050505062000483565b3390565b6005805460ff191660ff92909216919091179055565b828054600181600116156101000203166002900490600052602060002090601f0160209004810192826200024257600085556200028d565b82601f106200025d57805160ff19168380011785556200028d565b828001600101855582156200028d579182015b828111156200028d57825182559160200191906001019062000270565b506200029b9291506200029f565b5090565b5b808211156200029b5760008155600101620002a0565b600082601f830112620002c7578081fd5b81516001600160401b0380821115620002dc57fe5b6040516020601f8401601f1916820181018381118382101715620002fc57fe5b604052838252858401810187101562000313578485fd5b8492505b8383101562000336578583018101518284018201529182019162000317565b838311156200034757848185840101525b5095945050505050565b60008060008060008060c087890312156200036a578182fd5b865162000377816200046a565b60208801519096506200038a816200046a565b60408801519095508015158114620003a0578283fd5b60608801519094506001600160401b0380821115620003bd578384fd5b620003cb8a838b01620002b6565b94506080890151915080821115620003e1578384fd5b620003ef8a838b01620002b6565b935060a089015191508082111562000405578283fd5b506200041489828a01620002b6565b9150509295509295509295565b60006020828403121562000433578081fd5b815162000440816200046a565b9392505050565b60006020828403121562000459578081fd5b815160ff8116811462000440578182fd5b6001600160a01b03811681146200048057600080fd5b50565b60805160601c60a05160601c60c05160f81c613c0d620004ff600039806105cf5280611f8152508061089f528061102a52806113e352508061084d52806109ec5280610c405280610dad5280611125528061148e528061168c5280611cb95280611fa9528061226e52806122e252806126105250613c0d6000f3fe608060405234801561001057600080fd5b50600436106102115760003560e01c806377bd510511610125578063a6891051116100ad578063c45a01551161007c578063c45a015514610410578063d33219b414610418578063dd62ed3e14610420578063f3aaaad714610433578063fd345c8a1461044657610211565b8063a6891051146103da578063a6f7f5d6146103e2578063a9059cbb146103ea578063a9476fa2146103fd57610211565b806388c24920116100f457806388c249201461038357806395d89b4114610396578063993d77af1461039e5780639b19251a146103a6578063a457c2d7146103c757610211565b806377bd51051461034d57806379aba36d146103555780638655bb4314610368578063877887821461037b57610211565b806339509351116101a85780635a1bd61c116101775780635a1bd61c146102ee578063609a4970146103015780636629e6591461031457806370a082311461032757806372ad692e1461033a57610211565b806339509351146102a9578063431b3244146102bc578063481c6a75146102d15780634c35833d146102e657610211565b806318160ddd116101e457806318160ddd1461027157806323b872dd14610279578063313ce5671461028c578063330d83fa146102a157610211565b806306fdde0314610216578063095ea7b3146102345780630ab51bac14610254578063158ef93e14610269575b600080fd5b61021e61046e565b60405161022b91906134eb565b60405180910390f35b61024761024236600461309f565b610504565b60405161022b9190613496565b61025c610522565b60405161022b91906138c4565b610247610528565b61025c610536565b61024761028736600461305f565b61053c565b6102946105c4565b60405161022b9190613956565b6102476105cd565b6102476102b736600461309f565b6105f1565b6102cf6102ca36600461324a565b61063f565b005b6102d961084b565b60405161022b9190613415565b61025c61086f565b6102cf6102fc36600461330b565b610875565b6102cf61030f36600461320c565b61097d565b6102cf610322366004613173565b610bd1565b61025c610335366004612fef565b610d8c565b6102cf610348366004613224565b610dab565b610247610f08565b6102cf6103633660046132e0565b610f11565b6102cf61037636600461329b565b611001565b61025c61111d565b6102cf61039136600461310a565b611123565b61021e6111dc565b61021e61123d565b6103b96103b4366004612fef565b6112cb565b60405161022b9291906134a1565b6102476103d536600461309f565b611379565b6102d96113e1565b61025c611405565b6102476103f836600461309f565b61140b565b6102cf61040b3660046131bd565b61141f565b6102d9611645565b61025c611659565b61025c61042e366004613027565b61165f565b6102cf6104413660046130ca565b61168a565b61045961045436600461320c565b6117a8565b60405161022b9998979695949392919061344a565b60038054604080516020601f60026000196101006001881615020190951694909404938401819004810282018101909252828152606093909290918301828280156104fa5780601f106104cf576101008083540402835291602001916104fa565b820191906000526020600020905b8154815290600101906020018083116104dd57829003601f168201915b5050505050905090565b6000610518610511611810565b8484611814565b5060015b92915050565b600b5481565b600954610100900460ff1681565b60025490565b6000610549848484611900565b6105b984610555611810565b6105b485604051806060016040528060288152602001613ad7602891396001600160a01b038a16600090815260016020526040812090610593611810565b6001600160a01b031681526020810191909152604001600020549190611a5b565b611814565b5060015b9392505050565b60055460ff1690565b7f000000000000000000000000000000000000000000000000000000000000000081565b60006105186105fe611810565b846105b4856001600061060f611810565b6001600160a01b03908116825260208083019390935260409182016000908120918c168152925290205490611af2565b600954610100900460ff1661066f5760405162461bcd60e51b8152600401610666906136e7565b60405180910390fd5b610677610536565b6106935760405162461bcd60e51b81526004016106669061360b565b60095460ff166106b55760405162461bcd60e51b81526004016106669061377c565b600c60006106c1611810565b6001600160a01b0316815260208101919091526040016000205460ff1615156001146106ff5760405162461bcd60e51b815260040161066690613710565b80804211156107205760405162461bcd60e51b81526004016106669061389d565b600061072a611810565b905060005b848110156107fd576000600d87878481811061074757fe5b905060200201358154811061075857fe5b6000918252602090912060099091020180549091506001600160a01b038481169116146107975760405162461bcd60e51b81526004016106669061380f565b600881015460ff16156107bc5760405162461bcd60e51b815260040161066690613846565b426107d66006548360060154611af290919063ffffffff16565b11156107f45760405162461bcd60e51b8152600401610666906136c2565b5060010161072f565b50806001600160a01b03167fcfb9208347ccc39aaddc9759318936d34c26c238e90370ec8122a7eb251013b187878760405161083b939291906138cd565b60405180910390a2505050505050565b7f000000000000000000000000000000000000000000000000000000000000000081565b600e5481565b600954610100900460ff161561089d5760405162461bcd60e51b815260040161066690613870565b7f00000000000000000000000000000000000000000000000000000000000000006001600160a01b03166108cf611810565b6001600160a01b0316146108f55760405162461bcd60e51b8152600401610666906135e2565b81804211156109165760405162461bcd60e51b81526004016106669061389d565b6000871161092357600080fd5b60068b905560078a905560088990556009805460ff191689151517905561094b868686611b4c565b61095786886001611c24565b6109618383611f7f565b50506009805461ff001916610100179055505050505050505050565b600954610100900460ff166109a45760405162461bcd60e51b8152600401610666906136e7565b6109ac610536565b6109c85760405162461bcd60e51b81526004016106669061360b565b60095460ff166109ea5760405162461bcd60e51b81526004016106669061377c565b7f00000000000000000000000000000000000000000000000000000000000000006001600160a01b0316610a1c611810565b6001600160a01b031614610a425760405162461bcd60e51b81526004016106669061356f565b8080421115610a635760405162461bcd60e51b81526004016106669061389d565b600e54600114610a855760405162461bcd60e51b815260040161066690613739565b6000600d600081548110610a9557fe5b60009182526020909120600990910201600881015490915060ff1615610acd5760405162461bcd60e51b815260040161066690613846565b42610ae76006548360060154611af290919063ffffffff16565b1115610b055760405162461bcd60e51b8152600401610666906136c2565b610b0f60006120c7565b60088101805460ff19166001179055600e805460001901905580546005820154610b42916001600160a01b03169061239b565b600b80546000918290558254600584015460405192936001600160a01b03909216927f484c40561359f3e3b8be9101897f8680aa82fbe1df9fd9038e0dbc628403264692610b93929186919061391d565b60405180910390a2600080516020613b69833981519152600b54610bb5610536565b604051610bc392919061390f565b60405180910390a150505050565b600954610100900460ff16610bf85760405162461bcd60e51b8152600401610666906136e7565b610c00610536565b610c1c5760405162461bcd60e51b81526004016106669061360b565b60095460ff16610c3e5760405162461bcd60e51b81526004016106669061377c565b7f00000000000000000000000000000000000000000000000000000000000000006001600160a01b0316610c70611810565b6001600160a01b031614610c965760405162461bcd60e51b81526004016106669061356f565b8080421115610cb75760405162461bcd60e51b81526004016106669061389d565b60005b83811015610d71576000600d868684818110610cd257fe5b9050602002013581548110610ce357fe5b60009182526020909120600990910201600881015490915060ff1615610d1b5760405162461bcd60e51b815260040161066690613846565b60078101544290610d2f9062278d00611af2565b1115610d4d5760405162461bcd60e51b8152600401610666906134fe565b610d68868684818110610d5c57fe5b905060200201356120c7565b50600101610cba565b50600080516020613b69833981519152600b54610bb5610536565b6001600160a01b0381166000908152602081905260409020545b919050565b7f00000000000000000000000000000000000000000000000000000000000000006001600160a01b0316610ddd611810565b6001600160a01b031614610e035760405162461bcd60e51b81526004016106669061356f565b8080421115610e245760405162461bcd60e51b81526004016106669061389d565b610ec1308486600560019054906101000a90046001600160a01b03166001600160a01b031663f897a22b6040518163ffffffff1660e01b815260040160206040518083038186803b158015610e7857600080fd5b505afa158015610e8c573d6000803e3d6000fd5b505050506040513d601f19601f82011682018060405250810190610eb0919061300b565b6001600160a01b0316929190612497565b826001600160a01b03167fc0819c13be868895eb93e40eaceb96de976442fa1d404e5c55f14bb65a8c489a85604051610efa91906138c4565b60405180910390a250505050565b60095460ff1681565b600954610100900460ff16610f385760405162461bcd60e51b8152600401610666906136e7565b610f40610536565b610f5c5760405162461bcd60e51b81526004016106669061360b565b60095460ff16610f7e5760405162461bcd60e51b81526004016106669061377c565b600c6000610f8a611810565b6001600160a01b0316815260208101919091526040016000205460ff161515600114610fc85760405162461bcd60e51b815260040161066690613710565b8080421115610fe95760405162461bcd60e51b81526004016106669061389d565b610ffb610ff4611810565b8585611c24565b50505050565b600954610100900460ff166110285760405162461bcd60e51b8152600401610666906136e7565b7f00000000000000000000000000000000000000000000000000000000000000006001600160a01b031661105a611810565b6001600160a01b0316146110805760405162461bcd60e51b8152600401610666906135e2565b82804211156110a15760405162461bcd60e51b81526004016106669061389d565b84600b819055506110e88484848080601f016020809104026020016040519081016040528093929190818152602001838380828437600092019190915250611f7f92505050565b600080516020613b6983398151915285611100610536565b60405161110e92919061390f565b60405180910390a15050505050565b60085481565b7f00000000000000000000000000000000000000000000000000000000000000006001600160a01b0316611155611810565b6001600160a01b03161461117b5760405162461bcd60e51b81526004016106669061356f565b60005b838110156111d5576111cd85858381811061119557fe5b90506020020160208101906111aa9190612fef565b8484848181106111b657fe5b90506020028101906111c89190613964565b611b4c565b60010161117e565b5050505050565b60048054604080516020601f60026000196101006001881615020190951694909404938401819004810282018101909252828152606093909290918301828280156104fa5780601f106104cf576101008083540402835291602001916104fa565b600a805460408051602060026001851615610100026000190190941693909304601f810184900484028201840190925281815292918301828280156112c35780601f10611298576101008083540402835291602001916112c3565b820191906000526020600020905b8154815290600101906020018083116112a657829003601f168201915b505050505081565b600c602090815260009182526040918290208054600180830180548651600261010094831615949094026000190190911692909204601f810186900486028301860190965285825260ff90921694929390929083018282801561136f5780601f106113445761010080835404028352916020019161136f565b820191906000526020600020905b81548152906001019060200180831161135257829003601f168201915b5050505050905082565b6000610518611386611810565b846105b485604051806060016040528060258152602001613bb360259139600160006113b0611810565b6001600160a01b03908116825260208083019390935260409182016000908120918d16815292529020549190611a5b565b7f000000000000000000000000000000000000000000000000000000000000000081565b60075481565b6000610518611418611810565b8484611900565b600954610100900460ff166114465760405162461bcd60e51b8152600401610666906136e7565b61144e610536565b61146a5760405162461bcd60e51b81526004016106669061360b565b60095460ff1661148c5760405162461bcd60e51b81526004016106669061377c565b7f00000000000000000000000000000000000000000000000000000000000000006001600160a01b03166114be611810565b6001600160a01b0316146114e45760405162461bcd60e51b81526004016106669061356f565b80804211156115055760405162461bcd60e51b81526004016106669061389d565b6000600d8686600081811061151657fe5b905060200201358154811061152757fe5b600091825260208220600990910201546001600160a01b03169150805b868110156115eb576000600d89898481811061155c57fe5b905060200201358154811061156d57fe5b6000918252602090912060099091020180549091506001600160a01b038581169116146115ac5760405162461bcd60e51b815260040161066690613633565b6115bb898984818110610d5c57fe5b6115e0836115da8b8b868181106115ce57fe5b905060200201356124f1565b90611af2565b925050600101611544565b508481101561160c5760405162461bcd60e51b8152600401610666906137b3565b600080516020613b69833981519152600b54611626610536565b60405161163492919061390f565b60405180910390a150505050505050565b60055461010090046001600160a01b031681565b60065481565b6001600160a01b03918216600090815260016020908152604080832093909416825291909152205490565b7f00000000000000000000000000000000000000000000000000000000000000006001600160a01b03166116bc611810565b6001600160a01b0316146116e25760405162461bcd60e51b81526004016106669061356f565b60005b818110156117a357600c60008484848181106116fd57fe5b90506020020160208101906117129190612fef565b6001600160a01b0316815260208101919091526040016000908120805460ff19168155906117436001830182612dfe565b505082828281811061175157fe5b90506020020160208101906117669190612fef565b6001600160a01b03167fffa4e6181777692565cf28528fc88fd1516ea86b56da075235fa575af6a4b85560405160405180910390a26001016116e5565b505050565b600d81815481106117b857600080fd5b60009182526020909120600990910201805460018201546002830154600384015460048501546005860154600687015460078801546008909801546001600160a01b0390971698509496939592949193909260ff1689565b3390565b6001600160a01b0383166118595760405162461bcd60e51b8152600401808060200182810382526024815260200180613b456024913960400191505060405180910390fd5b6001600160a01b03821661189e5760405162461bcd60e51b8152600401808060200182810382526022815260200180613a046022913960400191505060405180910390fd5b6001600160a01b03808416600081815260016020908152604080832094871680845294825291829020859055815185815291517f8c5be1e5ebec7d5bd14f71427d1e84f3dd0314c0f7b2291e5b200ac8c7c3b9259281900390910190a3505050565b6001600160a01b0383166119455760405162461bcd60e51b8152600401808060200182810382526025815260200180613b206025913960400191505060405180910390fd5b6001600160a01b03821661198a5760405162461bcd60e51b81526004018080602001828103825260238152602001806139bf6023913960400191505060405180910390fd5b6119958383836126c1565b6119d281604051806060016040528060268152602001613a26602691396001600160a01b0386166000908152602081905260409020549190611a5b565b6001600160a01b038085166000908152602081905260408082209390935590841681522054611a019082611af2565b6001600160a01b038084166000818152602081815260409182902094909455805185815290519193928716927fddf252ad1be2c89b69c2b068fc378daa952ba7f163c4a11628f55a4df523b3ef92918290030190a3505050565b60008184841115611aea5760405162461bcd60e51b81526004018080602001828103825283818151815260200191508051906020019080838360005b83811015611aaf578181015183820152602001611a97565b50505050905090810190601f168015611adc5780820380516001836020036101000a031916815260200191505b509250505060405180910390fd5b505050900390565b6000828201838110156105bd576040805162461bcd60e51b815260206004820152601b60248201527f536166654d6174683a206164646974696f6e206f766572666c6f770000000000604482015290519081900360640190fd5b604051806040016040528060011515815260200183838080601f01602080910402602001604051908101604052809392919081815260200183838082843760009201829052509390945250506001600160a01b0386168152600c602090815260409091208351815460ff1916901515178155838201518051919350611bd8926001850192910190612e45565b50905050826001600160a01b03167f3feccebfacde99065c8796a177e49cc8db48e50a6034f441dd9650d7e5b17fa88383604051611c179291906134bc565b60405180910390a2505050565b600082118015611c345750600081115b611c505760405162461bcd60e51b8152600401610666906137ea565b600d54600081611c6c57611c65846064612705565b9050611c8d565b611c8a600b54611c84611c7d610536565b8790612705565b9061275e565b90505b82811015611cad5760405162461bcd60e51b81526004016106669061368b565b8115611d2757611d27857f000000000000000000000000000000000000000000000000000000000000000086600560019054906101000a90046001600160a01b03166001600160a01b031663f897a22b6040518163ffffffff1660e01b815260040160206040518083038186803b158015610e7857600080fd5b600b54611d349085611af2565b600b55611d4185826127a0565b60408051610120810182526001600160a01b03878116808352602083018881526000848601818152606086018281526080870189815260a088018a81524260c08a0190815260e08a018681526101008b01878152600d805460018082018355919099529b517fd7b6990105719101dabeb77144f2a3385c8033acd3af97e9423a695e81ad1eb5600990990298890180546001600160a01b03191691909c1617909a5596517fd7b6990105719101dabeb77144f2a3385c8033acd3af97e9423a695e81ad1eb687015593517fd7b6990105719101dabeb77144f2a3385c8033acd3af97e9423a695e81ad1eb786015591517fd7b6990105719101dabeb77144f2a3385c8033acd3af97e9423a695e81ad1eb8850155517fd7b6990105719101dabeb77144f2a3385c8033acd3af97e9423a695e81ad1eb9840155517fd7b6990105719101dabeb77144f2a3385c8033acd3af97e9423a695e81ad1eba830155517fd7b6990105719101dabeb77144f2a3385c8033acd3af97e9423a695e81ad1ebb82015590517fd7b6990105719101dabeb77144f2a3385c8033acd3af97e9423a695e81ad1ebc82015591517fd7b6990105719101dabeb77144f2a3385c8033acd3af97e9423a695e81ad1ebd909201805460ff191692151592909217909155600e805490920190915590517f9bce88ff835d9d8831ccf5c7e04a2533f68510314393b3a54f990dea62e7134e90611f5d9087908590879061391d565b60405180910390a2600080516020613b69833981519152600b54611100610536565b7f0000000000000000000000000000000000000000000000000000000000000000156120c35760007f0000000000000000000000000000000000000000000000000000000000000000600b5484604051602001611fde93929190613429565b604051602081830303815290604052805190602001209050600061200b8361200584612890565b906128e1565b9050600560019054906101000a90046001600160a01b03166001600160a01b0316638da5cb5b6040518163ffffffff1660e01b815260040160206040518083038186803b15801561205b57600080fd5b505afa15801561206f573d6000803e3d6000fd5b505050506040513d601f19601f82011682018060405250810190612093919061300b565b6001600160a01b0316816001600160a01b031614610ffb5760405162461bcd60e51b815260040161066690613546565b5050565b6000600d82815481106120d657fe5b90600052602060002090600902019050600061211c644979cb9e00611c848460050154612116600754612116886006015442612ac890919063ffffffff16565b90612705565b90506000612128610536565b9050600061214582611c84600b548661270590919063ffffffff16565b9050600061216683611c848760050154600b5461270590919063ffffffff16565b90506000856001015482111561219c57612199612710611c846008546121168a6001015487612ac890919063ffffffff16565b90505b60008087600301548311156121d25760038801546121bb908490612ac8565b600b549092506121cf90611c848885612705565b90505b60028801546121e19086611af2565b600289015560038801546121f59083611af2565b6003890155600588015461221590829061220f908a612ac8565b90612ac8565b60058901554260078901558754612235906001600160a01b03168861239b565b875461224a906001600160a01b03168261239b565b6122638261220f87600b54612ac890919063ffffffff16565b600b819055506122dd7f00000000000000000000000000000000000000000000000000000000000000003087600560019054906101000a90046001600160a01b03166001600160a01b031663f897a22b6040518163ffffffff1660e01b815260040160206040518083038186803b158015610e7857600080fd5b6123517f00000000000000000000000000000000000000000000000000000000000000003084600560019054906101000a90046001600160a01b03166001600160a01b031663f897a22b6040518163ffffffff1660e01b815260040160206040518083038186803b158015610e7857600080fd5b7f60335fc6da5dde7dc66197a635e02eb0dafc452a299f77200b64358c94cdb616878287858d604051612388959493929190613933565b60405180910390a1505050505050505050565b6001600160a01b0382166123e05760405162461bcd60e51b8152600401808060200182810382526021815260200180613aff6021913960400191505060405180910390fd5b6123ec826000836126c1565b612429816040518060600160405280602281526020016139e2602291396001600160a01b0385166000908152602081905260409020549190611a5b565b6001600160a01b03831660009081526020819052604090205560025461244f9082612ac8565b6002556040805182815290516000916001600160a01b038516917fddf252ad1be2c89b69c2b068fc378daa952ba7f163c4a11628f55a4df523b3ef9181900360200190a35050565b604080516001600160a01b0380861660248301528416604482015260648082018490528251808303909101815260849091019091526020810180516001600160e01b03166323b872dd60e01b179052610ffb908590612b0a565b600080600d838154811061250157fe5b9060005260206000209060090201905082600014156125325760405162461bcd60e51b815260040161066690613594565b600881015460ff16156125575760405162461bcd60e51b815260040161066690613846565b426125716006548360060154611af290919063ffffffff16565b111561258f5760405162461bcd60e51b8152600401610666906136c2565b60088101805460ff19166001179055600e805460001901905560006125c66125b5610536565b600b546005850154611c8491612705565b825460058401549192506125e5916001600160a01b039091169061239b565b600b546125f29082612ac8565b600b5581546005546040805163f897a22b60e01b8152905161266d937f0000000000000000000000000000000000000000000000000000000000000000936001600160a01b039182169387936101009092049092169163f897a22b916004808301926020929190829003018186803b158015610e7857600080fd5b815460058301546040516001600160a01b03909216917f484c40561359f3e3b8be9101897f8680aa82fbe1df9fd9038e0dbc6284032646916126b2918590899061391d565b60405180910390a29392505050565b6126cc8383836117a3565b6001600160a01b03831615806126e957506001600160a01b038216155b6117a35760405162461bcd60e51b815260040161066690613662565b6000826127145750600061051c565b8282028284828161272157fe5b04146105bd5760405162461bcd60e51b8152600401808060200182810382526021815260200180613ab66021913960400191505060405180910390fd5b60006105bd83836040518060400160405280601a81526020017f536166654d6174683a206469766973696f6e206279207a65726f000000000000815250612bbb565b6001600160a01b0382166127fb576040805162461bcd60e51b815260206004820152601f60248201527f45524332303a206d696e7420746f20746865207a65726f206164647265737300604482015290519081900360640190fd5b612807600083836126c1565b6002546128149082611af2565b6002556001600160a01b03821660009081526020819052604090205461283a9082611af2565b6001600160a01b0383166000818152602081815260408083209490945583518581529351929391927fddf252ad1be2c89b69c2b068fc378daa952ba7f163c4a11628f55a4df523b3ef9281900390910190a35050565b604080517f19457468657265756d205369676e6564204d6573736167653a0a333200000000602080830191909152603c8083019490945282518083039094018452605c909101909152815191012090565b60008151604114612939576040805162461bcd60e51b815260206004820152601f60248201527f45434453413a20696e76616c6964207369676e6174757265206c656e67746800604482015290519081900360640190fd5b60208201516040830151606084015160001a7f7fffffffffffffffffffffffffffffff5d576e7357a4501ddfe92f46681b20a08211156129aa5760405162461bcd60e51b8152600401808060200182810382526022815260200180613a4c6022913960400191505060405180910390fd5b8060ff16601b14806129bf57508060ff16601c145b6129fa5760405162461bcd60e51b8152600401808060200182810382526022815260200180613a946022913960400191505060405180910390fd5b600060018783868660405160008152602001604052604051808581526020018460ff1681526020018381526020018281526020019450505050506020604051602081039080840390855afa158015612a56573d6000803e3d6000fd5b5050604051601f1901519150506001600160a01b038116612abe576040805162461bcd60e51b815260206004820152601860248201527f45434453413a20696e76616c6964207369676e61747572650000000000000000604482015290519081900360640190fd5b9695505050505050565b60006105bd83836040518060400160405280601e81526020017f536166654d6174683a207375627472616374696f6e206f766572666c6f770000815250611a5b565b6000612b5f826040518060400160405280602081526020017f5361666545524332303a206c6f772d6c6576656c2063616c6c206661696c6564815250856001600160a01b0316612c209092919063ffffffff16565b8051909150156117a357808060200190516020811015612b7e57600080fd5b50516117a35760405162461bcd60e51b815260040180806020018281038252602a815260200180613b89602a913960400191505060405180910390fd5b60008183612c0a5760405162461bcd60e51b8152602060048201818152835160248401528351909283926044909101919085019080838360008315611aaf578181015183820152602001611a97565b506000838581612c1657fe5b0495945050505050565b6060612c2f8484600085612c37565b949350505050565b606082471015612c785760405162461bcd60e51b8152600401808060200182810382526026815260200180613a6e6026913960400191505060405180910390fd5b612c8185612d92565b612cd2576040805162461bcd60e51b815260206004820152601d60248201527f416464726573733a2063616c6c20746f206e6f6e2d636f6e7472616374000000604482015290519081900360640190fd5b600080866001600160a01b031685876040518082805190602001908083835b60208310612d105780518252601f199092019160209182019101612cf1565b6001836020036101000a03801982511681845116808217855250505050505090500191505060006040518083038185875af1925050503d8060008114612d72576040519150601f19603f3d011682016040523d82523d6000602084013e612d77565b606091505b5091509150612d87828286612d98565b979650505050505050565b3b151590565b60608315612da75750816105bd565b825115612db75782518084602001fd5b60405162461bcd60e51b8152602060048201818152845160248401528451859391928392604401919085019080838360008315611aaf578181015183820152602001611a97565b50805460018160011615610100020316600290046000825580601f10612e245750612e42565b601f016020900490600052602060002090810190612e429190612ed1565b50565b828054600181600116156101000203166002900490600052602060002090601f016020900481019282612e7b5760008555612ec1565b82601f10612e9457805160ff1916838001178555612ec1565b82800160010185558215612ec1579182015b82811115612ec1578251825591602001919060010190612ea6565b50612ecd929150612ed1565b5090565b5b80821115612ecd5760008155600101612ed2565b8035610da6816139a9565b60008083601f840112612f02578081fd5b50813567ffffffffffffffff811115612f19578182fd5b6020830191508360208083028501011115612f3357600080fd5b9250929050565b60008083601f840112612f4b578182fd5b50813567ffffffffffffffff811115612f62578182fd5b602083019150836020828501011115612f3357600080fd5b600082601f830112612f8a578081fd5b813567ffffffffffffffff80821115612f9f57fe5b604051601f8301601f191681016020018281118282101715612fbd57fe5b604052828152848301602001861015612fd4578384fd5b82602086016020830137918201602001929092529392505050565b600060208284031215613000578081fd5b81356105bd816139a9565b60006020828403121561301c578081fd5b81516105bd816139a9565b60008060408385031215613039578081fd5b8235613044816139a9565b91506020830135613054816139a9565b809150509250929050565b600080600060608486031215613073578081fd5b833561307e816139a9565b9250602084013561308e816139a9565b929592945050506040919091013590565b600080604083850312156130b1578182fd5b82356130bc816139a9565b946020939093013593505050565b600080602083850312156130dc578182fd5b823567ffffffffffffffff8111156130f2578283fd5b6130fe85828601612ef1565b90969095509350505050565b6000806000806040858703121561311f578081fd5b843567ffffffffffffffff80821115613136578283fd5b61314288838901612ef1565b9096509450602087013591508082111561315a578283fd5b5061316787828801612ef1565b95989497509550505050565b600080600060408486031215613187578283fd5b833567ffffffffffffffff81111561319d578384fd5b6131a986828701612ef1565b909790965060209590950135949350505050565b600080600080606085870312156131d2578384fd5b843567ffffffffffffffff8111156131e8578485fd5b6131f487828801612ef1565b90989097506020870135966040013595509350505050565b60006020828403121561321d578081fd5b5035919050565b600080600060608486031215613238578081fd5b83359250602084013561308e816139a9565b6000806000806060858703121561325f578182fd5b84359350602085013567ffffffffffffffff81111561327c578283fd5b61328887828801612ef1565b9598909750949560400135949350505050565b600080600080606085870312156132b0578182fd5b8435935060208501359250604085013567ffffffffffffffff8111156132d4578283fd5b61316787828801612f3a565b6000806000606084860312156132f4578081fd5b505081359360208301359350604090920135919050565b6000806000806000806000806000806101208b8d03121561332a578788fd5b8a35995060208b0135985060408b0135975060608b0135801515811461334e578687fd5b965060808b0135955061336360a08c01612ee6565b945060c08b013567ffffffffffffffff8082111561337f578586fd5b61338b8e838f01612f3a565b909650945060e08d013593506101008d01359150808211156133ab578283fd5b506133b88d828e01612f7a565b9150509295989b9194979a5092959850565b60008151808452815b818110156133ef576020818501810151868301820152016133d3565b818111156134005782602083870101525b50601f01601f19169290920160200192915050565b6001600160a01b0391909116815260200190565b6001600160a01b039390931683526020830191909152604082015260600190565b6001600160a01b03999099168952602089019790975260408801959095526060870193909352608086019190915260a085015260c084015260e083015215156101008201526101200190565b901515815260200190565b6000831515825260406020830152612c2f60408301846133ca565b60006020825282602083015282846040840137818301604090810191909152601f909201601f19160101919050565b6000602082526105bd60208301846133ca565b60208082526028908201527f466565206c61737420636f6c6c6563746564206c657373207468616e2061206d6040820152676f6e74682061676f60c01b606082015260800190565b6020808252600f908201526e0a6d2cedccae440dad2e6dac2e8c6d608b1b604082015260600190565b6020808252600b908201526a2737ba1036b0b730b3b2b960a91b604082015260600190565b6020808252602e908201527f496e697469616c20696e766573746d656e74206d75737420626520726564656560408201526d6d65642073657061726174656c7960901b606082015260800190565b6020808252600f908201526e2737ba1020aaa6903ab83230ba32b960891b604082015260600190565b6020808252600e908201526d119d5b99081a5cc818db1bdcd95960921b604082015260600190565b6020808252601590820152742737ba10333937b69037b7329034b73b32b9ba37b960591b604082015260600190565b6020808252600f908201526e21b0b73737ba103a3930b739b332b960891b604082015260600190565b60208082526019908201527f4c657373207468616e206d696e2066756e6420616d6f756e7400000000000000604082015260600190565b6020808252600b908201526a151a5b59481b1bd8dad95960aa1b604082015260600190565b6020808252600f908201526e139bdd081a5b9a5d1a585b1a5e9959608a1b604082015260600190565b6020808252600f908201526e139bdd081dda1a5d195b1a5cdd1959608a1b604082015260600190565b60208082526023908201527f4d7573742072656465656d206f7468657220696e766573746d656e74732066696040820152621c9cdd60ea1b606082015260800190565b60208082526018908201527f496e766573746d656e7473206172652064697361626c65640000000000000000604082015260600190565b60208082526018908201527f4c657373207468616e206d696e2075736420616d6f756e740000000000000000604082015260600190565b6020808252600b908201526a0416d6f756e7420697320360ac1b604082015260600190565b60208082526017908201527f4e6f742073656e646572277320696e766573746d656e74000000000000000000604082015260600190565b60208082526010908201526f105b1c9958591e481c995919595b595960821b604082015260600190565b602080825260139082015272105b1c9958591e481a5b9a5d1a585b1a5e9959606a1b604082015260600190565b6020808252600d908201526c5061737420646561646c696e6560981b604082015260600190565b90815260200190565b838152604060208201819052810182905260006001600160fb1b038311156138f3578081fd5b6020830280856060850137919091016060019081529392505050565b918252602082015260400190565b9283526020830191909152604082015260600190565b948552602085019390935260408401919091526060830152608082015260a00190565b60ff91909116815260200190565b6000808335601e1984360301811261397a578283fd5b83018035915067ffffffffffffffff821115613994578283fd5b602001915036819003821315612f3357600080fd5b6001600160a01b0381168114612e4257600080fdfe45524332303a207472616e7366657220746f20746865207a65726f206164647265737345524332303a206275726e20616d6f756e7420657863656564732062616c616e636545524332303a20617070726f766520746f20746865207a65726f206164647265737345524332303a207472616e7366657220616d6f756e7420657863656564732062616c616e636545434453413a20696e76616c6964207369676e6174757265202773272076616c7565416464726573733a20696e73756666696369656e742062616c616e636520666f722063616c6c45434453413a20696e76616c6964207369676e6174757265202776272076616c7565536166654d6174683a206d756c7469706c69636174696f6e206f766572666c6f7745524332303a207472616e7366657220616d6f756e74206578636565647320616c6c6f77616e636545524332303a206275726e2066726f6d20746865207a65726f206164647265737345524332303a207472616e736665722066726f6d20746865207a65726f206164647265737345524332303a20617070726f76652066726f6d20746865207a65726f20616464726573731e1223c1f6274c6d64fdb08c485e192bd2896c9abf70e840e199ac1f54d6d1d55361666545524332303a204552433230206f7065726174696f6e20646964206e6f74207375636365656445524332303a2064656372656173656420616c6c6f77616e63652062656c6f77207a65726fa264697066735822122073ee7946dfc0925103600d332873bc2c9e8a2eefa0fab19a11455da33199ddfc64736f6c63430007060033",
  "linkReferences": {},
  "deployedLinkReferences": {}
}