{
  "_format": "hh-sol-artifact-1",
  "contractName": "SMFund",
  "sourceName": "contracts/SMFund.sol",
  "abi": [
    {
      "inputs": [
        {
          "internalType": "address",
          "name": "_manager",
          "type": "address"
        },
        {
          "internalType": "address",
          "name": "_aumUpdater",
          "type": "address"
        },
        {
          "internalType": "bool",
          "name": "_signedAum",
          "type": "bool"
        },
        {
          "internalType": "string",
          "name": "name",
          "type": "string"
        },
        {
          "internalType": "string",
          "name": "symbol",
          "type": "string"
        },
        {
          "internalType": "string",
          "name": "_logoUrl",
          "type": "string"
        }
      ],
      "stateMutability": "nonpayable",
      "type": "constructor"
    },
    {
      "anonymous": false,
      "inputs": [
        {
          "indexed": true,
          "internalType": "address",
          "name": "owner",
          "type": "address"
        },
        {
          "indexed": true,
          "internalType": "address",
          "name": "spender",
          "type": "address"
        },
        {
          "indexed": false,
          "internalType": "uint256",
          "name": "value",
          "type": "uint256"
        }
      ],
      "name": "Approval",
      "type": "event"
    },
    {
      "anonymous": false,
      "inputs": [
        {
          "indexed": true,
          "internalType": "address",
          "name": "investor",
          "type": "address"
        }
      ],
      "name": "Blacklisted",
      "type": "event"
    },
    {
      "anonymous": false,
      "inputs": [
        {
          "indexed": false,
          "internalType": "uint256",
          "name": "fundAmount",
          "type": "uint256"
        },
        {
          "indexed": false,
          "internalType": "uint256",
          "name": "usdTokenAmount",
          "type": "uint256"
        },
        {
          "indexed": false,
          "internalType": "uint256[]",
          "name": "investmentIds",
          "type": "uint256[]"
        }
      ],
      "name": "FeesCollected",
      "type": "event"
    },
    {
      "anonymous": false,
      "inputs": [
        {
          "indexed": true,
          "internalType": "address",
          "name": "to",
          "type": "address"
        },
        {
          "indexed": false,
          "internalType": "uint256",
          "name": "usdTokenAmount",
          "type": "uint256"
        }
      ],
      "name": "FeesWithdrawn",
      "type": "event"
    },
    {
      "anonymous": false,
      "inputs": [
        {
          "indexed": true,
          "internalType": "address",
          "name": "investor",
          "type": "address"
        },
        {
          "indexed": false,
          "internalType": "uint256",
          "name": "usdTokenAmount",
          "type": "uint256"
        },
        {
          "indexed": false,
          "internalType": "uint256",
          "name": "fundAmount",
          "type": "uint256"
        },
        {
          "indexed": false,
          "internalType": "uint256",
          "name": "investmentId",
          "type": "uint256"
        }
      ],
      "name": "Invested",
      "type": "event"
    },
    {
      "anonymous": false,
      "inputs": [
        {
          "indexed": false,
          "internalType": "uint256",
          "name": "aum",
          "type": "uint256"
        },
        {
          "indexed": false,
          "internalType": "uint256",
          "name": "totalSupply",
          "type": "uint256"
        }
      ],
      "name": "NavUpdated",
      "type": "event"
    },
    {
      "anonymous": false,
      "inputs": [
        {
          "indexed": true,
          "internalType": "address",
          "name": "investor",
          "type": "address"
        },
        {
          "indexed": false,
          "internalType": "uint256",
          "name": "fundAmount",
          "type": "uint256"
        },
        {
          "indexed": false,
          "internalType": "uint256",
          "name": "usdTokenAmount",
          "type": "uint256"
        },
        {
          "indexed": false,
          "internalType": "uint256[]",
          "name": "investmentIds",
          "type": "uint256[]"
        }
      ],
      "name": "Redeemed",
      "type": "event"
    },
    {
      "anonymous": false,
      "inputs": [
        {
          "indexed": true,
          "internalType": "address",
          "name": "investor",
          "type": "address"
        },
        {
          "indexed": false,
          "internalType": "uint256",
          "name": "minUsdTokenAmount",
          "type": "uint256"
        },
        {
          "indexed": false,
          "internalType": "uint256[]",
          "name": "investmentIds",
          "type": "uint256[]"
        }
      ],
      "name": "RedemptionRequested",
      "type": "event"
    },
    {
      "anonymous": false,
      "inputs": [
        {
          "indexed": true,
          "internalType": "address",
          "name": "from",
          "type": "address"
        },
        {
          "indexed": true,
          "internalType": "address",
          "name": "to",
          "type": "address"
        },
        {
          "indexed": false,
          "internalType": "uint256",
          "name": "value",
          "type": "uint256"
        }
      ],
      "name": "Transfer",
      "type": "event"
    },
    {
      "anonymous": false,
      "inputs": [
        {
          "indexed": true,
          "internalType": "address",
          "name": "investor",
          "type": "address"
        },
        {
          "indexed": false,
          "internalType": "string",
          "name": "name",
          "type": "string"
        }
      ],
      "name": "Whitelisted",
      "type": "event"
    },
    {
      "inputs": [],
      "name": "activeInvestmentCount",
      "outputs": [
        {
          "internalType": "uint256",
          "name": "",
          "type": "uint256"
        }
      ],
      "stateMutability": "view",
      "type": "function"
    },
    {
      "inputs": [
        {
          "internalType": "address",
          "name": "owner",
          "type": "address"
        },
        {
          "internalType": "address",
          "name": "spender",
          "type": "address"
        }
      ],
      "name": "allowance",
      "outputs": [
        {
          "internalType": "uint256",
          "name": "",
          "type": "uint256"
        }
      ],
      "stateMutability": "view",
      "type": "function"
    },
    {
      "inputs": [
        {
          "internalType": "address",
          "name": "spender",
          "type": "address"
        },
        {
          "internalType": "uint256",
          "name": "amount",
          "type": "uint256"
        }
      ],
      "name": "approve",
      "outputs": [
        {
          "internalType": "bool",
          "name": "",
          "type": "bool"
        }
      ],
      "stateMutability": "nonpayable",
      "type": "function"
    },
    {
      "inputs": [],
      "name": "aum",
      "outputs": [
        {
          "internalType": "uint256",
          "name": "",
          "type": "uint256"
        }
      ],
      "stateMutability": "view",
      "type": "function"
    },
    {
      "inputs": [],
      "name": "aumUpdater",
      "outputs": [
        {
          "internalType": "address",
          "name": "",
          "type": "address"
        }
      ],
      "stateMutability": "view",
      "type": "function"
    },
    {
      "inputs": [
        {
          "internalType": "address",
          "name": "account",
          "type": "address"
        }
      ],
      "name": "balanceOf",
      "outputs": [
        {
          "internalType": "uint256",
          "name": "",
          "type": "uint256"
        }
      ],
      "stateMutability": "view",
      "type": "function"
    },
    {
      "inputs": [
        {
          "internalType": "address[]",
          "name": "investors",
          "type": "address[]"
        }
      ],
      "name": "blacklistMulti",
      "outputs": [],
      "stateMutability": "nonpayable",
      "type": "function"
    },
    {
      "inputs": [],
      "name": "decimals",
      "outputs": [
        {
          "internalType": "uint8",
          "name": "",
          "type": "uint8"
        }
      ],
      "stateMutability": "view",
      "type": "function"
    },
    {
      "inputs": [
        {
          "internalType": "address",
          "name": "spender",
          "type": "address"
        },
        {
          "internalType": "uint256",
          "name": "subtractedValue",
          "type": "uint256"
        }
      ],
      "name": "decreaseAllowance",
      "outputs": [
        {
          "internalType": "bool",
          "name": "",
          "type": "bool"
        }
      ],
      "stateMutability": "nonpayable",
      "type": "function"
    },
    {
      "inputs": [],
      "name": "factory",
      "outputs": [
        {
          "internalType": "contract SMFundFactory",
          "name": "",
          "type": "address"
        }
      ],
      "stateMutability": "view",
      "type": "function"
    },
    {
      "inputs": [
        {
          "components": [
            {
              "internalType": "address",
              "name": "investor",
              "type": "address"
            },
            {
              "internalType": "uint256",
              "name": "initialUsdTokenAmount",
              "type": "uint256"
            },
            {
              "internalType": "uint256",
              "name": "usdTokenFeesCollected",
              "type": "uint256"
            },
            {
              "internalType": "uint256",
              "name": "usdPerformanceFeesCollected",
              "type": "uint256"
            },
            {
              "internalType": "uint256",
              "name": "usdManagementFeesCollected",
              "type": "uint256"
            },
            {
              "internalType": "uint256",
              "name": "initialFundAmount",
              "type": "uint256"
            },
            {
              "internalType": "uint256",
              "name": "fundAmount",
              "type": "uint256"
            },
            {
              "internalType": "uint256",
              "name": "timestamp",
              "type": "uint256"
            },
            {
              "internalType": "uint256",
              "name": "lastFeeTimestamp",
              "type": "uint256"
            },
            {
              "internalType": "bool",
              "name": "redeemed",
              "type": "bool"
            }
          ],
          "internalType": "struct SMFund.Investment",
          "name": "investment",
          "type": "tuple"
        }
      ],
      "name": "getManagementFee",
      "outputs": [
        {
          "internalType": "uint256",
          "name": "",
          "type": "uint256"
        }
      ],
      "stateMutability": "view",
      "type": "function"
    },
    {
      "inputs": [
        {
          "components": [
            {
              "internalType": "address",
              "name": "investor",
              "type": "address"
            },
            {
              "internalType": "uint256",
              "name": "initialUsdTokenAmount",
              "type": "uint256"
            },
            {
              "internalType": "uint256",
              "name": "usdTokenFeesCollected",
              "type": "uint256"
            },
            {
              "internalType": "uint256",
              "name": "usdPerformanceFeesCollected",
              "type": "uint256"
            },
            {
              "internalType": "uint256",
              "name": "usdManagementFeesCollected",
              "type": "uint256"
            },
            {
              "internalType": "uint256",
              "name": "initialFundAmount",
              "type": "uint256"
            },
            {
              "internalType": "uint256",
              "name": "fundAmount",
              "type": "uint256"
            },
            {
              "internalType": "uint256",
              "name": "timestamp",
              "type": "uint256"
            },
            {
              "internalType": "uint256",
              "name": "lastFeeTimestamp",
              "type": "uint256"
            },
            {
              "internalType": "bool",
              "name": "redeemed",
              "type": "bool"
            }
          ],
          "internalType": "struct SMFund.Investment",
          "name": "investment",
          "type": "tuple"
        }
      ],
      "name": "getPerformanceFee",
      "outputs": [
        {
          "internalType": "uint256",
          "name": "",
          "type": "uint256"
        }
      ],
      "stateMutability": "view",
      "type": "function"
    },
    {
      "inputs": [
        {
          "internalType": "address",
          "name": "spender",
          "type": "address"
        },
        {
          "internalType": "uint256",
          "name": "addedValue",
          "type": "uint256"
        }
      ],
      "name": "increaseAllowance",
      "outputs": [
        {
          "internalType": "bool",
          "name": "",
          "type": "bool"
        }
      ],
      "stateMutability": "nonpayable",
      "type": "function"
    },
    {
      "inputs": [
        {
          "internalType": "uint256",
          "name": "_timelock",
          "type": "uint256"
        },
        {
          "internalType": "uint256",
          "name": "_managementFee",
          "type": "uint256"
        },
        {
          "internalType": "uint256",
          "name": "_performanceFee",
          "type": "uint256"
        },
        {
          "internalType": "bool",
          "name": "_investmentsEnabled",
          "type": "bool"
        },
        {
          "internalType": "uint256",
          "name": "initialAum",
          "type": "uint256"
        },
        {
          "internalType": "address",
          "name": "initialInvestor",
          "type": "address"
        },
        {
          "internalType": "string",
          "name": "initialInvestorName",
          "type": "string"
        },
        {
          "internalType": "uint256",
          "name": "deadline",
          "type": "uint256"
        },
        {
          "internalType": "bytes",
          "name": "signature",
          "type": "bytes"
        }
      ],
      "name": "initialize",
      "outputs": [],
      "stateMutability": "nonpayable",
      "type": "function"
    },
    {
      "inputs": [],
      "name": "initialized",
      "outputs": [
        {
          "internalType": "bool",
          "name": "",
          "type": "bool"
        }
      ],
      "stateMutability": "view",
      "type": "function"
    },
    {
      "inputs": [
        {
          "internalType": "uint256",
          "name": "usdTokenAmount",
          "type": "uint256"
        },
        {
          "internalType": "uint256",
          "name": "minFundAmount",
          "type": "uint256"
        },
        {
          "internalType": "uint256",
          "name": "deadline",
          "type": "uint256"
        }
      ],
      "name": "invest",
      "outputs": [],
      "stateMutability": "nonpayable",
      "type": "function"
    },
    {
      "inputs": [
        {
          "internalType": "uint256",
          "name": "",
          "type": "uint256"
        }
      ],
      "name": "investments",
      "outputs": [
        {
          "internalType": "address",
          "name": "investor",
          "type": "address"
        },
        {
          "internalType": "uint256",
          "name": "initialUsdTokenAmount",
          "type": "uint256"
        },
        {
          "internalType": "uint256",
          "name": "usdTokenFeesCollected",
          "type": "uint256"
        },
        {
          "internalType": "uint256",
          "name": "usdPerformanceFeesCollected",
          "type": "uint256"
        },
        {
          "internalType": "uint256",
          "name": "usdManagementFeesCollected",
          "type": "uint256"
        },
        {
          "internalType": "uint256",
          "name": "initialFundAmount",
          "type": "uint256"
        },
        {
          "internalType": "uint256",
          "name": "fundAmount",
          "type": "uint256"
        },
        {
          "internalType": "uint256",
          "name": "timestamp",
          "type": "uint256"
        },
        {
          "internalType": "uint256",
          "name": "lastFeeTimestamp",
          "type": "uint256"
        },
        {
          "internalType": "bool",
          "name": "redeemed",
          "type": "bool"
        }
      ],
      "stateMutability": "view",
      "type": "function"
    },
    {
      "inputs": [],
      "name": "investmentsEnabled",
      "outputs": [
        {
          "internalType": "bool",
          "name": "",
          "type": "bool"
        }
      ],
      "stateMutability": "view",
      "type": "function"
    },
    {
      "inputs": [],
      "name": "logoUrl",
      "outputs": [
        {
          "internalType": "string",
          "name": "",
          "type": "string"
        }
      ],
      "stateMutability": "view",
      "type": "function"
    },
    {
      "inputs": [],
      "name": "managementFee",
      "outputs": [
        {
          "internalType": "uint256",
          "name": "",
          "type": "uint256"
        }
      ],
      "stateMutability": "view",
      "type": "function"
    },
    {
      "inputs": [],
      "name": "manager",
      "outputs": [
        {
          "internalType": "address",
          "name": "",
          "type": "address"
        }
      ],
      "stateMutability": "view",
      "type": "function"
    },
    {
      "inputs": [],
      "name": "name",
      "outputs": [
        {
          "internalType": "string",
          "name": "",
          "type": "string"
        }
      ],
      "stateMutability": "view",
      "type": "function"
    },
    {
      "inputs": [],
      "name": "performanceFee",
      "outputs": [
        {
          "internalType": "uint256",
          "name": "",
          "type": "uint256"
        }
      ],
      "stateMutability": "view",
      "type": "function"
    },
    {
      "inputs": [
        {
          "internalType": "uint256[]",
          "name": "investmentIds",
          "type": "uint256[]"
        },
        {
          "internalType": "uint256",
          "name": "deadline",
          "type": "uint256"
        }
      ],
      "name": "processFees",
      "outputs": [],
      "stateMutability": "nonpayable",
      "type": "function"
    },
    {
      "inputs": [
        {
          "internalType": "uint256[]",
          "name": "investmentIds",
          "type": "uint256[]"
        },
        {
          "internalType": "uint256",
          "name": "minUsdTokenAmount",
          "type": "uint256"
        },
        {
          "internalType": "uint256",
          "name": "deadline",
          "type": "uint256"
        }
      ],
      "name": "processRedemptions",
      "outputs": [],
      "stateMutability": "nonpayable",
      "type": "function"
    },
    {
      "inputs": [
        {
          "internalType": "uint256",
          "name": "minUsdTokenAmount",
          "type": "uint256"
        },
        {
          "internalType": "uint256[]",
          "name": "investmentIds",
          "type": "uint256[]"
        },
        {
          "internalType": "uint256",
          "name": "deadline",
          "type": "uint256"
        }
      ],
      "name": "requestRedemption",
      "outputs": [],
      "stateMutability": "nonpayable",
      "type": "function"
    },
    {
      "inputs": [],
      "name": "signedAum",
      "outputs": [
        {
          "internalType": "bool",
          "name": "",
          "type": "bool"
        }
      ],
      "stateMutability": "view",
      "type": "function"
    },
    {
      "inputs": [],
      "name": "symbol",
      "outputs": [
        {
          "internalType": "string",
          "name": "",
          "type": "string"
        }
      ],
      "stateMutability": "view",
      "type": "function"
    },
    {
      "inputs": [],
      "name": "timelock",
      "outputs": [
        {
          "internalType": "uint256",
          "name": "",
          "type": "uint256"
        }
      ],
      "stateMutability": "view",
      "type": "function"
    },
    {
      "inputs": [],
      "name": "totalSupply",
      "outputs": [
        {
          "internalType": "uint256",
          "name": "",
          "type": "uint256"
        }
      ],
      "stateMutability": "view",
      "type": "function"
    },
    {
      "inputs": [
        {
          "internalType": "address",
          "name": "recipient",
          "type": "address"
        },
        {
          "internalType": "uint256",
          "name": "amount",
          "type": "uint256"
        }
      ],
      "name": "transfer",
      "outputs": [
        {
          "internalType": "bool",
          "name": "",
          "type": "bool"
        }
      ],
      "stateMutability": "nonpayable",
      "type": "function"
    },
    {
      "inputs": [
        {
          "internalType": "address",
          "name": "sender",
          "type": "address"
        },
        {
          "internalType": "address",
          "name": "recipient",
          "type": "address"
        },
        {
          "internalType": "uint256",
          "name": "amount",
          "type": "uint256"
        }
      ],
      "name": "transferFrom",
      "outputs": [
        {
          "internalType": "bool",
          "name": "",
          "type": "bool"
        }
      ],
      "stateMutability": "nonpayable",
      "type": "function"
    },
    {
      "inputs": [
        {
          "internalType": "uint256",
          "name": "_aum",
          "type": "uint256"
        },
        {
          "internalType": "uint256",
          "name": "deadline",
          "type": "uint256"
        },
        {
          "internalType": "bytes",
          "name": "signature",
          "type": "bytes"
        }
      ],
      "name": "updateAum",
      "outputs": [],
      "stateMutability": "nonpayable",
      "type": "function"
    },
    {
      "inputs": [
        {
          "internalType": "address",
          "name": "",
          "type": "address"
        }
      ],
      "name": "whitelist",
      "outputs": [
        {
          "internalType": "bool",
          "name": "whitelisted",
          "type": "bool"
        },
        {
          "internalType": "string",
          "name": "name",
          "type": "string"
        }
      ],
      "stateMutability": "view",
      "type": "function"
    },
    {
      "inputs": [
        {
          "internalType": "address[]",
          "name": "investors",
          "type": "address[]"
        },
        {
          "internalType": "string[]",
          "name": "names",
          "type": "string[]"
        }
      ],
      "name": "whitelistMulti",
      "outputs": [],
      "stateMutability": "nonpayable",
      "type": "function"
    },
    {
      "inputs": [
        {
          "internalType": "uint256",
          "name": "usdTokenAmount",
          "type": "uint256"
        },
        {
          "internalType": "address",
          "name": "to",
          "type": "address"
        },
        {
          "internalType": "uint256",
          "name": "deadline",
          "type": "uint256"
        }
      ],
      "name": "withdrawFees",
      "outputs": [],
      "stateMutability": "nonpayable",
      "type": "function"
    }
  ],
  "bytecode": "0x60e06040523480156200001157600080fd5b506040516200429f3803806200429f833981016040819052620000349162000351565b8251839083906200004d9060039060208501906200020a565b508051620000639060049060208401906200020a565b50506005805460ff19166012179055506200007d620001f0565b600560016101000a8154816001600160a01b0302191690836001600160a01b03160217905550620001ab600560019054906101000a90046001600160a01b03166001600160a01b031663f897a22b6040518163ffffffff1660e01b815260040160206040518083038186803b158015620000f657600080fd5b505afa1580156200010b573d6000803e3d6000fd5b505050506040513d601f19601f8201168201806040525081019062000131919062000421565b6001600160a01b031663313ce5676040518163ffffffff1660e01b815260040160206040518083038186803b1580156200016a57600080fd5b505afa1580156200017f573d6000803e3d6000fd5b505050506040513d601f19601f82011682018060405250810190620001a5919062000447565b620001f4565b6001600160601b0319606087811b821660805286901b1660a05283151560f81b60c0528051620001e390600a9060208401906200020a565b5050505050505062000483565b3390565b6005805460ff191660ff92909216919091179055565b828054600181600116156101000203166002900490600052602060002090601f0160209004810192826200024257600085556200028d565b82601f106200025d57805160ff19168380011785556200028d565b828001600101855582156200028d579182015b828111156200028d57825182559160200191906001019062000270565b506200029b9291506200029f565b5090565b5b808211156200029b5760008155600101620002a0565b600082601f830112620002c7578081fd5b81516001600160401b0380821115620002dc57fe5b6040516020601f8401601f1916820181018381118382101715620002fc57fe5b604052838252858401810187101562000313578485fd5b8492505b8383101562000336578583018101518284018201529182019162000317565b838311156200034757848185840101525b5095945050505050565b60008060008060008060c087890312156200036a578182fd5b865162000377816200046a565b60208801519096506200038a816200046a565b60408801519095508015158114620003a0578283fd5b60608801519094506001600160401b0380821115620003bd578384fd5b620003cb8a838b01620002b6565b94506080890151915080821115620003e1578384fd5b620003ef8a838b01620002b6565b935060a089015191508082111562000405578283fd5b506200041489828a01620002b6565b9150509295509295509295565b60006020828403121562000433578081fd5b815162000440816200046a565b9392505050565b60006020828403121562000459578081fd5b815160ff8116811462000440578182fd5b6001600160a01b03811681146200048057600080fd5b50565b60805160601c60a05160601c60c05160f81c613daa620004f560003980610666528061235c5250806109365280610edb52806112d85250806108e45280610a835280610c5e5280610fd6528061138352806117e352806119595280612066528061238452806126ec5250613daa6000f3fe608060405234801561001057600080fd5b506004361061021c5760003560e01c806379aba36d11610125578063a6891051116100ad578063c45a01551161007c578063c45a01551461042e578063d33219b414610436578063dd62ed3e1461043e578063f3aaaad714610451578063fd345c8a146104645761021c565b8063a6891051146103f8578063a6f7f5d614610400578063a9059cbb14610408578063a9476fa21461041b5761021c565b806395d89b41116100f457806395d89b41146103a1578063993d77af146103a95780639b19251a146103b1578063a3c139d7146103d2578063a457c2d7146103e55761021c565b806379aba36d146103605780638655bb4314610373578063877887821461038657806388c249201461038e5761021c565b806339509351116101a85780635a1bd61c116101775780635a1bd61c1461030c5780636629e6591461031f57806370a082311461033257806372ad692e1461034557806377bd5105146103585761021c565b806339509351146102c7578063431b3244146102da578063481c6a75146102ef5780634c35833d146103045761021c565b806318160ddd116101ef57806318160ddd1461027c5780631bc8ad1a1461028457806323b872dd14610297578063313ce567146102aa578063330d83fa146102bf5761021c565b806306fdde0314610221578063095ea7b31461023f5780630ab51bac1461025f578063158ef93e14610274575b600080fd5b61022961048d565b60405161023691906136c9565b60405180910390f35b61025261024d366004613163565b610523565b6040516102369190613674565b610267610541565b6040516102369190613a5f565b610252610547565b610267610555565b6102676102923660046132d0565b61055b565b6102526102a5366004613123565b6105d3565b6102b261065b565b6040516102369190613acf565b610252610664565b6102526102d5366004613163565b610688565b6102ed6102e83660046133a2565b6106d6565b005b6102f76108e2565b60405161023691906135ed565b610267610906565b6102ed61031a366004613463565b61090c565b6102ed61032d366004613237565b610a14565b6102676103403660046130b3565b610c41565b6102ed61035336600461337c565b610c5c565b610252610db9565b6102ed61036e366004613438565b610dc2565b6102ed6103813660046133f3565b610eb2565b610267610fce565b6102ed61039c3660046131ce565b610fd4565b61022961108d565b6102296110ee565b6103c46103bf3660046130b3565b61117c565b60405161023692919061367f565b6102676103e03660046132d0565b61122a565b6102526103f3366004613163565b61126e565b6102f76112d6565b6102676112fa565b610252610416366004613163565b611300565b6102ed610429366004613281565b611314565b6102f7611912565b610267611926565b61026761044c3660046130eb565b61192c565b6102ed61045f36600461318e565b611957565b610477610472366004613364565b611a75565b6040516102369a99989796959493929190613622565b60038054604080516020601f60026000196101006001881615020190951694909404938401819004810282018101909252828152606093909290918301828280156105195780601f106104ee57610100808354040283529160200191610519565b820191906000526020600020905b8154815290600101906020018083116104fc57829003601f168201915b5050505050905090565b6000610537610530611ae6565b8484611aea565b5060015b92915050565b600b5481565b600954610100900460ff1681565b60025490565b600080610566610555565b9050600061058d826105878660a00151600b54611bd690919063ffffffff16565b90611c2f565b9050600084602001518211156105c9576105c66127106105876008546105c0896020015187611c7190919063ffffffff16565b90611bd6565b90505b925050505b919050565b60006105e0848484611cb3565b610650846105ec611ae6565b61064b85604051806060016040528060288152602001613c74602891396001600160a01b038a1660009081526001602052604081209061062a611ae6565b6001600160a01b031681526020810191909152604001600020549190611e0e565b611aea565b5060015b9392505050565b60055460ff1690565b7f000000000000000000000000000000000000000000000000000000000000000081565b6000610537610695611ae6565b8461064b85600160006106a6611ae6565b6001600160a01b03908116825260208083019390935260409182016000908120918c168152925290205490611ea5565b600954610100900460ff166107065760405162461bcd60e51b81526004016106fd906138c5565b60405180910390fd5b61070e610555565b61072a5760405162461bcd60e51b81526004016106fd906137e9565b60095460ff1661074c5760405162461bcd60e51b81526004016106fd90613917565b600c6000610758611ae6565b6001600160a01b0316815260208101919091526040016000205460ff1615156001146107965760405162461bcd60e51b81526004016106fd906138ee565b80804211156107b75760405162461bcd60e51b81526004016106fd90613a38565b60006107c1611ae6565b905060005b84811015610894576000600d8787848181106107de57fe5b90506020020135815481106107ef57fe5b60009182526020909120600a9091020180549091506001600160a01b0384811691161461082e5760405162461bcd60e51b81526004016106fd906139aa565b600981015460ff16156108535760405162461bcd60e51b81526004016106fd906139e1565b4261086d6006548360070154611ea590919063ffffffff16565b111561088b5760405162461bcd60e51b81526004016106fd906138a0565b506001016107c6565b50806001600160a01b03167fcfb9208347ccc39aaddc9759318936d34c26c238e90370ec8122a7eb251013b18787876040516108d293929190613a68565b60405180910390a2505050505050565b7f000000000000000000000000000000000000000000000000000000000000000081565b600e5481565b600954610100900460ff16156109345760405162461bcd60e51b81526004016106fd90613a0b565b7f00000000000000000000000000000000000000000000000000000000000000006001600160a01b0316610966611ae6565b6001600160a01b03161461098c5760405162461bcd60e51b81526004016106fd906137c0565b81804211156109ad5760405162461bcd60e51b81526004016106fd90613a38565b600087116109ba57600080fd5b60068b905560078a905560088990556009805460ff19168915151790556109e2868686611eff565b6109ee86886001611fd7565b6109f8838361235a565b50506009805461ff001916610100179055505050505050505050565b600954610100900460ff16610a3b5760405162461bcd60e51b81526004016106fd906138c5565b610a43610555565b610a5f5760405162461bcd60e51b81526004016106fd906137e9565b60095460ff16610a815760405162461bcd60e51b81526004016106fd90613917565b7f00000000000000000000000000000000000000000000000000000000000000006001600160a01b0316610ab3611ae6565b6001600160a01b031614610ad95760405162461bcd60e51b81526004016106fd9061374d565b8080421115610afa5760405162461bcd60e51b81526004016106fd90613a38565b60008060005b85811015610bcb576000600d888884818110610b1857fe5b9050602002013581548110610b2957fe5b60009182526020909120600a90910201600981015490915060ff1615610b615760405162461bcd60e51b81526004016106fd906139e1565b60088101544290610b759062278d00611ea5565b1115610b935760405162461bcd60e51b81526004016106fd906136dc565b600080610b9f836124a2565b9092509050610bae8683611ea5565b9550610bba8582611ea5565b94505060019092019150610b009050565b507fe10232cb082ad9d2567dc8f6dcfdd590b915dc2c23630cebc1c8bf93dae190f182828888604051610c019493929190613a99565b60405180910390a1600080516020613d06833981519152600b54610c23610555565b604051610c31929190613a8b565b60405180910390a1505050505050565b6001600160a01b031660009081526020819052604090205490565b7f00000000000000000000000000000000000000000000000000000000000000006001600160a01b0316610c8e611ae6565b6001600160a01b031614610cb45760405162461bcd60e51b81526004016106fd9061374d565b8080421115610cd55760405162461bcd60e51b81526004016106fd90613a38565b610d72308486600560019054906101000a90046001600160a01b03166001600160a01b031663f897a22b6040518163ffffffff1660e01b815260040160206040518083038186803b158015610d2957600080fd5b505afa158015610d3d573d6000803e3d6000fd5b505050506040513d601f19601f82011682018060405250810190610d6191906130cf565b6001600160a01b0316929190612771565b826001600160a01b03167fc0819c13be868895eb93e40eaceb96de976442fa1d404e5c55f14bb65a8c489a85604051610dab9190613a5f565b60405180910390a250505050565b60095460ff1681565b600954610100900460ff16610de95760405162461bcd60e51b81526004016106fd906138c5565b610df1610555565b610e0d5760405162461bcd60e51b81526004016106fd906137e9565b60095460ff16610e2f5760405162461bcd60e51b81526004016106fd90613917565b600c6000610e3b611ae6565b6001600160a01b0316815260208101919091526040016000205460ff161515600114610e795760405162461bcd60e51b81526004016106fd906138ee565b8080421115610e9a5760405162461bcd60e51b81526004016106fd90613a38565b610eac610ea5611ae6565b8585611fd7565b50505050565b600954610100900460ff16610ed95760405162461bcd60e51b81526004016106fd906138c5565b7f00000000000000000000000000000000000000000000000000000000000000006001600160a01b0316610f0b611ae6565b6001600160a01b031614610f315760405162461bcd60e51b81526004016106fd906137c0565b8280421115610f525760405162461bcd60e51b81526004016106fd90613a38565b84600b81905550610f998484848080601f01602080910402602001604051908101604052809392919081815260200183838082843760009201919091525061235a92505050565b600080516020613d0683398151915285610fb1610555565b604051610fbf929190613a8b565b60405180910390a15050505050565b60085481565b7f00000000000000000000000000000000000000000000000000000000000000006001600160a01b0316611006611ae6565b6001600160a01b03161461102c5760405162461bcd60e51b81526004016106fd9061374d565b60005b838110156110865761107e85858381811061104657fe5b905060200201602081019061105b91906130b3565b84848481811061106757fe5b90506020028101906110799190613add565b611eff565b60010161102f565b5050505050565b60048054604080516020601f60026000196101006001881615020190951694909404938401819004810282018101909252828152606093909290918301828280156105195780601f106104ee57610100808354040283529160200191610519565b600a805460408051602060026001851615610100026000190190941693909304601f810184900484028201840190925281815292918301828280156111745780601f1061114957610100808354040283529160200191611174565b820191906000526020600020905b81548152906001019060200180831161115757829003601f168201915b505050505081565b600c602090815260009182526040918290208054600180830180548651600261010094831615949094026000190190911692909204601f810186900486028301860190965285825260ff9092169492939092908301828280156112205780601f106111f557610100808354040283529160200191611220565b820191906000526020600020905b81548152906001019060200180831161120357829003601f168201915b5050505050905082565b6000806112448360e0015142611c7190919063ffffffff16565b905060006105c9644979cb9e0061058786602001516105c060075487611bd690919063ffffffff16565b600061053761127b611ae6565b8461064b85604051806060016040528060258152602001613d5060259139600160006112a5611ae6565b6001600160a01b03908116825260208083019390935260409182016000908120918d16815292529020549190611e0e565b7f000000000000000000000000000000000000000000000000000000000000000081565b60075481565b600061053761130d611ae6565b8484611cb3565b600954610100900460ff1661133b5760405162461bcd60e51b81526004016106fd906138c5565b611343610555565b61135f5760405162461bcd60e51b81526004016106fd906137e9565b60095460ff166113815760405162461bcd60e51b81526004016106fd90613917565b7f00000000000000000000000000000000000000000000000000000000000000006001600160a01b03166113b3611ae6565b6001600160a01b0316146113d95760405162461bcd60e51b81526004016106fd9061374d565b80804211156113fa5760405162461bcd60e51b81526004016106fd90613a38565b600e54600114801561140c5750600184145b156115db5782600b5410156114335760405162461bcd60e51b81526004016106fd9061394e565b6000600d8686600081811061144457fe5b905060200201358154811061145557fe5b60009182526020909120600a90910201600981015490915060ff161561148d5760405162461bcd60e51b81526004016106fd906139e1565b426114a76006548360070154611ea590919063ffffffff16565b11156114c55760405162461bcd60e51b81526004016106fd906138a0565b6000806114d1836124a2565b60098501805460ff19166001179055600e80546000190190558454600686015492945090925061150c916001600160a01b03909116906127cb565b600b805460009091556040517fe10232cb082ad9d2567dc8f6dcfdd590b915dc2c23630cebc1c8bf93dae190f19061154b90859085908d908d90613a99565b60405180910390a1835460068501546040516001600160a01b03909216917fd4fe30e0dfe75bc29d5bfbc1f4a10133848ddb5322b8117cca9103e23440e5e69161159a9185908e908e90613a99565b60405180910390a2600080516020613d06833981519152600b546115bc610555565b6040516115ca929190613a8b565b60405180910390a150505050611086565b6000600d868660008181106115ec57fe5b90506020020135815481106115fd57fe5b600091825260208220600a90910201546001600160a01b03169150808080805b898110156117a0578a8a8281811061163157fe5b90506020020135600014156116585760405162461bcd60e51b81526004016106fd90613772565b6000600d8c8c8481811061166857fe5b905060200201358154811061167957fe5b60009182526020909120600a90910201600981015490915060ff16156116b15760405162461bcd60e51b81526004016106fd906139e1565b426116cb6006548360070154611ea590919063ffffffff16565b11156116e95760405162461bcd60e51b81526004016106fd906138a0565b80546001600160a01b038881169116146117155760405162461bcd60e51b81526004016106fd90613811565b600080611721836124a2565b90925090506117308683611ea5565b955061173c8582611ea5565b60098401805460ff19166001179055600e805460001901905560068401549095506117679088611ea5565b965061178f88611789611778610555565b600b54600688015461058791611bd6565b90611ea5565b9750506001909201915061161d9050565b50878410156117c15760405162461bcd60e51b81526004016106fd9061394e565b6117cb85846127cb565b600b546117d89085611c71565b600b819055506118527f00000000000000000000000000000000000000000000000000000000000000008686600560019054906101000a90046001600160a01b03166001600160a01b031663f897a22b6040518163ffffffff1660e01b815260040160206040518083038186803b158015610d2957600080fd5b7fe10232cb082ad9d2567dc8f6dcfdd590b915dc2c23630cebc1c8bf93dae190f182828c8c6040516118879493929190613a99565b60405180910390a1846001600160a01b03167fd4fe30e0dfe75bc29d5bfbc1f4a10133848ddb5322b8117cca9103e23440e5e684868d8d6040516118ce9493929190613a99565b60405180910390a2600080516020613d06833981519152600b546118f0610555565b6040516118fe929190613a8b565b60405180910390a150505050505050505050565b60055461010090046001600160a01b031681565b60065481565b6001600160a01b03918216600090815260016020908152604080832093909416825291909152205490565b7f00000000000000000000000000000000000000000000000000000000000000006001600160a01b0316611989611ae6565b6001600160a01b0316146119af5760405162461bcd60e51b81526004016106fd9061374d565b60005b81811015611a7057600c60008484848181106119ca57fe5b90506020020160208101906119df91906130b3565b6001600160a01b0316815260208101919091526040016000908120805460ff1916815590611a106001830182612f27565b5050828282818110611a1e57fe5b9050602002016020810190611a3391906130b3565b6001600160a01b03167fffa4e6181777692565cf28528fc88fd1516ea86b56da075235fa575af6a4b85560405160405180910390a26001016119b2565b505050565b600d8181548110611a8557600080fd5b60009182526020909120600a909102018054600182015460028301546003840154600485015460058601546006870154600788015460088901546009909901546001600160a01b039098169950959794969395929491939092919060ff168a565b3390565b6001600160a01b038316611b2f5760405162461bcd60e51b8152600401808060200182810382526024815260200180613ce26024913960400191505060405180910390fd5b6001600160a01b038216611b745760405162461bcd60e51b8152600401808060200182810382526022815260200180613ba16022913960400191505060405180910390fd5b6001600160a01b03808416600081815260016020908152604080832094871680845294825291829020859055815185815291517f8c5be1e5ebec7d5bd14f71427d1e84f3dd0314c0f7b2291e5b200ac8c7c3b9259281900390910190a3505050565b600082611be55750600061053b565b82820282848281611bf257fe5b04146106545760405162461bcd60e51b8152600401808060200182810382526021815260200180613c536021913960400191505060405180910390fd5b600061065483836040518060400160405280601a81526020017f536166654d6174683a206469766973696f6e206279207a65726f0000000000008152506128c7565b600061065483836040518060400160405280601e81526020017f536166654d6174683a207375627472616374696f6e206f766572666c6f770000815250611e0e565b6001600160a01b038316611cf85760405162461bcd60e51b8152600401808060200182810382526025815260200180613cbd6025913960400191505060405180910390fd5b6001600160a01b038216611d3d5760405162461bcd60e51b8152600401808060200182810382526023815260200180613b5c6023913960400191505060405180910390fd5b611d4883838361292c565b611d8581604051806060016040528060268152602001613bc3602691396001600160a01b0386166000908152602081905260409020549190611e0e565b6001600160a01b038085166000908152602081905260408082209390935590841681522054611db49082611ea5565b6001600160a01b038084166000818152602081815260409182902094909455805185815290519193928716927fddf252ad1be2c89b69c2b068fc378daa952ba7f163c4a11628f55a4df523b3ef92918290030190a3505050565b60008184841115611e9d5760405162461bcd60e51b81526004018080602001828103825283818151815260200191508051906020019080838360005b83811015611e62578181015183820152602001611e4a565b50505050905090810190601f168015611e8f5780820380516001836020036101000a031916815260200191505b509250505060405180910390fd5b505050900390565b600082820183811015610654576040805162461bcd60e51b815260206004820152601b60248201527f536166654d6174683a206164646974696f6e206f766572666c6f770000000000604482015290519081900360640190fd5b604051806040016040528060011515815260200183838080601f01602080910402602001604051908101604052809392919081815260200183838082843760009201829052509390945250506001600160a01b0386168152600c602090815260409091208351815460ff1916901515178155838201518051919350611f8b926001850192910190612f6e565b50905050826001600160a01b03167f3feccebfacde99065c8796a177e49cc8db48e50a6034f441dd9650d7e5b17fa88383604051611fca92919061369a565b60405180910390a2505050565b600082118015611fe75750600081115b6120035760405162461bcd60e51b81526004016106fd90613985565b600d5460008161201f57612018846064611bd6565b905061203a565b612037600b54610587612030610555565b8790611bd6565b90505b8281101561205a5760405162461bcd60e51b81526004016106fd90613869565b81156120d4576120d4857f000000000000000000000000000000000000000000000000000000000000000086600560019054906101000a90046001600160a01b03166001600160a01b031663f897a22b6040518163ffffffff1660e01b815260040160206040518083038186803b158015610d2957600080fd5b600b546120e19085611ea5565b600b556120ee8582612970565b60408051610140810182526001600160a01b03878116808352602083018881526000848601818152606086018281526080870183815260a088018a815260c089018b81524260e08b019081526101008b018781526101208c01888152600d80546001808201835591909a529c517fd7b6990105719101dabeb77144f2a3385c8033acd3af97e9423a695e81ad1eb5600a909a02998a0180546001600160a01b03191691909d1617909b5597517fd7b6990105719101dabeb77144f2a3385c8033acd3af97e9423a695e81ad1eb688015594517fd7b6990105719101dabeb77144f2a3385c8033acd3af97e9423a695e81ad1eb787015592517fd7b6990105719101dabeb77144f2a3385c8033acd3af97e9423a695e81ad1eb886015590517fd7b6990105719101dabeb77144f2a3385c8033acd3af97e9423a695e81ad1eb9850155517fd7b6990105719101dabeb77144f2a3385c8033acd3af97e9423a695e81ad1eba840155517fd7b6990105719101dabeb77144f2a3385c8033acd3af97e9423a695e81ad1ebb830155517fd7b6990105719101dabeb77144f2a3385c8033acd3af97e9423a695e81ad1ebc82015590517fd7b6990105719101dabeb77144f2a3385c8033acd3af97e9423a695e81ad1ebd82015591517fd7b6990105719101dabeb77144f2a3385c8033acd3af97e9423a695e81ad1ebe909201805460ff191692151592909217909155600e805490920190915590517f9bce88ff835d9d8831ccf5c7e04a2533f68510314393b3a54f990dea62e7134e9061233890879085908790613ab9565b60405180910390a2600080516020613d06833981519152600b54610fb1610555565b7f00000000000000000000000000000000000000000000000000000000000000001561249e5760007f0000000000000000000000000000000000000000000000000000000000000000600b54846040516020016123b993929190613601565b60405160208183030381529060405280519060200120905060006123e6836123e084612a60565b90612ab1565b9050600560019054906101000a90046001600160a01b03166001600160a01b0316638da5cb5b6040518163ffffffff1660e01b815260040160206040518083038186803b15801561243657600080fd5b505afa15801561244a573d6000803e3d6000fd5b505050506040513d601f19601f8201168201806040525081019061246e91906130cf565b6001600160a01b0316816001600160a01b031614610eac5760405162461bcd60e51b81526004016106fd90613724565b5050565b604080516101408101825282546001600160a01b03168152600183015460208201526002830154918101919091526003820154606082015260048201546080820152600582015460a0820152600682015460c0820152600782015460e08201526008820154610100820152600982015460ff1615156101208201526000908190819061252d9061122a565b604080516101408101825286546001600160a01b03168152600187015460208201526002870154918101919091526003860154606082015260048601546080820152600586015460a0820152600686015460c0820152600786015460e08201526008860154610100820152600986015460ff1615156101208201529091506000906125b79061055b565b905060006125c58383611ea5565b905060006125d1610555565b905060008060006125ef8a6004015488611c7190919063ffffffff16565b9050600061260c600b546105878a88611bd690919063ffffffff16565b90506126188382611ea5565b60048c0189905560068c01549093506126319082611c71565b60068c015560038b015460009088111561269e5760038c0154612655908990611c71565b90506000612672600b54610587848a611bd690919063ffffffff16565b905061267e8582611ea5565b60038e018a905560068e01549095506126979082611c71565b60068e0155505b6126a88382611ea5565b60028d01549095506126ba9086611ea5565b60028d01558b546126d4906001600160a01b0316856127cb565b600b546126e19086611c71565b600b8190555061275b7f00000000000000000000000000000000000000000000000000000000000000003087600560019054906101000a90046001600160a01b03166001600160a01b031663f897a22b6040518163ffffffff1660e01b815260040160206040518083038186803b158015610d2957600080fd5b50504260088b0155509650945050505050915091565b604080516001600160a01b0380861660248301528416604482015260648082018490528251808303909101815260849091019091526020810180516001600160e01b03166323b872dd60e01b179052610eac908590612c98565b6001600160a01b0382166128105760405162461bcd60e51b8152600401808060200182810382526021815260200180613c9c6021913960400191505060405180910390fd5b61281c8260008361292c565b61285981604051806060016040528060228152602001613b7f602291396001600160a01b0385166000908152602081905260409020549190611e0e565b6001600160a01b03831660009081526020819052604090205560025461287f9082611c71565b6002556040805182815290516000916001600160a01b038516917fddf252ad1be2c89b69c2b068fc378daa952ba7f163c4a11628f55a4df523b3ef9181900360200190a35050565b600081836129165760405162461bcd60e51b8152602060048201818152835160248401528351909283926044909101919085019080838360008315611e62578181015183820152602001611e4a565b50600083858161292257fe5b0495945050505050565b612937838383611a70565b6001600160a01b038316158061295457506001600160a01b038216155b611a705760405162461bcd60e51b81526004016106fd90613840565b6001600160a01b0382166129cb576040805162461bcd60e51b815260206004820152601f60248201527f45524332303a206d696e7420746f20746865207a65726f206164647265737300604482015290519081900360640190fd5b6129d76000838361292c565b6002546129e49082611ea5565b6002556001600160a01b038216600090815260208190526040902054612a0a9082611ea5565b6001600160a01b0383166000818152602081815260408083209490945583518581529351929391927fddf252ad1be2c89b69c2b068fc378daa952ba7f163c4a11628f55a4df523b3ef9281900390910190a35050565b604080517f19457468657265756d205369676e6564204d6573736167653a0a333200000000602080830191909152603c8083019490945282518083039094018452605c909101909152815191012090565b60008151604114612b09576040805162461bcd60e51b815260206004820152601f60248201527f45434453413a20696e76616c6964207369676e6174757265206c656e67746800604482015290519081900360640190fd5b60208201516040830151606084015160001a7f7fffffffffffffffffffffffffffffff5d576e7357a4501ddfe92f46681b20a0821115612b7a5760405162461bcd60e51b8152600401808060200182810382526022815260200180613be96022913960400191505060405180910390fd5b8060ff16601b1480612b8f57508060ff16601c145b612bca5760405162461bcd60e51b8152600401808060200182810382526022815260200180613c316022913960400191505060405180910390fd5b600060018783868660405160008152602001604052604051808581526020018460ff1681526020018381526020018281526020019450505050506020604051602081039080840390855afa158015612c26573d6000803e3d6000fd5b5050604051601f1901519150506001600160a01b038116612c8e576040805162461bcd60e51b815260206004820152601860248201527f45434453413a20696e76616c6964207369676e61747572650000000000000000604482015290519081900360640190fd5b9695505050505050565b6000612ced826040518060400160405280602081526020017f5361666545524332303a206c6f772d6c6576656c2063616c6c206661696c6564815250856001600160a01b0316612d499092919063ffffffff16565b805190915015611a7057808060200190516020811015612d0c57600080fd5b5051611a705760405162461bcd60e51b815260040180806020018281038252602a815260200180613d26602a913960400191505060405180910390fd5b6060612d588484600085612d60565b949350505050565b606082471015612da15760405162461bcd60e51b8152600401808060200182810382526026815260200180613c0b6026913960400191505060405180910390fd5b612daa85612ebb565b612dfb576040805162461bcd60e51b815260206004820152601d60248201527f416464726573733a2063616c6c20746f206e6f6e2d636f6e7472616374000000604482015290519081900360640190fd5b600080866001600160a01b031685876040518082805190602001908083835b60208310612e395780518252601f199092019160209182019101612e1a565b6001836020036101000a03801982511681845116808217855250505050505090500191505060006040518083038185875af1925050503d8060008114612e9b576040519150601f19603f3d011682016040523d82523d6000602084013e612ea0565b606091505b5091509150612eb0828286612ec1565b979650505050505050565b3b151590565b60608315612ed0575081610654565b825115612ee05782518084602001fd5b60405162461bcd60e51b8152602060048201818152845160248401528451859391928392604401919085019080838360008315611e62578181015183820152602001611e4a565b50805460018160011615610100020316600290046000825580601f10612f4d5750612f6b565b601f016020900490600052602060002090810190612f6b9190612ffa565b50565b828054600181600116156101000203166002900490600052602060002090601f016020900481019282612fa45760008555612fea565b82601f10612fbd57805160ff1916838001178555612fea565b82800160010185558215612fea579182015b82811115612fea578251825591602001919060010190612fcf565b50612ff6929150612ffa565b5090565b5b80821115612ff65760008155600101612ffb565b80356105ce81613b46565b60008083601f84011261302b578081fd5b50813567ffffffffffffffff811115613042578182fd5b602083019150836020808302850101111561305c57600080fd5b9250929050565b803580151581146105ce57600080fd5b60008083601f840112613084578182fd5b50813567ffffffffffffffff81111561309b578182fd5b60208301915083602082850101111561305c57600080fd5b6000602082840312156130c4578081fd5b813561065481613b46565b6000602082840312156130e0578081fd5b815161065481613b46565b600080604083850312156130fd578081fd5b823561310881613b46565b9150602083013561311881613b46565b809150509250929050565b600080600060608486031215613137578081fd5b833561314281613b46565b9250602084013561315281613b46565b929592945050506040919091013590565b60008060408385031215613175578182fd5b823561318081613b46565b946020939093013593505050565b600080602083850312156131a0578182fd5b823567ffffffffffffffff8111156131b6578283fd5b6131c28582860161301a565b90969095509350505050565b600080600080604085870312156131e3578081fd5b843567ffffffffffffffff808211156131fa578283fd5b6132068883890161301a565b9096509450602087013591508082111561321e578283fd5b5061322b8782880161301a565b95989497509550505050565b60008060006040848603121561324b578283fd5b833567ffffffffffffffff811115613261578384fd5b61326d8682870161301a565b909790965060209590950135949350505050565b60008060008060608587031215613296578384fd5b843567ffffffffffffffff8111156132ac578485fd5b6132b88782880161301a565b90989097506020870135966040013595509350505050565b60006101408083850312156132e3578182fd5b6132ec81613b22565b90506132f78361300f565b81526020830135602082015260408301356040820152606083013560608201526080830135608082015260a083013560a082015260c083013560c082015260e083013560e0820152610100808401358183015250610120613359818501613063565b908201529392505050565b600060208284031215613375578081fd5b5035919050565b600080600060608486031215613390578081fd5b83359250602084013561315281613b46565b600080600080606085870312156133b7578182fd5b84359350602085013567ffffffffffffffff8111156133d4578283fd5b6133e08782880161301a565b9598909750949560400135949350505050565b60008060008060608587031215613408578182fd5b8435935060208501359250604085013567ffffffffffffffff81111561342c578283fd5b61322b87828801613073565b60008060006060848603121561344c578081fd5b505081359360208301359350604090920135919050565b6000806000806000806000806000806101208b8d031215613482578788fd5b8a35995060208b0135985060408b013597506134a060608c01613063565b965060808b0135955060a08b01356134b781613b46565b945060c08b013567ffffffffffffffff808211156134d3578586fd5b6134df8e838f01613073565b909650945060e08d013593506101008d01359150808211156134ff578283fd5b818d0191508d601f830112613512578283fd5b81358181111561351e57fe5b613531601f8201601f1916602001613b22565b91508082528e6020828501011115613547578384fd5b8060208401602084013783602082840101525080925050509295989b9194979a5092959850565b81835260006001600160fb1b03831115613586578081fd5b6020830280836020870137939093016020019283525090919050565b60008151808452815b818110156135c7576020818501810151868301820152016135ab565b818111156135d85782602083870101525b50601f01601f19169290920160200192915050565b6001600160a01b0391909116815260200190565b6001600160a01b039390931683526020830191909152604082015260600190565b6001600160a01b039a909a168a5260208a019890985260408901969096526060880194909452608087019290925260a086015260c085015260e084015261010083015215156101208201526101400190565b901515815260200190565b6000831515825260406020830152612d5860408301846135a2565b60006020825282602083015282846040840137818301604090810191909152601f909201601f19160101919050565b60006020825261065460208301846135a2565b60208082526028908201527f466565206c61737420636f6c6c6563746564206c657373207468616e2061206d6040820152676f6e74682061676f60c01b606082015260800190565b6020808252600f908201526e0a6d2cedccae440dad2e6dac2e8c6d608b1b604082015260600190565b6020808252600b908201526a2737ba1036b0b730b3b2b960a91b604082015260600190565b6020808252602e908201527f496e697469616c20696e766573746d656e74206d75737420626520726564656560408201526d6d65642073657061726174656c7960901b606082015260800190565b6020808252600f908201526e2737ba1020aaa6903ab83230ba32b960891b604082015260600190565b6020808252600e908201526d119d5b99081a5cc818db1bdcd95960921b604082015260600190565b6020808252601590820152742737ba10333937b69037b7329034b73b32b9ba37b960591b604082015260600190565b6020808252600f908201526e21b0b73737ba103a3930b739b332b960891b604082015260600190565b60208082526019908201527f4c657373207468616e206d696e2066756e6420616d6f756e7400000000000000604082015260600190565b6020808252600b908201526a151a5b59481b1bd8dad95960aa1b604082015260600190565b6020808252600f908201526e139bdd081a5b9a5d1a585b1a5e9959608a1b604082015260600190565b6020808252600f908201526e139bdd081dda1a5d195b1a5cdd1959608a1b604082015260600190565b60208082526018908201527f496e766573746d656e7473206172652064697361626c65640000000000000000604082015260600190565b60208082526018908201527f4c657373207468616e206d696e2075736420616d6f756e740000000000000000604082015260600190565b6020808252600b908201526a0416d6f756e7420697320360ac1b604082015260600190565b60208082526017908201527f4e6f742073656e646572277320696e766573746d656e74000000000000000000604082015260600190565b60208082526010908201526f105b1c9958591e481c995919595b595960821b604082015260600190565b602080825260139082015272105b1c9958591e481a5b9a5d1a585b1a5e9959606a1b604082015260600190565b6020808252600d908201526c5061737420646561646c696e6560981b604082015260600190565b90815260200190565b600084825260406020830152613a8260408301848661356e565b95945050505050565b918252602082015260400190565b600085825284602083015260606040830152612c8e60608301848661356e565b9283526020830191909152604082015260600190565b60ff91909116815260200190565b6000808335601e19843603018112613af3578283fd5b83018035915067ffffffffffffffff821115613b0d578283fd5b60200191503681900382131561305c57600080fd5b60405181810167ffffffffffffffff81118282101715613b3e57fe5b604052919050565b6001600160a01b0381168114612f6b57600080fdfe45524332303a207472616e7366657220746f20746865207a65726f206164647265737345524332303a206275726e20616d6f756e7420657863656564732062616c616e636545524332303a20617070726f766520746f20746865207a65726f206164647265737345524332303a207472616e7366657220616d6f756e7420657863656564732062616c616e636545434453413a20696e76616c6964207369676e6174757265202773272076616c7565416464726573733a20696e73756666696369656e742062616c616e636520666f722063616c6c45434453413a20696e76616c6964207369676e6174757265202776272076616c7565536166654d6174683a206d756c7469706c69636174696f6e206f766572666c6f7745524332303a207472616e7366657220616d6f756e74206578636565647320616c6c6f77616e636545524332303a206275726e2066726f6d20746865207a65726f206164647265737345524332303a207472616e736665722066726f6d20746865207a65726f206164647265737345524332303a20617070726f76652066726f6d20746865207a65726f20616464726573731e1223c1f6274c6d64fdb08c485e192bd2896c9abf70e840e199ac1f54d6d1d55361666545524332303a204552433230206f7065726174696f6e20646964206e6f74207375636365656445524332303a2064656372656173656420616c6c6f77616e63652062656c6f77207a65726fa264697066735822122033322e9217539f5c8a3115af5c37cc39d413c53550ac7d9d8c61e35c5997a8e064736f6c63430007060033",
  "linkReferences": {},
  "deployedLinkReferences": {}
}