{
  "_format": "hh-sol-artifact-1",
  "contractName": "SMFund",
  "sourceName": "contracts/SMFund.sol",
  "abi": [
    {
      "inputs": [
        {
          "internalType": "address",
          "name": "_manager",
          "type": "address"
        },
        {
          "internalType": "address",
          "name": "_feeWallet",
          "type": "address"
        },
        {
          "internalType": "address",
          "name": "_aumUpdater",
          "type": "address"
        },
        {
          "internalType": "uint256",
          "name": "_timelock",
          "type": "uint256"
        },
        {
          "internalType": "uint256",
          "name": "_managementFee",
          "type": "uint256"
        },
        {
          "internalType": "uint256",
          "name": "_performanceFee",
          "type": "uint256"
        },
        {
          "internalType": "bool",
          "name": "_investmentsEnabled",
          "type": "bool"
        },
        {
          "internalType": "bool",
          "name": "_signedAum",
          "type": "bool"
        },
        {
          "internalType": "string",
          "name": "name",
          "type": "string"
        },
        {
          "internalType": "string",
          "name": "symbol",
          "type": "string"
        }
      ],
      "stateMutability": "nonpayable",
      "type": "constructor"
    },
    {
      "anonymous": false,
      "inputs": [
        {
          "indexed": true,
          "internalType": "address",
          "name": "owner",
          "type": "address"
        },
        {
          "indexed": true,
          "internalType": "address",
          "name": "spender",
          "type": "address"
        },
        {
          "indexed": false,
          "internalType": "uint256",
          "name": "value",
          "type": "uint256"
        }
      ],
      "name": "Approval",
      "type": "event"
    },
    {
      "anonymous": false,
      "inputs": [
        {
          "indexed": true,
          "internalType": "address",
          "name": "investor",
          "type": "address"
        }
      ],
      "name": "Blacklisted",
      "type": "event"
    },
    {
      "anonymous": false,
      "inputs": [
        {
          "indexed": false,
          "internalType": "uint256",
          "name": "fundAmount",
          "type": "uint256"
        },
        {
          "indexed": false,
          "internalType": "uint256",
          "name": "usdTokenAmount",
          "type": "uint256"
        },
        {
          "indexed": false,
          "internalType": "uint256[]",
          "name": "investmentIds",
          "type": "uint256[]"
        }
      ],
      "name": "FeesCollected",
      "type": "event"
    },
    {
      "anonymous": false,
      "inputs": [
        {
          "indexed": true,
          "internalType": "address",
          "name": "investor",
          "type": "address"
        },
        {
          "indexed": false,
          "internalType": "uint256",
          "name": "usdTokenAmount",
          "type": "uint256"
        },
        {
          "indexed": false,
          "internalType": "uint256",
          "name": "fundAmount",
          "type": "uint256"
        },
        {
          "indexed": false,
          "internalType": "uint256",
          "name": "investmentId",
          "type": "uint256"
        }
      ],
      "name": "Invested",
      "type": "event"
    },
    {
      "anonymous": false,
      "inputs": [
        {
          "indexed": false,
          "internalType": "uint256",
          "name": "aum",
          "type": "uint256"
        },
        {
          "indexed": false,
          "internalType": "uint256",
          "name": "totalSupply",
          "type": "uint256"
        }
      ],
      "name": "NavUpdated",
      "type": "event"
    },
    {
      "anonymous": false,
      "inputs": [
        {
          "indexed": true,
          "internalType": "address",
          "name": "investor",
          "type": "address"
        },
        {
          "indexed": false,
          "internalType": "uint256",
          "name": "fundAmount",
          "type": "uint256"
        },
        {
          "indexed": false,
          "internalType": "uint256",
          "name": "usdTokenAmount",
          "type": "uint256"
        },
        {
          "indexed": false,
          "internalType": "uint256[]",
          "name": "investmentIds",
          "type": "uint256[]"
        }
      ],
      "name": "Redeemed",
      "type": "event"
    },
    {
      "anonymous": false,
      "inputs": [
        {
          "indexed": true,
          "internalType": "address",
          "name": "investor",
          "type": "address"
        },
        {
          "indexed": false,
          "internalType": "uint256",
          "name": "minUsdTokenAmount",
          "type": "uint256"
        },
        {
          "indexed": false,
          "internalType": "uint256[]",
          "name": "investmentIds",
          "type": "uint256[]"
        }
      ],
      "name": "RedemptionRequested",
      "type": "event"
    },
    {
      "anonymous": false,
      "inputs": [
        {
          "indexed": true,
          "internalType": "address",
          "name": "from",
          "type": "address"
        },
        {
          "indexed": true,
          "internalType": "address",
          "name": "to",
          "type": "address"
        },
        {
          "indexed": false,
          "internalType": "uint256",
          "name": "value",
          "type": "uint256"
        }
      ],
      "name": "Transfer",
      "type": "event"
    },
    {
      "anonymous": false,
      "inputs": [
        {
          "indexed": true,
          "internalType": "address",
          "name": "investor",
          "type": "address"
        }
      ],
      "name": "Whitelisted",
      "type": "event"
    },
    {
      "inputs": [],
      "name": "activeInvestmentCount",
      "outputs": [
        {
          "internalType": "uint256",
          "name": "",
          "type": "uint256"
        }
      ],
      "stateMutability": "view",
      "type": "function"
    },
    {
      "inputs": [
        {
          "internalType": "address",
          "name": "owner",
          "type": "address"
        },
        {
          "internalType": "address",
          "name": "spender",
          "type": "address"
        }
      ],
      "name": "allowance",
      "outputs": [
        {
          "internalType": "uint256",
          "name": "",
          "type": "uint256"
        }
      ],
      "stateMutability": "view",
      "type": "function"
    },
    {
      "inputs": [
        {
          "internalType": "address",
          "name": "spender",
          "type": "address"
        },
        {
          "internalType": "uint256",
          "name": "amount",
          "type": "uint256"
        }
      ],
      "name": "approve",
      "outputs": [
        {
          "internalType": "bool",
          "name": "",
          "type": "bool"
        }
      ],
      "stateMutability": "nonpayable",
      "type": "function"
    },
    {
      "inputs": [],
      "name": "aum",
      "outputs": [
        {
          "internalType": "uint256",
          "name": "",
          "type": "uint256"
        }
      ],
      "stateMutability": "view",
      "type": "function"
    },
    {
      "inputs": [],
      "name": "aumUpdater",
      "outputs": [
        {
          "internalType": "address",
          "name": "",
          "type": "address"
        }
      ],
      "stateMutability": "view",
      "type": "function"
    },
    {
      "inputs": [
        {
          "internalType": "address",
          "name": "account",
          "type": "address"
        }
      ],
      "name": "balanceOf",
      "outputs": [
        {
          "internalType": "uint256",
          "name": "",
          "type": "uint256"
        }
      ],
      "stateMutability": "view",
      "type": "function"
    },
    {
      "inputs": [
        {
          "internalType": "address[]",
          "name": "investors",
          "type": "address[]"
        }
      ],
      "name": "blacklistMulti",
      "outputs": [],
      "stateMutability": "nonpayable",
      "type": "function"
    },
    {
      "inputs": [],
      "name": "decimals",
      "outputs": [
        {
          "internalType": "uint8",
          "name": "",
          "type": "uint8"
        }
      ],
      "stateMutability": "view",
      "type": "function"
    },
    {
      "inputs": [
        {
          "internalType": "address",
          "name": "spender",
          "type": "address"
        },
        {
          "internalType": "uint256",
          "name": "subtractedValue",
          "type": "uint256"
        }
      ],
      "name": "decreaseAllowance",
      "outputs": [
        {
          "internalType": "bool",
          "name": "",
          "type": "bool"
        }
      ],
      "stateMutability": "nonpayable",
      "type": "function"
    },
    {
      "inputs": [],
      "name": "factory",
      "outputs": [
        {
          "internalType": "contract SMFundFactory",
          "name": "",
          "type": "address"
        }
      ],
      "stateMutability": "view",
      "type": "function"
    },
    {
      "inputs": [],
      "name": "feeWallet",
      "outputs": [
        {
          "internalType": "address",
          "name": "",
          "type": "address"
        }
      ],
      "stateMutability": "view",
      "type": "function"
    },
    {
      "inputs": [
        {
          "internalType": "address",
          "name": "spender",
          "type": "address"
        },
        {
          "internalType": "uint256",
          "name": "addedValue",
          "type": "uint256"
        }
      ],
      "name": "increaseAllowance",
      "outputs": [
        {
          "internalType": "bool",
          "name": "",
          "type": "bool"
        }
      ],
      "stateMutability": "nonpayable",
      "type": "function"
    },
    {
      "inputs": [
        {
          "internalType": "uint256",
          "name": "initialAum",
          "type": "uint256"
        },
        {
          "internalType": "address",
          "name": "initialInvestor",
          "type": "address"
        },
        {
          "internalType": "uint256",
          "name": "deadline",
          "type": "uint256"
        },
        {
          "internalType": "bytes",
          "name": "signature",
          "type": "bytes"
        }
      ],
      "name": "initialize",
      "outputs": [],
      "stateMutability": "nonpayable",
      "type": "function"
    },
    {
      "inputs": [],
      "name": "initialized",
      "outputs": [
        {
          "internalType": "bool",
          "name": "",
          "type": "bool"
        }
      ],
      "stateMutability": "view",
      "type": "function"
    },
    {
      "inputs": [
        {
          "internalType": "uint256",
          "name": "usdTokenAmount",
          "type": "uint256"
        },
        {
          "internalType": "uint256",
          "name": "minFundAmount",
          "type": "uint256"
        },
        {
          "internalType": "uint256",
          "name": "deadline",
          "type": "uint256"
        }
      ],
      "name": "invest",
      "outputs": [],
      "stateMutability": "nonpayable",
      "type": "function"
    },
    {
      "inputs": [
        {
          "internalType": "uint256",
          "name": "",
          "type": "uint256"
        }
      ],
      "name": "investments",
      "outputs": [
        {
          "internalType": "address",
          "name": "investor",
          "type": "address"
        },
        {
          "internalType": "uint256",
          "name": "initialUsdTokenAmount",
          "type": "uint256"
        },
        {
          "internalType": "uint256",
          "name": "usdTokenFeesCollected",
          "type": "uint256"
        },
        {
          "internalType": "uint256",
          "name": "initialFundAmount",
          "type": "uint256"
        },
        {
          "internalType": "uint256",
          "name": "fundAmount",
          "type": "uint256"
        },
        {
          "internalType": "uint256",
          "name": "timestamp",
          "type": "uint256"
        },
        {
          "internalType": "uint256",
          "name": "lastFeeTimestamp",
          "type": "uint256"
        },
        {
          "internalType": "bool",
          "name": "redeemed",
          "type": "bool"
        }
      ],
      "stateMutability": "view",
      "type": "function"
    },
    {
      "inputs": [],
      "name": "investmentsEnabled",
      "outputs": [
        {
          "internalType": "bool",
          "name": "",
          "type": "bool"
        }
      ],
      "stateMutability": "view",
      "type": "function"
    },
    {
      "inputs": [],
      "name": "managementFee",
      "outputs": [
        {
          "internalType": "uint256",
          "name": "",
          "type": "uint256"
        }
      ],
      "stateMutability": "view",
      "type": "function"
    },
    {
      "inputs": [],
      "name": "manager",
      "outputs": [
        {
          "internalType": "address",
          "name": "",
          "type": "address"
        }
      ],
      "stateMutability": "view",
      "type": "function"
    },
    {
      "inputs": [],
      "name": "name",
      "outputs": [
        {
          "internalType": "string",
          "name": "",
          "type": "string"
        }
      ],
      "stateMutability": "view",
      "type": "function"
    },
    {
      "inputs": [],
      "name": "performanceFee",
      "outputs": [
        {
          "internalType": "uint256",
          "name": "",
          "type": "uint256"
        }
      ],
      "stateMutability": "view",
      "type": "function"
    },
    {
      "inputs": [
        {
          "internalType": "uint256[]",
          "name": "investmentIds",
          "type": "uint256[]"
        },
        {
          "internalType": "uint256",
          "name": "deadline",
          "type": "uint256"
        }
      ],
      "name": "processFees",
      "outputs": [],
      "stateMutability": "nonpayable",
      "type": "function"
    },
    {
      "inputs": [
        {
          "internalType": "uint256[]",
          "name": "investmentIds",
          "type": "uint256[]"
        },
        {
          "internalType": "uint256",
          "name": "minUsdTokenAmount",
          "type": "uint256"
        },
        {
          "internalType": "uint256",
          "name": "deadline",
          "type": "uint256"
        }
      ],
      "name": "processRedemptions",
      "outputs": [],
      "stateMutability": "nonpayable",
      "type": "function"
    },
    {
      "inputs": [
        {
          "internalType": "uint256",
          "name": "minUsdTokenAmount",
          "type": "uint256"
        },
        {
          "internalType": "uint256[]",
          "name": "investmentIds",
          "type": "uint256[]"
        },
        {
          "internalType": "uint256",
          "name": "deadline",
          "type": "uint256"
        }
      ],
      "name": "requestRedemption",
      "outputs": [],
      "stateMutability": "nonpayable",
      "type": "function"
    },
    {
      "inputs": [],
      "name": "signedAum",
      "outputs": [
        {
          "internalType": "bool",
          "name": "",
          "type": "bool"
        }
      ],
      "stateMutability": "view",
      "type": "function"
    },
    {
      "inputs": [],
      "name": "symbol",
      "outputs": [
        {
          "internalType": "string",
          "name": "",
          "type": "string"
        }
      ],
      "stateMutability": "view",
      "type": "function"
    },
    {
      "inputs": [],
      "name": "timelock",
      "outputs": [
        {
          "internalType": "uint256",
          "name": "",
          "type": "uint256"
        }
      ],
      "stateMutability": "view",
      "type": "function"
    },
    {
      "inputs": [],
      "name": "totalSupply",
      "outputs": [
        {
          "internalType": "uint256",
          "name": "",
          "type": "uint256"
        }
      ],
      "stateMutability": "view",
      "type": "function"
    },
    {
      "inputs": [
        {
          "internalType": "address",
          "name": "recipient",
          "type": "address"
        },
        {
          "internalType": "uint256",
          "name": "amount",
          "type": "uint256"
        }
      ],
      "name": "transfer",
      "outputs": [
        {
          "internalType": "bool",
          "name": "",
          "type": "bool"
        }
      ],
      "stateMutability": "nonpayable",
      "type": "function"
    },
    {
      "inputs": [
        {
          "internalType": "address",
          "name": "sender",
          "type": "address"
        },
        {
          "internalType": "address",
          "name": "recipient",
          "type": "address"
        },
        {
          "internalType": "uint256",
          "name": "amount",
          "type": "uint256"
        }
      ],
      "name": "transferFrom",
      "outputs": [
        {
          "internalType": "bool",
          "name": "",
          "type": "bool"
        }
      ],
      "stateMutability": "nonpayable",
      "type": "function"
    },
    {
      "inputs": [
        {
          "internalType": "uint256",
          "name": "_aum",
          "type": "uint256"
        },
        {
          "internalType": "uint256",
          "name": "deadline",
          "type": "uint256"
        },
        {
          "internalType": "bytes",
          "name": "signature",
          "type": "bytes"
        }
      ],
      "name": "updateAum",
      "outputs": [],
      "stateMutability": "nonpayable",
      "type": "function"
    },
    {
      "inputs": [
        {
          "internalType": "address",
          "name": "",
          "type": "address"
        }
      ],
      "name": "whitelist",
      "outputs": [
        {
          "internalType": "bool",
          "name": "",
          "type": "bool"
        }
      ],
      "stateMutability": "view",
      "type": "function"
    },
    {
      "inputs": [
        {
          "internalType": "address[]",
          "name": "investors",
          "type": "address[]"
        }
      ],
      "name": "whitelistMulti",
      "outputs": [],
      "stateMutability": "nonpayable",
      "type": "function"
    }
  ],
  "bytecode": "0x61018060405260016009553480156200001757600080fd5b5060405162003d6838038062003d6883398181016040526101408110156200003e57600080fd5b815160208301516040808501516060860151608087015160a088015160c089015160e08a01516101008b0180519751999b989a969995989497939692959194919392820192846401000000008211156200009757600080fd5b908301906020820185811115620000ad57600080fd5b8251640100000000811182820188101715620000c857600080fd5b82525081516020918201929091019080838360005b83811015620000f7578181015183820152602001620000dd565b50505050905090810190601f168015620001255780820380516001836020036101000a031916815260200191505b50604052602001805160405193929190846401000000008211156200014957600080fd5b9083019060208201858111156200015f57600080fd5b82516401000000008111828201881017156200017a57600080fd5b82525081516020918201929091019080838360005b83811015620001a95781810151838201526020016200018f565b50505050905090810190601f168015620001d75780820380516001836020036101000a031916815260200191505b50604052505082518391508290620001f7906003906020850190620003b2565b5080516200020d906004906020840190620003b2565b50506005805460ff19166012179055506200022762000398565b600560016101000a8154816001600160a01b0302191690836001600160a01b0316021790555062000345600560019054906101000a90046001600160a01b03166001600160a01b031663f897a22b6040518163ffffffff1660e01b815260040160206040518083038186803b158015620002a057600080fd5b505afa158015620002b5573d6000803e3d6000fd5b505050506040513d6020811015620002cc57600080fd5b50516040805163313ce56760e01b815290516001600160a01b039092169163313ce56791600480820192602092909190829003018186803b1580156200031157600080fd5b505afa15801562000326573d6000803e3d6000fd5b505050506040513d60208110156200033d57600080fd5b50516200039c565b50506001600160601b0319606098891b811660805296881b871660a0529490961b90941660c05260e091909152610100526101209190915290151560f890811b61014052901515901b610160526200045e565b3390565b6005805460ff191660ff92909216919091179055565b828054600181600116156101000203166002900490600052602060002090601f016020900481019282620003ea576000855562000435565b82601f106200040557805160ff191683800117855562000435565b8280016001018555821562000435579182015b828111156200043557825182559160200191906001019062000418565b506200044392915062000447565b5090565b5b8082111562000443576000815560010162000448565b60805160601c60a05160601c60c05160601c60e05161010051610120516101405160f81c6101605160f81c6138396200052f60003980610b75528061278a525080610c81528061105b528061136a528061142852806118ef5250806116f75280612be452508061181d5280612b68525080610ea95280611b135280611e30528061229a525080610a5e52806115b452806117f95250806122e95280612caf525080610f9752806110c8528061195c5280611ff252806121cf528061230d52806127b25280612c8e52506138396000f3fe608060405234801561001057600080fd5b50600436106101fb5760003560e01c806379aba36d1161011a578063a9059cbb116100ad578063d33219b41161007c578063d33219b414610799578063dd62ed3e146107a1578063f25f4b56146107cf578063f3aaaad7146107d7578063fd345c8a14610845576101fb565b8063a9059cbb14610683578063a9476fa2146106af578063b214827b14610723578063c45a015514610791576101fb565b80639b19251a116100e95780639b19251a14610621578063a457c2d714610647578063a689105114610673578063a6f7f5d61461067b576101fb565b806379aba36d1461056e5780638655bb4314610597578063877887821461061157806395d89b4114610619576101fb565b8063330d83fa116101925780634c35833d116101615780634c35833d146104ca5780636629e659146104d257806370a082311461054057806377bd510514610566576101fb565b8063330d83fa146103fd5780633950935114610405578063431b324414610431578063481c6a75146104a6576101fb565b806318160ddd116101ce57806318160ddd146102df57806323b872dd146102e757806324d5419e1461031d578063313ce567146103df576101fb565b806306fdde0314610200578063095ea7b31461027d5780630ab51bac146102bd578063158ef93e146102d7575b600080fd5b6102086108af565b6040805160208082528351818301528351919283929083019185019080838360005b8381101561024257818101518382015260200161022a565b50505050905090810190601f16801561026f5780820380516001836020036101000a031916815260200191505b509250505060405180910390f35b6102a96004803603604081101561029357600080fd5b506001600160a01b038135169060200135610945565b604080519115158252519081900360200190f35b6102c5610963565b60408051918252519081900360200190f35b6102a9610969565b6102c5610979565b6102a9600480360360608110156102fd57600080fd5b506001600160a01b0381358116916020810135909116906040013561097f565b6103dd6004803603608081101561033357600080fd5b8135916001600160a01b036020820135169160408201359190810190608081016060820135600160201b81111561036957600080fd5b82018360208201111561037b57600080fd5b803590602001918460018302840111600160201b8311171561039c57600080fd5b91908080601f016020809104026020016040519081016040528093929190818152602001838380828437600092019190915250929550610a07945050505050565b005b6103e7610b6a565b6040805160ff9092168252519081900360200190f35b6102a9610b73565b6102a96004803603604081101561041b57600080fd5b506001600160a01b038135169060200135610b97565b6103dd6004803603606081101561044757600080fd5b81359190810190604081016020820135600160201b81111561046857600080fd5b82018360208201111561047a57600080fd5b803590602001918460208302840111600160201b8311171561049b57600080fd5b919350915035610be5565b6104ae610f95565b604080516001600160a01b039092168252519081900360200190f35b6102c5610fb9565b6103dd600480360360408110156104e857600080fd5b810190602081018135600160201b81111561050257600080fd5b82018360208201111561051457600080fd5b803590602001918460208302840111600160201b8311171561053557600080fd5b919350915035610fbf565b6102c56004803603602081101561055657600080fd5b50356001600160a01b031661134d565b6102a9611368565b6103dd6004803603606081101561058457600080fd5b508035906020810135906040013561138c565b6103dd600480360360608110156105ad57600080fd5b813591602081013591810190606081016040820135600160201b8111156105d357600080fd5b8201836020820111156105e557600080fd5b803590602001918460018302840111600160201b8311171561060657600080fd5b509092509050611562565b6102c56116f5565b610208611719565b6102a96004803603602081101561063757600080fd5b50356001600160a01b031661177a565b6102a96004803603604081101561065d57600080fd5b506001600160a01b03813516906020013561178f565b6104ae6117f7565b6102c561181b565b6102a96004803603604081101561069957600080fd5b506001600160a01b03813516906020013561183f565b6103dd600480360360608110156106c557600080fd5b810190602081018135600160201b8111156106df57600080fd5b8201836020820111156106f157600080fd5b803590602001918460208302840111600160201b8311171561071257600080fd5b919350915080359060200135611853565b6103dd6004803603602081101561073957600080fd5b810190602081018135600160201b81111561075357600080fd5b82018360208201111561076557600080fd5b803590602001918460208302840111600160201b8311171561078657600080fd5b5090925090506121cd565b6104ae612284565b6102c5612298565b6102c5600480360360408110156107b757600080fd5b506001600160a01b03813581169160200135166122bc565b6104ae6122e7565b6103dd600480360360208110156107ed57600080fd5b810190602081018135600160201b81111561080757600080fd5b82018360208201111561081957600080fd5b803590602001918460208302840111600160201b8311171561083a57600080fd5b50909250905061230b565b6108626004803603602081101561085b57600080fd5b5035612443565b604080516001600160a01b0390991689526020890197909752878701959095526060870193909352608086019190915260a085015260c0840152151560e083015251908190036101000190f35b60038054604080516020601f600260001961010060018816150201909516949094049384018190048102820181019092528281526060939092909183018282801561093b5780601f106109105761010080835404028352916020019161093b565b820191906000526020600020905b81548152906001019060200180831161091e57829003601f168201915b5050505050905090565b60006109596109526124a6565b84846124aa565b5060015b92915050565b60065481565b600554600160a81b900460ff1681565b60025490565b600061098c848484612596565b6109fc846109986124a6565b6109f785604051806060016040528060288152602001613703602891396001600160a01b038a166000908152600160205260408120906109d66124a6565b6001600160a01b0316815260208101919091526040016000205491906126f1565b6124aa565b5060015b9392505050565b600554600160a81b900460ff1615610a5c576040805162461bcd60e51b8152602060048201526013602482015272105b1c9958591e481a5b9a5d1a585b1a5e9959606a1b604482015290519081900360640190fd5b7f00000000000000000000000000000000000000000000000000000000000000006001600160a01b0316610a8e6124a6565b6001600160a01b031614610adb576040805162461bcd60e51b815260206004820152600f60248201526e2737ba1020aaa6903ab83230ba32b960891b604482015290519081900360640190fd5b8180421115610b21576040805162461bcd60e51b815260206004820152600d60248201526c5061737420646561646c696e6560981b604482015290519081900360640190fd5b6006859055610b308383612788565b610b39846128fa565b610b5084610b49876103e8612946565b600161299f565b50506005805460ff60a81b1916600160a81b179055505050565b60055460ff1690565b7f000000000000000000000000000000000000000000000000000000000000000081565b6000610959610ba46124a6565b846109f78560016000610bb56124a6565b6001600160a01b03908116825260208083019390935260409182016000908120918c168152925290205490612ad8565b600554600160a81b900460ff16610c35576040805162461bcd60e51b815260206004820152600f60248201526e139bdd081a5b9a5d1a585b1a5e9959608a1b604482015290519081900360640190fd5b610c3d610979565b610c7f576040805162461bcd60e51b815260206004820152600e60248201526d119d5b99081a5cc818db1bdcd95960921b604482015290519081900360640190fd5b7f0000000000000000000000000000000000000000000000000000000000000000610cec576040805162461bcd60e51b8152602060048201526018602482015277125b9d995cdd1b595b9d1cc8185c9948191a5cd8589b195960421b604482015290519081900360640190fd5b60076000610cf86124a6565b6001600160a01b0316815260208101919091526040016000205460ff161515600114610d5d576040805162461bcd60e51b815260206004820152600f60248201526e139bdd081dda1a5d195b1a5cdd1959608a1b604482015290519081900360640190fd5b8080421115610da3576040805162461bcd60e51b815260206004820152600d60248201526c5061737420646561646c696e6560981b604482015290519081900360640190fd5b6000610dad6124a6565b905060005b84811015610f175760006008878784818110610dca57fe5b9050602002013581548110610ddb57fe5b6000918252602090912060089091020180549091506001600160a01b03848116911614610e4f576040805162461bcd60e51b815260206004820152601760248201527f4e6f742073656e646572277320696e766573746d656e74000000000000000000604482015290519081900360640190fd5b600781015460ff1615610e9c576040805162461bcd60e51b815260206004820152601060248201526f105b1c9958591e481c995919595b595960821b604482015290519081900360640190fd5b60058101544290610ecd907f0000000000000000000000000000000000000000000000000000000000000000612ad8565b1115610f0e576040805162461bcd60e51b815260206004820152600b60248201526a151a5b59481b1bd8dad95960aa1b604482015290519081900360640190fd5b50600101610db2565b50806001600160a01b03167fcfb9208347ccc39aaddc9759318936d34c26c238e90370ec8122a7eb251013b187878760405180848152602001806020018281038252848482818152602001925060200280828437600083820152604051601f909101601f1916909201829003965090945050505050a2505050505050565b7f000000000000000000000000000000000000000000000000000000000000000081565b60095481565b600554600160a81b900460ff1661100f576040805162461bcd60e51b815260206004820152600f60248201526e139bdd081a5b9a5d1a585b1a5e9959608a1b604482015290519081900360640190fd5b611017610979565b611059576040805162461bcd60e51b815260206004820152600e60248201526d119d5b99081a5cc818db1bdcd95960921b604482015290519081900360640190fd5b7f00000000000000000000000000000000000000000000000000000000000000006110c6576040805162461bcd60e51b8152602060048201526018602482015277125b9d995cdd1b595b9d1cc8185c9948191a5cd8589b195960421b604482015290519081900360640190fd5b7f00000000000000000000000000000000000000000000000000000000000000006001600160a01b03166110f86124a6565b6001600160a01b031614611141576040805162461bcd60e51b815260206004820152600b60248201526a2737ba1036b0b730b3b2b960a91b604482015290519081900360640190fd5b8080421115611187576040805162461bcd60e51b815260206004820152600d60248201526c5061737420646561646c696e6560981b604482015290519081900360640190fd5b60008060005b8581101561129f57600060088888848181106111a557fe5b90506020020135815481106111b657fe5b60009182526020909120600890910201600781015490915060ff1615611216576040805162461bcd60e51b815260206004820152601060248201526f105b1c9958591e481c995919595b595960821b604482015290519081900360640190fd5b6006810154429061122a906224ea00612ad8565b11156112675760405162461bcd60e51b81526004018080602001828103825260288152602001806135956028913960400191505060405180910390fd5b60008061127383612b32565b90925090506112828683612ad8565b955061128e8582612ad8565b9450506001909201915061118d9050565b507fe10232cb082ad9d2567dc8f6dcfdd590b915dc2c23630cebc1c8bf93dae190f18282888860405180858152602001848152602001806020018281038252848482818152602001925060200280828437600083820152604051601f909101601f191690920182900397509095505050505050a160008051602061379583398151915260065461132d610979565b6040805192835260208301919091528051918290030190a1505050505050565b6001600160a01b031660009081526020819052604090205490565b7f000000000000000000000000000000000000000000000000000000000000000081565b600554600160a81b900460ff166113dc576040805162461bcd60e51b815260206004820152600f60248201526e139bdd081a5b9a5d1a585b1a5e9959608a1b604482015290519081900360640190fd5b6113e4610979565b611426576040805162461bcd60e51b815260206004820152600e60248201526d119d5b99081a5cc818db1bdcd95960921b604482015290519081900360640190fd5b7f0000000000000000000000000000000000000000000000000000000000000000611493576040805162461bcd60e51b8152602060048201526018602482015277125b9d995cdd1b595b9d1cc8185c9948191a5cd8589b195960421b604482015290519081900360640190fd5b6007600061149f6124a6565b6001600160a01b0316815260208101919091526040016000205460ff161515600114611504576040805162461bcd60e51b815260206004820152600f60248201526e139bdd081dda1a5d195b1a5cdd1959608a1b604482015290519081900360640190fd5b808042111561154a576040805162461bcd60e51b815260206004820152600d60248201526c5061737420646561646c696e6560981b604482015290519081900360640190fd5b61155c6115556124a6565b858561299f565b50505050565b600554600160a81b900460ff166115b2576040805162461bcd60e51b815260206004820152600f60248201526e139bdd081a5b9a5d1a585b1a5e9959608a1b604482015290519081900360640190fd5b7f00000000000000000000000000000000000000000000000000000000000000006001600160a01b03166115e46124a6565b6001600160a01b031614611631576040805162461bcd60e51b815260206004820152600f60248201526e2737ba1020aaa6903ab83230ba32b960891b604482015290519081900360640190fd5b8280421115611677576040805162461bcd60e51b815260206004820152600d60248201526c5061737420646561646c696e6560981b604482015290519081900360640190fd5b846006819055506116be8484848080601f01602080910402602001604051908101604052809392919081815260200183838082843760009201919091525061278892505050565b600080516020613795833981519152856116d6610979565b6040805192835260208301919091528051918290030190a15050505050565b7f000000000000000000000000000000000000000000000000000000000000000081565b60048054604080516020601f600260001961010060018816150201909516949094049384018190048102820181019092528281526060939092909183018282801561093b5780601f106109105761010080835404028352916020019161093b565b60076020526000908152604090205460ff1681565b600061095961179c6124a6565b846109f7856040518060600160405280602581526020016137df60259139600160006117c66124a6565b6001600160a01b03908116825260208083019390935260409182016000908120918d168152925290205491906126f1565b7f000000000000000000000000000000000000000000000000000000000000000081565b7f000000000000000000000000000000000000000000000000000000000000000081565b600061095961184c6124a6565b8484612596565b600554600160a81b900460ff166118a3576040805162461bcd60e51b815260206004820152600f60248201526e139bdd081a5b9a5d1a585b1a5e9959608a1b604482015290519081900360640190fd5b6118ab610979565b6118ed576040805162461bcd60e51b815260206004820152600e60248201526d119d5b99081a5cc818db1bdcd95960921b604482015290519081900360640190fd5b7f000000000000000000000000000000000000000000000000000000000000000061195a576040805162461bcd60e51b8152602060048201526018602482015277125b9d995cdd1b595b9d1cc8185c9948191a5cd8589b195960421b604482015290519081900360640190fd5b7f00000000000000000000000000000000000000000000000000000000000000006001600160a01b031661198c6124a6565b6001600160a01b0316146119d5576040805162461bcd60e51b815260206004820152600b60248201526a2737ba1036b0b730b3b2b960a91b604482015290519081900360640190fd5b8080421115611a1b576040805162461bcd60e51b815260206004820152600d60248201526c5061737420646561646c696e6560981b604482015290519081900360640190fd5b6009546001148015611a2d5750600184145b15611d0657826006541015611a84576040805162461bcd60e51b815260206004820152601860248201527713195cdcc81d1a185b881b5a5b881d5cd908185b5bdd5b9d60421b604482015290519081900360640190fd5b6000600886866000818110611a9557fe5b9050602002013581548110611aa657fe5b60009182526020909120600890910201600781015490915060ff1615611b06576040805162461bcd60e51b815260206004820152601060248201526f105b1c9958591e481c995919595b595960821b604482015290519081900360640190fd5b60058101544290611b37907f0000000000000000000000000000000000000000000000000000000000000000612ad8565b1115611b78576040805162461bcd60e51b815260206004820152600b60248201526a151a5b59481b1bd8dad95960aa1b604482015290519081900360640190fd5b600080611b8483612b32565b60078501805460ff191660011790556009805460001901905584546004860154929450909250611bbf916001600160a01b0390911690612d32565b6000600654905060006006819055507fe10232cb082ad9d2567dc8f6dcfdd590b915dc2c23630cebc1c8bf93dae190f183838b8b60405180858152602001848152602001806020018281038252848482818152602001925060200280828437600083820152604051601f909101601f191690920182900397509095505050505050a18354600485015460408051828152602080820186905260609282018381529282018d90526001600160a01b03909416937fd4fe30e0dfe75bc29d5bfbc1f4a10133848ddb5322b8117cca9103e23440e5e6939286928f928f929060808301908590850280828437600083820152604051601f909101601f191690920182900397509095505050505050a2600080516020613795833981519152600654611ce5610979565b6040805192835260208301919091528051918290030190a1505050506121c6565b6000600886866000818110611d1757fe5b9050602002013581548110611d2857fe5b600091825260208220600890910201546001600160a01b03169150808080805b89811015611f7f578a8a82818110611d5c57fe5b9050602002013560001415611da25760405162461bcd60e51b815260040180806020018281038252602e815260200180613602602e913960400191505060405180910390fd5b600060088c8c84818110611db257fe5b9050602002013581548110611dc357fe5b60009182526020909120600890910201600781015490915060ff1615611e23576040805162461bcd60e51b815260206004820152601060248201526f105b1c9958591e481c995919595b595960821b604482015290519081900360640190fd5b60058101544290611e54907f0000000000000000000000000000000000000000000000000000000000000000612ad8565b1115611e95576040805162461bcd60e51b815260206004820152600b60248201526a151a5b59481b1bd8dad95960aa1b604482015290519081900360640190fd5b80546001600160a01b03888116911614611eee576040805162461bcd60e51b81526020600482015260156024820152742737ba10333937b69037b7329034b73b32b9ba37b960591b604482015290519081900360640190fd5b600080611efa83612b32565b9092509050611f098683612ad8565b9550611f158582612ad8565b60078401805460ff19166001179055600980546000190190556004840154909550611f409088612ad8565b9650611f6e88611f68611f51610979565b6006546004880154611f6291612946565b90612e2e565b90612ad8565b97505060019092019150611d489050565b5087841015611fd0576040805162461bcd60e51b815260206004820152601860248201527713195cdcc81d1a185b881b5a5b881d5cd908185b5bdd5b9d60421b604482015290519081900360640190fd5b611fda8584612d32565b600654611fe79085612e70565b60068190555061209e7f00000000000000000000000000000000000000000000000000000000000000008686600560019054906101000a90046001600160a01b03166001600160a01b031663f897a22b6040518163ffffffff1660e01b815260040160206040518083038186803b15801561206157600080fd5b505afa158015612075573d6000803e3d6000fd5b505050506040513d602081101561208b57600080fd5b50516001600160a01b0316929190612eb2565b7fe10232cb082ad9d2567dc8f6dcfdd590b915dc2c23630cebc1c8bf93dae190f182828c8c60405180858152602001848152602001806020018281038252848482818152602001925060200280828437600083820152604051601f909101601f191690920182900397509095505050505050a1846001600160a01b03167fd4fe30e0dfe75bc29d5bfbc1f4a10133848ddb5322b8117cca9103e23440e5e684868d8d60405180858152602001848152602001806020018281038252848482818152602001925060200280828437600083820152604051601f909101601f191690920182900397509095505050505050a26000805160206137958339815191526006546121a8610979565b6040805192835260208301919091528051918290030190a150505050505b5050505050565b7f00000000000000000000000000000000000000000000000000000000000000006001600160a01b03166121ff6124a6565b6001600160a01b031614612248576040805162461bcd60e51b815260206004820152600b60248201526a2737ba1036b0b730b3b2b960a91b604482015290519081900360640190fd5b60005b8181101561227f5761227783838381811061226257fe5b905060200201356001600160a01b03166128fa565b60010161224b565b505050565b60055461010090046001600160a01b031681565b7f000000000000000000000000000000000000000000000000000000000000000081565b6001600160a01b03918216600090815260016020908152604080832093909416825291909152205490565b7f000000000000000000000000000000000000000000000000000000000000000081565b7f00000000000000000000000000000000000000000000000000000000000000006001600160a01b031661233d6124a6565b6001600160a01b031614612386576040805162461bcd60e51b815260206004820152600b60248201526a2737ba1036b0b730b3b2b960a91b604482015290519081900360640190fd5b60005b8181101561227f576000600760008585858181106123a357fe5b905060200201356001600160a01b03166001600160a01b03166001600160a01b0316815260200190815260200160002060006101000a81548160ff0219169083151502179055508282828181106123f657fe5b905060200201356001600160a01b03166001600160a01b03167fffa4e6181777692565cf28528fc88fd1516ea86b56da075235fa575af6a4b85560405160405180910390a2600101612389565b6008818154811061245357600080fd5b6000918252602090912060089091020180546001820154600283015460038401546004850154600586015460068701546007909701546001600160a01b0390961697509395929491939092909160ff1688565b3390565b6001600160a01b0383166124ef5760405162461bcd60e51b81526004018080602001828103825260248152602001806137716024913960400191505060405180910390fd5b6001600160a01b0382166125345760405162461bcd60e51b81526004018080602001828103825260228152602001806136306022913960400191505060405180910390fd5b6001600160a01b03808416600081815260016020908152604080832094871680845294825291829020859055815185815291517f8c5be1e5ebec7d5bd14f71427d1e84f3dd0314c0f7b2291e5b200ac8c7c3b9259281900390910190a3505050565b6001600160a01b0383166125db5760405162461bcd60e51b815260040180806020018281038252602581526020018061374c6025913960400191505060405180910390fd5b6001600160a01b0382166126205760405162461bcd60e51b81526004018080602001828103825260238152602001806135bd6023913960400191505060405180910390fd5b61262b838383612f0c565b61266881604051806060016040528060268152602001613652602691396001600160a01b03861660009081526020819052604090205491906126f1565b6001600160a01b0380851660009081526020819052604080822093909355908416815220546126979082612ad8565b6001600160a01b038084166000818152602081815260409182902094909455805185815290519193928716927fddf252ad1be2c89b69c2b068fc378daa952ba7f163c4a11628f55a4df523b3ef92918290030190a3505050565b600081848411156127805760405162461bcd60e51b81526004018080602001828103825283818151815260200191508051906020019080838360005b8381101561274557818101518382015260200161272d565b50505050905090810190601f1680156127725780820380516001836020036101000a031916815260200191505b509250505060405180910390fd5b505050900390565b7f0000000000000000000000000000000000000000000000000000000000000000156128f65760007f00000000000000000000000000000000000000000000000000000000000000006006548460405160200180846001600160a01b03168152602001838152602001828152602001935050505060405160208183030381529060405280519060200120905060006128298361282384612f77565b90612fc8565b9050600560019054906101000a90046001600160a01b03166001600160a01b0316638da5cb5b6040518163ffffffff1660e01b815260040160206040518083038186803b15801561287957600080fd5b505afa15801561288d573d6000803e3d6000fd5b505050506040513d60208110156128a357600080fd5b50516001600160a01b0382811691161461155c576040805162461bcd60e51b815260206004820152600f60248201526e0a6d2cedccae440dad2e6dac2e8c6d608b1b604482015290519081900360640190fd5b5050565b6001600160a01b038116600081815260076020526040808220805460ff19166001179055517faab7954e9d246b167ef88aeddad35209ca2489d95a8aeb59e288d9b19fae5a549190a250565b6000826129555750600061095d565b8282028284828161296257fe5b0414610a005760405162461bcd60e51b81526004018080602001828103825260218152602001806136e26021913960400191505060405180910390fd5b6000821180156129af5750600081115b6129ee576040805162461bcd60e51b815260206004820152600b60248201526a0416d6f756e7420697320360ac1b604482015290519081900360640190fd5b6000612a08600654611f62612a01610979565b8690612946565b905081811015612a5f576040805162461bcd60e51b815260206004820152601960248201527f4c657373207468616e206d696e2066756e6420616d6f756e7400000000000000604482015290519081900360640190fd5b612ab3843085600560019054906101000a90046001600160a01b03166001600160a01b031663f897a22b6040518163ffffffff1660e01b815260040160206040518083038186803b15801561206157600080fd5b600654612ac09084612ad8565b600655612acd84826131af565b600880549060009082fe5b600082820183811015610a00576040805162461bcd60e51b815260206004820152601b60248201527f536166654d6174683a206164646974696f6e206f766572666c6f770000000000604482015290519081900360640190fd5b6000806000612b4e846005015442612e7090919063ffffffff16565b90506000612b9c644979cb9e00611f628760010154612b967f00000000000000000000000000000000000000000000000000000000000000008761294690919063ffffffff16565b90612946565b90506000612ba8610979565b90506000612bc982611f62896003015460065461294690919063ffffffff16565b905060008760010154821115612c1d57612c1a612710611f627f0000000000000000000000000000000000000000000000000000000000000000612b968c6001015487612e7090919063ffffffff16565b90505b6000612c298583612ad8565b90506000808a60020154831115612d1d5760028b0154612c4a908490612e70565b600654909250612c5e90611f628885612946565b8b54909150612c76906001600160a01b031682612d32565b600654612c839083612e70565b600681905550612d1d7f00000000000000000000000000000000000000000000000000000000000000007f000000000000000000000000000000000000000000000000000000000000000084600560019054906101000a90046001600160a01b03166001600160a01b031663f897a22b6040518163ffffffff1660e01b815260040160206040518083038186803b15801561206157600080fd5b4260068c015598509650505050505050915091565b6001600160a01b038216612d775760405162461bcd60e51b815260040180806020018281038252602181526020018061372b6021913960400191505060405180910390fd5b612d8382600083612f0c565b612dc0816040518060600160405280602281526020016135e0602291396001600160a01b03851660009081526020819052604090205491906126f1565b6001600160a01b038316600090815260208190526040902055600254612de69082612e70565b6002556040805182815290516000916001600160a01b038516917fddf252ad1be2c89b69c2b068fc378daa952ba7f163c4a11628f55a4df523b3ef9181900360200190a35050565b6000610a0083836040518060400160405280601a81526020017f536166654d6174683a206469766973696f6e206279207a65726f00000000000081525061329f565b6000610a0083836040518060400160405280601e81526020017f536166654d6174683a207375627472616374696f6e206f766572666c6f7700008152506126f1565b604080516001600160a01b0380861660248301528416604482015260648082018490528251808303909101815260849091019091526020810180516001600160e01b03166323b872dd60e01b17905261155c908590613304565b612f1783838361227f565b6001600160a01b0383161580612f3457506001600160a01b038216155b61227f576040805162461bcd60e51b815260206004820152600f60248201526e21b0b73737ba103a3930b739b332b960891b604482015290519081900360640190fd5b604080517f19457468657265756d205369676e6564204d6573736167653a0a333200000000602080830191909152603c8083019490945282518083039094018452605c909101909152815191012090565b60008151604114613020576040805162461bcd60e51b815260206004820152601f60248201527f45434453413a20696e76616c6964207369676e6174757265206c656e67746800604482015290519081900360640190fd5b60208201516040830151606084015160001a7f7fffffffffffffffffffffffffffffff5d576e7357a4501ddfe92f46681b20a08211156130915760405162461bcd60e51b81526004018080602001828103825260228152602001806136786022913960400191505060405180910390fd5b8060ff16601b14806130a657508060ff16601c145b6130e15760405162461bcd60e51b81526004018080602001828103825260228152602001806136c06022913960400191505060405180910390fd5b600060018783868660405160008152602001604052604051808581526020018460ff1681526020018381526020018281526020019450505050506020604051602081039080840390855afa15801561313d573d6000803e3d6000fd5b5050604051601f1901519150506001600160a01b0381166131a5576040805162461bcd60e51b815260206004820152601860248201527f45434453413a20696e76616c6964207369676e61747572650000000000000000604482015290519081900360640190fd5b9695505050505050565b6001600160a01b03821661320a576040805162461bcd60e51b815260206004820152601f60248201527f45524332303a206d696e7420746f20746865207a65726f206164647265737300604482015290519081900360640190fd5b61321660008383612f0c565b6002546132239082612ad8565b6002556001600160a01b0382166000908152602081905260409020546132499082612ad8565b6001600160a01b0383166000818152602081815260408083209490945583518581529351929391927fddf252ad1be2c89b69c2b068fc378daa952ba7f163c4a11628f55a4df523b3ef9281900390910190a35050565b600081836132ee5760405162461bcd60e51b815260206004820181815283516024840152835190928392604490910191908501908083836000831561274557818101518382015260200161272d565b5060008385816132fa57fe5b0495945050505050565b6060613359826040518060400160405280602081526020017f5361666545524332303a206c6f772d6c6576656c2063616c6c206661696c6564815250856001600160a01b03166133b59092919063ffffffff16565b80519091501561227f5780806020019051602081101561337857600080fd5b505161227f5760405162461bcd60e51b815260040180806020018281038252602a8152602001806137b5602a913960400191505060405180910390fd5b60606133c484846000856133cc565b949350505050565b60608247101561340d5760405162461bcd60e51b815260040180806020018281038252602681526020018061369a6026913960400191505060405180910390fd5b61341685613528565b613467576040805162461bcd60e51b815260206004820152601d60248201527f416464726573733a2063616c6c20746f206e6f6e2d636f6e7472616374000000604482015290519081900360640190fd5b60006060866001600160a01b031685876040518082805190602001908083835b602083106134a65780518252601f199092019160209182019101613487565b6001836020036101000a03801982511681845116808217855250505050505090500191505060006040518083038185875af1925050503d8060008114613508576040519150601f19603f3d011682016040523d82523d6000602084013e61350d565b606091505b509150915061351d82828661352e565b979650505050505050565b3b151590565b6060831561353d575081610a00565b82511561354d5782518084602001fd5b60405162461bcd60e51b815260206004820181815284516024840152845185939192839260440191908501908083836000831561274557818101518382015260200161272d56fe466565206c61737420636f6c6c6563746564206c657373207468616e2061206d6f6e74682061676f45524332303a207472616e7366657220746f20746865207a65726f206164647265737345524332303a206275726e20616d6f756e7420657863656564732062616c616e6365496e697469616c20696e766573746d656e74206d7573742062652072656465656d65642073657061726174656c7945524332303a20617070726f766520746f20746865207a65726f206164647265737345524332303a207472616e7366657220616d6f756e7420657863656564732062616c616e636545434453413a20696e76616c6964207369676e6174757265202773272076616c7565416464726573733a20696e73756666696369656e742062616c616e636520666f722063616c6c45434453413a20696e76616c6964207369676e6174757265202776272076616c7565536166654d6174683a206d756c7469706c69636174696f6e206f766572666c6f7745524332303a207472616e7366657220616d6f756e74206578636565647320616c6c6f77616e636545524332303a206275726e2066726f6d20746865207a65726f206164647265737345524332303a207472616e736665722066726f6d20746865207a65726f206164647265737345524332303a20617070726f76652066726f6d20746865207a65726f20616464726573731e1223c1f6274c6d64fdb08c485e192bd2896c9abf70e840e199ac1f54d6d1d55361666545524332303a204552433230206f7065726174696f6e20646964206e6f74207375636365656445524332303a2064656372656173656420616c6c6f77616e63652062656c6f77207a65726fa264697066735822122073b54e10cb85b50fcf6f3e3559dfdfbbf63026947afb567263951a9fe0e364f264736f6c63430007050033",
  "linkReferences": {},
  "deployedLinkReferences": {}
}